{
  "abi": [
    {
      "inputs": [
        {
          "internalType": "address",
          "name": "_token",
          "type": "address"
        },
        {
          "internalType": "address",
          "name": "_friesToken",
          "type": "address"
        },
        {
          "internalType": "address",
          "name": "_fryerConfig",
          "type": "address"
        }
      ],
      "stateMutability": "nonpayable",
      "type": "constructor"
    },
    {
      "anonymous": false,
      "inputs": [
        {
          "indexed": true,
          "internalType": "address",
          "name": "adapter",
          "type": "address"
        }
      ],
      "name": "ActiveVaultUpdated",
      "type": "event"
    },
    {
      "anonymous": false,
      "inputs": [
        {
          "indexed": true,
          "internalType": "address",
          "name": "newConfig",
          "type": "address"
        }
      ],
      "name": "ConfigUpdated",
      "type": "event"
    },
    {
      "anonymous": false,
      "inputs": [
        {
          "indexed": true,
          "internalType": "bool",
          "name": "emergencyExit",
          "type": "bool"
        }
      ],
      "name": "EmergencyExitUpdated",
      "type": "event"
    },
    {
      "anonymous": false,
      "inputs": [
        {
          "indexed": true,
          "internalType": "uint256",
          "name": "depositedAmount",
          "type": "uint256"
        }
      ],
      "name": "FundsFlushed",
      "type": "event"
    },
    {
      "anonymous": false,
      "inputs": [
        {
          "indexed": true,
          "internalType": "uint256",
          "name": "harvestedAmount",
          "type": "uint256"
        },
        {
          "indexed": true,
          "internalType": "uint256",
          "name": "decreasedValue",
          "type": "uint256"
        }
      ],
      "name": "FundsHarvested",
      "type": "event"
    },
    {
      "anonymous": false,
      "inputs": [
        {
          "indexed": true,
          "internalType": "uint256",
          "name": "vaultId",
          "type": "uint256"
        },
        {
          "indexed": false,
          "internalType": "uint256",
          "name": "withdrawnAmount",
          "type": "uint256"
        },
        {
          "indexed": false,
          "internalType": "uint256",
          "name": "decreasedValue",
          "type": "uint256"
        }
      ],
      "name": "FundsRecalled",
      "type": "event"
    },
    {
      "anonymous": false,
      "inputs": [
        {
          "indexed": true,
          "internalType": "address",
          "name": "_oldImpl",
          "type": "address"
        },
        {
          "indexed": true,
          "internalType": "address",
          "name": "_newImpl",
          "type": "address"
        }
      ],
      "name": "ImplChanged",
      "type": "event"
    },
    {
      "anonymous": false,
      "inputs": [
        {
          "indexed": true,
          "internalType": "address",
          "name": "newOven",
          "type": "address"
        }
      ],
      "name": "OvenUpdated",
      "type": "event"
    },
    {
      "anonymous": false,
      "inputs": [
        {
          "indexed": true,
          "internalType": "address",
          "name": "reward",
          "type": "address"
        }
      ],
      "name": "RewardsUpdated",
      "type": "event"
    },
    {
      "anonymous": false,
      "inputs": [
        {
          "indexed": true,
          "internalType": "address",
          "name": "user",
          "type": "address"
        },
        {
          "indexed": true,
          "internalType": "uint256",
          "name": "amount",
          "type": "uint256"
        }
      ],
      "name": "TokensDeposited",
      "type": "event"
    },
    {
      "anonymous": false,
      "inputs": [
        {
          "indexed": true,
          "internalType": "address",
          "name": "user",
          "type": "address"
        },
        {
          "indexed": true,
          "internalType": "uint256",
          "name": "amount",
          "type": "uint256"
        },
        {
          "indexed": false,
          "internalType": "uint256",
          "name": "withdrawnAmount",
          "type": "uint256"
        },
        {
          "indexed": false,
          "internalType": "uint256",
          "name": "decreasedValue",
          "type": "uint256"
        }
      ],
      "name": "TokensLiquidated",
      "type": "event"
    },
    {
      "anonymous": false,
      "inputs": [
        {
          "indexed": true,
          "internalType": "address",
          "name": "user",
          "type": "address"
        },
        {
          "indexed": true,
          "internalType": "uint256",
          "name": "parentAmount",
          "type": "uint256"
        },
        {
          "indexed": true,
          "internalType": "uint256",
          "name": "childAmount",
          "type": "uint256"
        }
      ],
      "name": "TokensRepaid",
      "type": "event"
    },
    {
      "anonymous": false,
      "inputs": [
        {
          "indexed": true,
          "internalType": "address",
          "name": "user",
          "type": "address"
        },
        {
          "indexed": true,
          "internalType": "uint256",
          "name": "amount",
          "type": "uint256"
        },
        {
          "indexed": false,
          "internalType": "uint256",
          "name": "withdrawnAmount",
          "type": "uint256"
        },
        {
          "indexed": false,
          "internalType": "uint256",
          "name": "decreasedValue",
          "type": "uint256"
        }
      ],
      "name": "TokensWithdrawn",
      "type": "event"
    },
    {
      "anonymous": false,
      "inputs": [
        {
          "indexed": true,
          "internalType": "address",
          "name": "user",
          "type": "address"
        },
        {
          "indexed": false,
          "internalType": "address",
          "name": "token",
          "type": "address"
        },
        {
          "indexed": false,
          "internalType": "uint256",
          "name": "amount",
          "type": "uint256"
        },
        {
          "indexed": false,
          "internalType": "uint256",
          "name": "fee",
          "type": "uint256"
        }
      ],
      "name": "UseFlashloan",
      "type": "event"
    },
    {
      "inputs": [],
      "name": "FLASH_CALLBACK_SUCCESS",
      "outputs": [
        {
          "internalType": "bytes32",
          "name": "",
          "type": "bytes32"
        }
      ],
      "stateMutability": "view",
      "type": "function"
    },
    {
      "inputs": [],
      "name": "_linkGasOracle",
      "outputs": [
        {
          "internalType": "address",
          "name": "",
          "type": "address"
        }
      ],
      "stateMutability": "view",
      "type": "function"
    },
    {
      "inputs": [
        {
          "internalType": "uint256",
          "name": "_amount",
          "type": "uint256"
        }
      ],
      "name": "borrow",
      "outputs": [],
      "stateMutability": "nonpayable",
      "type": "function"
    },
    {
      "inputs": [],
      "name": "collateralizationLimit",
      "outputs": [
        {
          "components": [
            {
              "internalType": "uint256",
              "name": "x",
              "type": "uint256"
            }
          ],
          "internalType": "struct FixedPointMath.uq192x64",
          "name": "",
          "type": "tuple"
        }
      ],
      "stateMutability": "view",
      "type": "function"
    },
    {
      "inputs": [
        {
          "internalType": "address",
          "name": "_fromToken",
          "type": "address"
        },
        {
          "internalType": "address",
          "name": "_toToken",
          "type": "address"
        },
        {
          "internalType": "uint256",
          "name": "_fromAmount",
          "type": "uint256"
        }
      ],
      "name": "convertTokenAmount",
      "outputs": [
        {
          "internalType": "uint256",
          "name": "toAmount",
          "type": "uint256"
        }
      ],
      "stateMutability": "view",
      "type": "function"
    },
    {
      "inputs": [
        {
          "internalType": "uint256",
          "name": "_amount",
          "type": "uint256"
        }
      ],
      "name": "deposit",
      "outputs": [],
      "stateMutability": "nonpayable",
      "type": "function"
    },
    {
      "inputs": [],
      "name": "emergencyExit",
      "outputs": [
        {
          "internalType": "bool",
          "name": "",
          "type": "bool"
        }
      ],
      "stateMutability": "view",
      "type": "function"
    },
    {
      "inputs": [
        {
          "internalType": "address",
          "name": "token_",
          "type": "address"
        },
        {
          "internalType": "uint256",
          "name": "amount",
          "type": "uint256"
        }
      ],
      "name": "flashFee",
      "outputs": [
        {
          "internalType": "uint256",
          "name": "",
          "type": "uint256"
        }
      ],
      "stateMutability": "view",
      "type": "function"
    },
    {
      "inputs": [
        {
          "internalType": "contract IERC3156FlashBorrower",
          "name": "receiver",
          "type": "address"
        },
        {
          "internalType": "address",
          "name": "token_",
          "type": "address"
        },
        {
          "internalType": "uint256",
          "name": "amount",
          "type": "uint256"
        },
        {
          "internalType": "bytes",
          "name": "data",
          "type": "bytes"
        }
      ],
      "name": "flashLoan",
      "outputs": [
        {
          "internalType": "bool",
          "name": "",
          "type": "bool"
        }
      ],
      "stateMutability": "nonpayable",
      "type": "function"
    },
    {
      "inputs": [],
      "name": "flush",
      "outputs": [
        {
          "internalType": "uint256",
          "name": "",
          "type": "uint256"
        }
      ],
      "stateMutability": "nonpayable",
      "type": "function"
    },
    {
      "inputs": [],
      "name": "flushActivator",
      "outputs": [
        {
          "internalType": "uint256",
          "name": "",
          "type": "uint256"
        }
      ],
      "stateMutability": "view",
      "type": "function"
    },
    {
      "inputs": [],
      "name": "friesToken",
      "outputs": [
        {
          "internalType": "address",
          "name": "",
          "type": "address"
        }
      ],
      "stateMutability": "view",
      "type": "function"
    },
    {
      "inputs": [],
      "name": "fryerConfig",
      "outputs": [
        {
          "internalType": "contract IFryerConfig",
          "name": "",
          "type": "address"
        }
      ],
      "stateMutability": "view",
      "type": "function"
    },
    {
      "inputs": [
        {
          "internalType": "address",
          "name": "_account",
          "type": "address"
        }
      ],
      "name": "getCdpLastDeposit",
      "outputs": [
        {
          "internalType": "uint256",
          "name": "",
          "type": "uint256"
        }
      ],
      "stateMutability": "view",
      "type": "function"
    },
    {
      "inputs": [
        {
          "internalType": "address",
          "name": "_account",
          "type": "address"
        }
      ],
      "name": "getCdpTotalCredit",
      "outputs": [
        {
          "internalType": "uint256",
          "name": "",
          "type": "uint256"
        }
      ],
      "stateMutability": "view",
      "type": "function"
    },
    {
      "inputs": [
        {
          "internalType": "address",
          "name": "_account",
          "type": "address"
        }
      ],
      "name": "getCdpTotalDebt",
      "outputs": [
        {
          "internalType": "uint256",
          "name": "",
          "type": "uint256"
        }
      ],
      "stateMutability": "view",
      "type": "function"
    },
    {
      "inputs": [
        {
          "internalType": "address",
          "name": "_account",
          "type": "address"
        }
      ],
      "name": "getCdpTotalDeposited",
      "outputs": [
        {
          "internalType": "uint256",
          "name": "",
          "type": "uint256"
        }
      ],
      "stateMutability": "view",
      "type": "function"
    },
    {
      "inputs": [
        {
          "internalType": "uint256",
          "name": "_vaultId",
          "type": "uint256"
        }
      ],
      "name": "getVaultAdapter",
      "outputs": [
        {
          "internalType": "contract IVaultAdapter",
          "name": "",
          "type": "address"
        }
      ],
      "stateMutability": "view",
      "type": "function"
    },
    {
      "inputs": [
        {
          "internalType": "uint256",
          "name": "_vaultId",
          "type": "uint256"
        }
      ],
      "name": "getVaultTotalDeposited",
      "outputs": [
        {
          "internalType": "uint256",
          "name": "",
          "type": "uint256"
        }
      ],
      "stateMutability": "view",
      "type": "function"
    },
    {
      "inputs": [
        {
          "internalType": "uint256",
          "name": "_vaultId",
          "type": "uint256"
        }
      ],
      "name": "harvest",
      "outputs": [
        {
          "internalType": "uint256",
          "name": "",
          "type": "uint256"
        },
        {
          "internalType": "uint256",
          "name": "",
          "type": "uint256"
        }
      ],
      "stateMutability": "nonpayable",
      "type": "function"
    },
    {
      "inputs": [],
      "name": "impl",
      "outputs": [
        {
          "internalType": "address",
          "name": "",
          "type": "address"
        }
      ],
      "stateMutability": "view",
      "type": "function"
    },
    {
      "inputs": [
        {
          "internalType": "address",
          "name": "_adapter",
          "type": "address"
        }
      ],
      "name": "initialize",
      "outputs": [],
      "stateMutability": "nonpayable",
      "type": "function"
    },
    {
      "inputs": [],
      "name": "initialized",
      "outputs": [
        {
          "internalType": "bool",
          "name": "",
          "type": "bool"
        }
      ],
      "stateMutability": "view",
      "type": "function"
    },
    {
      "inputs": [
        {
          "internalType": "uint256",
          "name": "_amount",
          "type": "uint256"
        }
      ],
      "name": "liquidate",
      "outputs": [
        {
          "internalType": "uint256",
          "name": "",
          "type": "uint256"
        },
        {
          "internalType": "uint256",
          "name": "",
          "type": "uint256"
        }
      ],
      "stateMutability": "nonpayable",
      "type": "function"
    },
    {
      "inputs": [
        {
          "internalType": "address",
          "name": "token_",
          "type": "address"
        }
      ],
      "name": "maxFlashLoan",
      "outputs": [
        {
          "internalType": "uint256",
          "name": "",
          "type": "uint256"
        }
      ],
      "stateMutability": "view",
      "type": "function"
    },
    {
      "inputs": [
        {
          "internalType": "address",
          "name": "_adapter",
          "type": "address"
        }
      ],
      "name": "migrate",
      "outputs": [],
      "stateMutability": "nonpayable",
      "type": "function"
    },
    {
      "inputs": [],
      "name": "oven",
      "outputs": [
        {
          "internalType": "address",
          "name": "",
          "type": "address"
        }
      ],
      "stateMutability": "view",
      "type": "function"
    },
    {
      "inputs": [],
      "name": "pegMinimum",
      "outputs": [
        {
          "internalType": "uint256",
          "name": "",
          "type": "uint256"
        }
      ],
      "stateMutability": "view",
      "type": "function"
    },
    {
      "inputs": [
        {
          "internalType": "address",
          "name": "_token",
          "type": "address"
        },
        {
          "internalType": "uint256",
          "name": "_amount",
          "type": "uint256"
        }
      ],
      "name": "precisionConversion",
      "outputs": [
        {
          "internalType": "uint256",
          "name": "toAmount",
          "type": "uint256"
        }
      ],
      "stateMutability": "view",
      "type": "function"
    },
    {
      "inputs": [
        {
          "internalType": "uint256",
          "name": "_vaultId",
          "type": "uint256"
        },
        {
          "internalType": "uint256",
          "name": "_amount",
          "type": "uint256"
        }
      ],
      "name": "recall",
      "outputs": [
        {
          "internalType": "uint256",
          "name": "",
          "type": "uint256"
        },
        {
          "internalType": "uint256",
          "name": "",
          "type": "uint256"
        }
      ],
      "stateMutability": "nonpayable",
      "type": "function"
    },
    {
      "inputs": [
        {
          "internalType": "uint256",
          "name": "_vaultId",
          "type": "uint256"
        }
      ],
      "name": "recallAll",
      "outputs": [
        {
          "internalType": "uint256",
          "name": "",
          "type": "uint256"
        },
        {
          "internalType": "uint256",
          "name": "",
          "type": "uint256"
        }
      ],
      "stateMutability": "nonpayable",
      "type": "function"
    },
    {
      "inputs": [
        {
          "internalType": "uint256",
          "name": "_parentAmount",
          "type": "uint256"
        },
        {
          "internalType": "uint256",
          "name": "_childAmount",
          "type": "uint256"
        }
      ],
      "name": "repay",
      "outputs": [],
      "stateMutability": "nonpayable",
      "type": "function"
    },
    {
      "inputs": [],
      "name": "rewards",
      "outputs": [
        {
          "internalType": "address",
          "name": "",
          "type": "address"
        }
      ],
      "stateMutability": "view",
      "type": "function"
    },
    {
      "inputs": [
        {
          "internalType": "address",
          "name": "_config",
          "type": "address"
        }
      ],
      "name": "setConfig",
      "outputs": [],
      "stateMutability": "nonpayable",
      "type": "function"
    },
    {
      "inputs": [
        {
          "internalType": "bool",
          "name": "_emergencyExit",
          "type": "bool"
        }
      ],
      "name": "setEmergencyExit",
      "outputs": [],
      "stateMutability": "nonpayable",
      "type": "function"
    },
    {
      "inputs": [
        {
          "internalType": "uint256",
          "name": "_flushActivator",
          "type": "uint256"
        }
      ],
      "name": "setFlushActivator",
      "outputs": [],
      "stateMutability": "nonpayable",
      "type": "function"
    },
    {
      "inputs": [
        {
          "internalType": "address",
          "name": "Oracle",
          "type": "address"
        },
        {
          "internalType": "uint256",
          "name": "peg",
          "type": "uint256"
        }
      ],
      "name": "setOracleAddress",
      "outputs": [],
      "stateMutability": "nonpayable",
      "type": "function"
    },
    {
      "inputs": [
        {
          "internalType": "address",
          "name": "_oven",
          "type": "address"
        }
      ],
      "name": "setOven",
      "outputs": [],
      "stateMutability": "nonpayable",
      "type": "function"
    },
    {
      "inputs": [
        {
          "internalType": "address",
          "name": "_rewards",
          "type": "address"
        }
      ],
      "name": "setRewards",
      "outputs": [],
      "stateMutability": "nonpayable",
      "type": "function"
    },
    {
      "inputs": [],
      "name": "token",
      "outputs": [
        {
          "internalType": "address",
          "name": "",
          "type": "address"
        }
      ],
      "stateMutability": "view",
      "type": "function"
    },
    {
      "inputs": [],
      "name": "totalDeposited",
      "outputs": [
        {
          "internalType": "uint256",
          "name": "",
          "type": "uint256"
        }
      ],
      "stateMutability": "view",
      "type": "function"
    },
    {
      "inputs": [
        {
          "internalType": "address",
          "name": "_newImpl",
          "type": "address"
        }
      ],
      "name": "upgradeImpl",
      "outputs": [],
      "stateMutability": "nonpayable",
      "type": "function"
    },
    {
      "inputs": [],
      "name": "vaultCount",
      "outputs": [
        {
          "internalType": "uint256",
          "name": "",
          "type": "uint256"
        }
      ],
      "stateMutability": "view",
      "type": "function"
    },
    {
      "inputs": [
        {
          "internalType": "uint256",
          "name": "_amount",
          "type": "uint256"
        }
      ],
      "name": "withdraw",
      "outputs": [
        {
          "internalType": "uint256",
          "name": "",
          "type": "uint256"
        },
        {
          "internalType": "uint256",
          "name": "",
          "type": "uint256"
        }
      ],
      "stateMutability": "nonpayable",
      "type": "function"
    }
  ],
  "evm": {
    "bytecode": {
      "linkReferences": {},
      "object": "60806040523480156200001157600080fd5b50604051620041fd380380620041fd833981016040819052620000349162000145565b600160008190558054336001600160a01b0319918216179091556002805482166001600160a01b03868116919091179182905560038054909316858216179092556040805163313ce56760e01b81529051919092169163313ce567916004808301926020929190829003018186803b158015620000b057600080fd5b505afa158015620000c5573d6000803e3d6000fd5b505050506040513d601f19601f82011682018060405250810190620000eb919062000198565b60ff16600a90810a620186a002600755600f80546001600160a01b03199081166001600160a01b03948516179182905560098054929094169116179091556040805160208101909152600090819052905550620001db9050565b6000806000606084860312156200015a578283fd5b83516200016781620001c2565b60208501519093506200017a81620001c2565b60408501519092506200018d81620001c2565b809150509250925092565b600060208284031215620001aa578081fd5b815160ff81168114620001bb578182fd5b9392505050565b6001600160a01b0381168114620001d857600080fd5b50565b61401280620001eb6000396000f3fe608060405234801561001057600080fd5b50600436106102745760003560e01c80639d908f5a11610151578063c8536f8f116100c3578063ec38a86211610087578063ec38a86214610509578063f0d787a31461051c578063fc00e8a014610524578063fc0c546a14610537578063fefdc5d11461053f578063ff50abdc1461055257610274565b8063c8536f8f146104aa578063ce5494bb146104bd578063d8aed145146104d0578063d9d98ce4146104e3578063ddc63262146104f657610274565b8063aa6e043411610115578063aa6e043414610443578063aaf1666014610456578063b6b55f2514610469578063bb39ef821461047c578063c4d66de814610484578063c5ebeaec1461049757610274565b80639d908f5a146104105780639ec5a89414610418578063a005fda314610420578063a1e401a914610428578063a7c6a1001461043b57610274565b80635641ec03116101ea57806375a356cc116101ae57806375a356cc146103bf5780637857a7c6146103d25780637b79b23e146103da5780638abf6077146103e257806393ce9d23146103ea5780639a9af221146103fd57610274565b80635641ec03146103765780635a9b5e921461037e5780635cffe9de14610391578063613255ab146103a45780636b9f96ea146103b757610274565b80632e1a7d4d1161023c5780632e1a7d4d146102f25780633847f03814610313578063415f12401461032857806345ee07551461033b5780634aaf7c651461034e5780634c3a8e021461036357610274565b8063158ef93e146102795780631a2f13631461029757806320e3dbd4146102ac57806322c37b75146102bf5780632670fdd8146102d2575b600080fd5b61028161055a565b60405161028e91906138ef565b60405180910390f35b6102aa6102a5366004613621565b610563565b005b6102aa6102ba366004613621565b61063c565b6102aa6102cd3660046137ae565b61077b565b6102e56102e03660046137ae565b6107aa565b60405161028e9190613824565b6103056103003660046137ae565b6107cb565b60405161028e929190613f4e565b61031b61096b565b60405161028e91906138fa565b6103056103363660046137ae565b610971565b6102aa6103493660046136c4565b610b39565b610356610ba8565b60405161028e9190613f44565b6103056103713660046137ae565b610bc0565b610281610c3a565b6102aa61038c366004613699565b610c48565b61028161039f366004613714565b610c98565b61031b6103b2366004613621565b610e3b565b61031b610ee3565b61031b6103cd366004613659565b610f69565b6102e56110ac565b61031b6110bb565b6102e56110df565b6102aa6103f8366004613621565b6110ee565b61031b61040b366004613621565b611219565b6102e5611237565b6102e5611246565b6102e5611255565b61031b610436366004613621565b611264565b61031b61127f565b61031b610451366004613621565b61128b565b61031b6104643660046137ae565b6112b5565b6102aa6104773660046137ae565b6112ce565b6102e5611410565b6102aa610492366004613621565b61141f565b6102aa6104a53660046137ae565b6115ed565b61031b6104b8366004613699565b61185e565b6102aa6104cb366004613621565b6118f9565b6102aa6104de3660046137c6565b611951565b61031b6104f1366004613699565b611c0d565b6103056105043660046137ae565b611c46565b6102aa610517366004613621565b611cce565b61031b611df9565b61031b610532366004613621565b611dff565b6102e5611e22565b61030561054d3660046137c6565b611e31565b61031b611e88565b60085460ff1681565b6001546001600160a01b031633146105965760405162461bcd60e51b815260040161058d90613c0e565b60405180910390fd5b6001600160a01b0381166105bc5760405162461bcd60e51b815260040161058d9061396d565b6001546001600160a01b03828116911614156105ea5760405162461bcd60e51b815260040161058d90613c76565b600180546001600160a01b038381166001600160a01b0319831681179093556040519116919082907faad46b89531ed10d02d926f4d6bfe234a6126e3fffc02d3b07167575f9c1433790600090a35050565b6001546001600160a01b031633146106665760405162461bcd60e51b815260040161058d90613c0e565b600f60009054906101000a90046001600160a01b03166001600160a01b031663538ba4f96040518163ffffffff1660e01b815260040160206040518083038186803b1580156106b457600080fd5b505afa1580156106c8573d6000803e3d6000fd5b505050506040513d601f19601f820116820180604052508101906106ec919061363d565b6001600160a01b0316816001600160a01b0316141561071d5760405162461bcd60e51b815260040161058d90613ac2565b600f80546001600160a01b038084166001600160a01b031992831681179384905560098054909316939091169290921790556040517f89b8aa6a0bad94aca607eff7d3631d67e0e67b2c775044f517a269ae8b6662af90600090a250565b6001546001600160a01b031633146107a55760405162461bcd60e51b815260040161058d90613c0e565b600755565b6000806107b8600c84611e8e565b546001600160a01b03169150505b919050565b600080600260005414156107f15760405162461bcd60e51b815260040161058d90613eb8565b60026000556107ff33611eb5565b15801561080b57503332145b6108275760405162461bcd60e51b815260040161058d90613a8d565b60085460ff166108495760405162461bcd60e51b815260040161058d90613dcb565b336000908152600b602052604090206003810154431161087b5760405162461bcd60e51b815260040161058d90613e2c565b610886816009611ebb565b6000806108933387611f1e565b60408051808201909152601b81527f4578636565647320776974686472617761626c6520616d6f756e740000000000602082015285549294509092506108db91908390612049565b83556040805160608101909152603180825261090491600991613fac6020830139859190612075565b6007548610610917576109156120a4565b505b85336001600160a01b03167fb3ad69dc1d2c6b1f5f5b0927ffd8ee8f1437a156253c8f6dccc75e6f8e4fd38b8484604051610953929190613f4e565b60405180910390a36001600055909590945092505050565b600e5481565b600080600260005414156109975760405162461bcd60e51b815260040161058d90613eb8565b60026000556109a533611eb5565b1580156109b157503332145b6109cd5760405162461bcd60e51b815260040161058d90613a8d565b600e5415610a7757600d54604080516350d25bcd60e01b815290516000926001600160a01b0316916350d25bcd916004808301926020929190829003018186803b158015610a1a57600080fd5b505afa158015610a2e573d6000803e3d6000fd5b505050506040513d601f19601f82011682018060405250810190610a5291906136fc565b9050600e548111610a755760405162461bcd60e51b815260040161058d90613eef565b505b60085460ff16610a995760405162461bcd60e51b815260040161058d90613dcb565b336000908152600b60205260409020610ab3816009611ebb565b8060010154841115610ac757806001015493505b600080610ad43087611f1e565b91509150610ae1826122fc565b8254610aed9082612403565b83556001830154610afe9083612403565b6001840155604051869033907f3ea051727656be6fd11c2260f244f29ff3c70d1fb077bfa73e89d554e9bb95c7906109539086908690613f4e565b6001546001600160a01b03163314610b635760405162461bcd60e51b815260040161058d90613c0e565b6008805461ff001916610100831515908102919091179091556040517ff0064f2efd0da4bc63eecf2e75590fe8a308eaa526a51c334e50eec09a71104990600090a250565b610bb061360e565b610bba600961242b565b90505b90565b60008060026000541415610be65760405162461bcd60e51b815260040161058d90613eb8565b600260005560085460ff16610c0d5760405162461bcd60e51b815260040161058d90613dcb565b6000610c1a600c85611e8e565b9050610c2a84826001015461256d565b6001600055909590945092505050565b600854610100900460ff1681565b6001546001600160a01b03163314610c725760405162461bcd60e51b815260040161058d90613c0e565b600d80546001600160a01b0319166001600160a01b039390931692909217909155600e55565b6002546000906001600160a01b03868116911614610cc85760405162461bcd60e51b815260040161058d90613996565b6000610cd385612629565b600254909150610ced906001600160a01b03168887612770565b6002546040516323e30c8b60e01b81527f439148f0bbc682ca079e46d6e2c2f0c1e3b820f1a291b069d8882abf8cf18dd9916001600160a01b03808b16926323e30c8b92610d4a9233929116908b9088908c908c90600401613838565b602060405180830381600087803b158015610d6457600080fd5b505af1158015610d78573d6000803e3d6000fd5b505050506040513d601f19601f82011682018060405250810190610d9c91906136fc565b14610db95760405162461bcd60e51b815260040161058d90613d6b565b610ddc8730610dc8888561285e565b6002546001600160a01b0316929190612883565b610de58161296c565b60025460405132917fedc5fb7867c40a2d7e1268a077f82bc782a7302f52cfe37eb01eb0cab9c8ffff91610e26916001600160a01b031690899086906138ce565b60405180910390a25060019695505050505050565b6002546000906001600160a01b0383811691161415610edb576002546040516370a0823160e01b81526001600160a01b03909116906370a0823190610e84903090600401613824565b60206040518083038186803b158015610e9c57600080fd5b505afa158015610eb0573d6000803e3d6000fd5b505050506040513d601f19601f82011682018060405250810190610ed491906136fc565b90506107c6565b5060006107c6565b600060026000541415610f085760405162461bcd60e51b815260040161058d90613eb8565b600260005560085460ff16610f2f5760405162461bcd60e51b815260040161058d90613dcb565b600854610100900460ff1615610f575760405162461bcd60e51b815260040161058d90613e3d565b610f5f6120a4565b9050600160005590565b600080846001600160a01b031663313ce5676040518163ffffffff1660e01b815260040160206040518083038186803b158015610fa557600080fd5b505afa158015610fb9573d6000803e3d6000fd5b505050506040513d601f19601f82011682018060405250810190610fdd91906137e7565b60ff1690506000846001600160a01b031663313ce5676040518163ffffffff1660e01b815260040160206040518083038186803b15801561101d57600080fd5b505afa158015611031573d6000803e3d6000fd5b505050506040513d601f19601f8201168201806040525081019061105591906137e7565b60ff169050808211156110805761107961106f8383612403565b8590600a0a612b29565b92506110a3565b8181111561109f576110796110958284612403565b8590600a0a612b5b565b8392505b50509392505050565b6003546001600160a01b031681565b7f439148f0bbc682ca079e46d6e2c2f0c1e3b820f1a291b069d8882abf8cf18dd981565b6001546001600160a01b031681565b6001546001600160a01b031633146111185760405162461bcd60e51b815260040161058d90613c0e565b600f60009054906101000a90046001600160a01b03166001600160a01b031663538ba4f96040518163ffffffff1660e01b815260040160206040518083038186803b15801561116657600080fd5b505afa15801561117a573d6000803e3d6000fd5b505050506040513d601f19601f8201168201806040525081019061119e919061363d565b6001600160a01b0316816001600160a01b031614156111cf5760405162461bcd60e51b815260040161058d90613b73565b600480546001600160a01b0319166001600160a01b0383169081179091556040517f88b3009fd17aa3fbf19d233400b10b7282db2bfa2a996dba8bc11c07b98d521090600090a250565b6001600160a01b03166000908152600b602052604090206003015490565b6004546001600160a01b031681565b6005546001600160a01b031681565b600d546001600160a01b031681565b6001600160a01b03166000908152600b602052604090205490565b6000610bba600c612b95565b6001600160a01b0381166000908152600b602052604081206112ae816009612b99565b9392505050565b6000806112c3600c84611e8e565b600101549392505050565b600260005414156112f15760405162461bcd60e51b815260040161058d90613eb8565b60026000556112ff33611eb5565b15801561130b57503332145b6113275760405162461bcd60e51b815260040161058d90613a8d565b60085460ff166113495760405162461bcd60e51b815260040161058d90613dcb565b600854610100900460ff16156113715760405162461bcd60e51b815260040161058d90613e3d565b336000908152600b6020526040902061138b816009611ebb565b6002546113a3906001600160a01b0316333085612883565b6006546113b0908361285e565b60065580546113bf908361285e565b815543600382015560075482106113da576113d86120a4565b505b604051829033907f59062170a285eb80e8c6b8ced60428442a51910635005233fc4ce084a475845e90600090a350506001600055565b600f546001600160a01b031681565b6001546001600160a01b031633146114495760405162461bcd60e51b815260040161058d90613c0e565b60085460ff161561146c5760405162461bcd60e51b815260040161058d90613be1565b600f60009054906101000a90046001600160a01b03166001600160a01b031663538ba4f96040518163ffffffff1660e01b815260040160206040518083038186803b1580156114ba57600080fd5b505afa1580156114ce573d6000803e3d6000fd5b505050506040513d601f19601f820116820180604052508101906114f2919061363d565b6004546001600160a01b03908116911614156115205760405162461bcd60e51b815260040161058d90613c31565b600f60009054906101000a90046001600160a01b03166001600160a01b031663538ba4f96040518163ffffffff1660e01b815260040160206040518083038186803b15801561156e57600080fd5b505afa158015611582573d6000803e3d6000fd5b505050506040513d601f19601f820116820180604052508101906115a6919061363d565b6005546001600160a01b03908116911614156115d45760405162461bcd60e51b815260040161058d90613a0e565b6115dd81612be3565b506008805460ff19166001179055565b600260005414156116105760405162461bcd60e51b815260040161058d90613eb8565b600260005561161e33611eb5565b15801561162a57503332145b6116465760405162461bcd60e51b815260040161058d90613a8d565b600e54156116f057600d54604080516350d25bcd60e01b815290516000926001600160a01b0316916350d25bcd916004808301926020929190829003018186803b15801561169357600080fd5b505afa1580156116a7573d6000803e3d6000fd5b505050506040513d601f19601f820116820180604052508101906116cb91906136fc565b9050600e5481116116ee5760405162461bcd60e51b815260040161058d90613eef565b505b60085460ff166117125760405162461bcd60e51b815260040161058d90613dcb565b336000908152600b6020526040902061172c816009611ebb565b6002810154828110156117ab5760006117458483612403565b6001840154909150611757908261285e565b60018401556000600284015560408051808201909152601c81527f4c6f616e2d746f2d76616c756520726174696f2062726561636865640000000060208201526117a5908490600990612075565b506117bb565b6117b58184612403565b60028301555b6002546003546000916117db916001600160a01b03918216911686610f69565b6003546040516340c10f1960e01b81529192506001600160a01b0316906340c10f199061180e9033908590600401613891565b600060405180830381600087803b15801561182857600080fd5b505af115801561183c573d6000803e3d6000fd5b505050506007548410611853576118516120a4565b505b505060016000555050565b600080836001600160a01b031663313ce5676040518163ffffffff1660e01b815260040160206040518083038186803b15801561189a57600080fd5b505afa1580156118ae573d6000803e3d6000fd5b505050506040513d601f19601f820116820180604052508101906118d291906137e7565b60ff1690506118ef600a82900a6118e98582612b29565b90612b5b565b9150505b92915050565b60085460ff1661191b5760405162461bcd60e51b815260040161058d90613dcb565b6001546001600160a01b031633146119455760405162461bcd60e51b815260040161058d90613c0e565b61194e81612be3565b50565b600260005414156119745760405162461bcd60e51b815260040161058d90613eb8565b600260005561198233611eb5565b15801561198e57503332145b6119aa5760405162461bcd60e51b815260040161058d90613a8d565b600e5415611a5457600d54604080516350d25bcd60e01b815290516000926001600160a01b0316916350d25bcd916004808301926020929190829003018186803b1580156119f757600080fd5b505afa158015611a0b573d6000803e3d6000fd5b505050506040513d601f19601f82011682018060405250810190611a2f91906136fc565b9050600e548111611a525760405162461bcd60e51b815260040161058d90613eef565b505b60085460ff16611a765760405162461bcd60e51b815260040161058d90613dcb565b336000908152600b60205260409020611a90816009611ebb565b8215611ab757600254611aae906001600160a01b0316333086612883565b611ab7836122fc565b600354600254600091611ad7916001600160a01b03918216911685610f69565b90508015611baa5760035460405163079cc67960e41b81526001600160a01b03909116906379cc679090611b119033908790600401613891565b600060405180830381600087803b158015611b2b57600080fd5b505af1158015611b3f573d6000803e3d6000fd5b505060035460405163288aafcb60e01b81526001600160a01b03909116925063288aafcb9150611b739086906004016138fa565b600060405180830381600087803b158015611b8d57600080fd5b505af1158015611ba1573d6000803e3d6000fd5b50505050611baf565b600092505b6000611bbb858361285e565b6001840154909150611bcd9082612403565b60018401556040518490869033907fbade234341a40ca3c71df59b3ca02b8bb65b491a098af970953228b4f4a5d38f90600090a450506001600055505050565b6002546000906001600160a01b03848116911614611c3d5760405162461bcd60e51b815260040161058d90613996565b6112ae82612629565b600854600090819060ff16611c6d5760405162461bcd60e51b815260040161058d90613dcb565b6000611c7a600c85611e8e565b9050600080611c898330612da4565b91509150611c968261296c565b604051819083907f11d2034f4471d11a13f0f1798ceaf0c9db2812d450a0681958ce7d4f2fb97f0990600090a3909350915050915091565b6001546001600160a01b03163314611cf85760405162461bcd60e51b815260040161058d90613c0e565b600f60009054906101000a90046001600160a01b03166001600160a01b031663538ba4f96040518163ffffffff1660e01b815260040160206040518083038186803b158015611d4657600080fd5b505afa158015611d5a573d6000803e3d6000fd5b505050506040513d601f19601f82011682018060405250810190611d7e919061363d565b6001600160a01b0316816001600160a01b03161415611daf5760405162461bcd60e51b815260040161058d90613df5565b600580546001600160a01b0319166001600160a01b0383169081179091556040517f05f3326e0527f309d4015dee3bc3f36e650b53fc823bab69c99847814acfafdf90600090a250565b60075481565b6001600160a01b0381166000908152600b602052604081206112ae816009612df7565b6002546001600160a01b031681565b60008060026000541415611e575760405162461bcd60e51b815260040161058d90613eb8565b600260005560085460ff16611e7e5760405162461bcd60e51b815260040161058d90613dcb565b610c2a848461256d565b60065481565b6000826000018281548110611e9f57fe5b9060005260206000209060020201905092915050565b3b151590565b6000611ec78383612e46565b90508260010154811115611ef5576001830180546000909155611eea8282612403565b600285015550611f11565b600060028401556001830154611f0b9082612403565b60018401555b5060010154600490910155565b6002546040516370a0823160e01b815260009182918291611fae9186916001600160a01b0316906370a0823190611f59903090600401613824565b60206040518083038186803b158015611f7157600080fd5b505afa158015611f85573d6000803e3d6000fd5b505050506040513d601f19601f82011682018060405250810190611fa991906136fc565b612eb6565b90506001600160a01b0385163014611fd757600254611fd7906001600160a01b03168683612770565b80806000611fe58783612403565b9050801561202a576000611ff9600c612ecc565b9050600080612009838c86612ef7565b9092509050612018868361285e565b9550612024858261285e565b94505050505b6006546120379083612403565b600655509093509150505b9250929050565b6000818484111561206d5760405162461bcd60e51b815260040161058d9190613903565b505050900390565b61207f8383612f2d565b819061209e5760405162461bcd60e51b815260040161058d9190613903565b50505050565b6000806120b1600c612ecc565b6002546040516370a0823160e01b81529192506000916001600160a01b03909116906370a08231906120e7903090600401613824565b60206040518083038186803b1580156120ff57600080fd5b505afa158015612113573d6000803e3d6000fd5b505050506040513d601f19601f8201168201806040525081019061213791906136fc565b600f546040516360ccef1960e11b81529192506000916001600160a01b039091169063c199de3290612186907546525945525f5641554c545f50455243454e5441474560501b906004016138fa565b60206040518083038186803b15801561219e57600080fd5b505afa1580156121b2573d6000803e3d6000fd5b505050506040513d601f19601f820116820180604052508101906121d691906136fc565b90506000612284600f60009054906101000a90046001600160a01b03166001600160a01b0316639e6c29596040518163ffffffff1660e01b815260040160206040518083038186803b15801561222b57600080fd5b505afa15801561223f573d6000803e3d6000fd5b505050506040513d601f19601f8201168201806040525081019061226391906136fc565b61227e846118e988600101548861285e90919063ffffffff16565b90612b29565b905083600101548111156122ef5760006122b56122ae86600101548461240390919063ffffffff16565b8690612f55565b60405190915081907f860f4701faa0ecdeecd9e9eaae11a8612bbd01c663081f7c0c4e4873df653d6990600090a29450610bbd9350505050565b6000945050505050610bbd565b600454600254612319916001600160a01b03918216911683612ffc565b60048054604051631f72642160e31b81526001600160a01b039091169163fb9321089161234a913091869101613891565b600060405180830381600087803b15801561236457600080fd5b505af1158015612378573d6000803e3d6000fd5b50506002546003546000935061239c92506001600160a01b03918216911684610f69565b60035460405163288aafcb60e01b81529192506001600160a01b03169063288aafcb906123cd9084906004016138fa565b600060405180830381600087803b1580156123e757600080fd5b505af11580156123fb573d6000803e3d6000fd5b505050505050565b6000828211156124255760405162461bcd60e51b815260040161058d90613b3c565b50900390565b61243361360e565b60405180602001604052806125658460000160009054906101000a90046001600160a01b03166001600160a01b0316639e6c29596040518163ffffffff1660e01b815260040160206040518083038186803b15801561249157600080fd5b505afa1580156124a5573d6000803e3d6000fd5b505050506040513d601f19601f820116820180604052508101906124c991906136fc565b85546040516360ccef1960e11b815261227e916001600160a01b03169063c199de3290612506906823292ca2a92fa62a2b60b91b906004016138fa565b60206040518083038186803b15801561251e57600080fd5b505afa158015612532573d6000803e3d6000fd5b505050506040513d601f19601f8201168201806040525081019061255691906136fc565b673782dace9d90000090612b5b565b905292915050565b6008546000908190610100900460ff168061259257506001546001600160a01b031633145b806125a657506125a2600c6130e3565b8414155b6125c25760405162461bcd60e51b815260040161058d90613c99565b60006125cf600c86611e8e565b90506000806125df833088612ef7565b91509150867fccbd929f935422b28ee209a0db0556280b0a3d9bc4da58f1d3f0ab4f8a4996478383604051612615929190613f4e565b60405180910390a290969095509350505050565b600f546040516360ccef1960e11b815260009182916001600160a01b039091169063c199de329061267e907f46525945525f464c4153485f4645455f50524f504f5254494f4e000000000000906004016138fa565b60206040518083038186803b15801561269657600080fd5b505afa1580156126aa573d6000803e3d6000fd5b505050506040513d601f19601f820116820180604052508101906126ce91906136fc565b90506000600f60009054906101000a90046001600160a01b03166001600160a01b0316639e6c29596040518163ffffffff1660e01b815260040160206040518083038186803b15801561272057600080fd5b505afa158015612734573d6000803e3d6000fd5b505050506040513d601f19601f8201168201806040525081019061275891906136fc565b90506127688161227e8685612b5b565b949350505050565b60006060846001600160a01b031663a9059cbb8585604051602401612796929190613891565b6040516020818303038152906040529060e01b6020820180516001600160e01b0383818316178352505050506040516127cf9190613808565b6000604051808303816000865af19150503d806000811461280c576040519150601f19603f3d011682016040523d82523d6000602084013e612811565b606091505b509150915081801561283b57508051158061283b57508080602001905181019061283b91906136e0565b6128575760405162461bcd60e51b815260040161058d90613936565b5050505050565b6000828201838110156112ae5760405162461bcd60e51b815260040161058d906139d7565b60006060856001600160a01b03166323b872dd8686866040516024016128ab939291906138aa565b6040516020818303038152906040529060e01b6020820180516001600160e01b0383818316178352505050506040516128e49190613808565b6000604051808303816000865af19150503d8060008114612921576040519150601f19603f3d011682016040523d82523d6000602084013e612926565b606091505b509150915081801561295057508051158061295057508080602001905181019061295091906136e0565b6123fb5760405162461bcd60e51b815260040161058d90613e74565b801561194e57600f546040516360ccef1960e11b81526000916001600160a01b03169063c199de32906129b7907046525945525f484152564553545f46454560781b906004016138fa565b60206040518083038186803b1580156129cf57600080fd5b505afa1580156129e3573d6000803e3d6000fd5b505050506040513d601f19601f82011682018060405250810190612a0791906136fc565b90506000612a9e600f60009054906101000a90046001600160a01b03166001600160a01b0316639e6c29596040518163ffffffff1660e01b815260040160206040518083038186803b158015612a5c57600080fd5b505afa158015612a70573d6000803e3d6000fd5b505050506040513d601f19601f82011682018060405250810190612a9491906136fc565b61227e8585612b5b565b90506000612aac8483612403565b60065490915015612af757612abf61360e565b612ad4600654612ace84613130565b90613172565b6040805160208101909152600a548152909150612af190826131a6565b51600a55505b8115612b1a57600554600254612b1a916001600160a01b03918216911684612770565b801561209e5761209e816122fc565b6000808211612b4a5760405162461bcd60e51b815260040161058d90613baa565b818381612b5357fe5b049392505050565b600082612b6a575060006118f3565b82820282848281612b7757fe5b04146112ae5760405162461bcd60e51b815260040161058d90613d2a565b5490565b600080612ba68484612e46565b905080612bb957505060018201546118f3565b6001840154808210612bd0576000925050506118f3565b612bda8183612403565b95945050505050565b600f60009054906101000a90046001600160a01b03166001600160a01b031663538ba4f96040518163ffffffff1660e01b815260040160206040518083038186803b158015612c3157600080fd5b505afa158015612c45573d6000803e3d6000fd5b505050506040513d601f19601f82011682018060405250810190612c69919061363d565b6001600160a01b0316816001600160a01b03161415612c9a5760405162461bcd60e51b815260040161058d90613af9565b60025460408051637e062a3560e11b8152905183926001600160a01b03908116929084169163fc0c546a91600480820192602092909190829003018186803b158015612ce557600080fd5b505afa158015612cf9573d6000803e3d6000fd5b505050506040513d601f19601f82011682018060405250810190612d1d919061363d565b6001600160a01b031614612d435760405162461bcd60e51b815260040161058d90613da2565b604080518082019091526001600160a01b038216815260006020820152612d6c90600c906131d6565b6040516001600160a01b038316907f0821015de34e20b0878a40f6f165801417f53b2017016d7321cacee989c8cfa790600090a25050565b6000808360010154612db58561327b565b11612dc557506000905080612042565b6000612dde8560010154612dd88761327b565b90612403565b9050612deb8585836132f7565b92509250509250929050565b600080612e048484612e46565b905080612e1757505060028201546118f3565b6001840154808211612e2e576000925050506118f3565b612bda612e3b8383612403565b60028701549061285e565b6000612e5061360e565b50604080516020810190915260018301548152612e6b61360e565b50604080516020810190915260048501548152612e8882826134b1565b612e97576000925050506118f3565b8454612bda90612eb190612eab85856134e2565b906134fd565b61352b565b6000818310612ec557816112ae565b5090919050565b600081612ed8816130e3565b81548110612ee257fe5b90600052602060002090600202019050919050565b6000808080612f078787876132f7565b60018901549193509150612f1b9082612403565b60018801559092509050935093915050565b600080612f4c612f3d858561353a565b612f468561242b565b906134b1565b13159392505050565b600080612f6184613576565b8454909150612f7d906001600160a01b03808416911685612770565b835460405163b6b55f2560e01b81526001600160a01b039091169063b6b55f2590612fac9086906004016138fa565b600060405180830381600087803b158015612fc657600080fd5b505af1158015612fda573d6000803e3d6000fd5b5050506001850154612fed91508461285e565b60018501555081905092915050565b60006060846001600160a01b031663095ea7b38585604051602401613022929190613891565b6040516020818303038152906040529060e01b6020820180516001600160e01b03838183161783525050505060405161305b9190613808565b6000604051808303816000865af19150503d8060008114613098576040519150601f19603f3d011682016040523d82523d6000602084013e61309d565b606091505b50915091508180156130c75750805115806130c75750808060200190518101906130c791906136e0565b6128575760405162461bcd60e51b815260040161058d90613a56565b6000806130ef83612b95565b90506112ae6001604051806040016040528060118152602001705661756c742e4c6973743a20656d70747960781b815250836120499092919063ffffffff16565b61313861360e565b6000821580613155575050670de0b6b3a764000082810290810483145b61315e57600080fd5b604080516020810190915290815292915050565b61317a61360e565b8161318457600080fd5b60405180602001604052808385600001518161319c57fe5b0490529392505050565b6131ae61360e565b825182518101908110156131c157600080fd5b60408051602081019091529081529392505050565b60005b8254811015613237578260000181815481106131f157fe5b600091825260209091206002909102015482516001600160a01b039081169116141561322f5760405162461bcd60e51b815260040161058d90613f1b565b6001016131d9565b508154600180820184556000938452602093849020835160029093020180546001600160a01b0319166001600160a01b039093169290921782559190920151910155565b8054604080516306a61f7560e51b815290516000926001600160a01b03169163d4c3eea0916004808301926020929190829003018186803b1580156132bf57600080fd5b505afa1580156132d3573d6000803e3d6000fd5b505050506040513d601f19601f820116820180604052508101906118f391906136fc565b600080600061330586613576565b90506000816001600160a01b03166370a08231876040518263ffffffff1660e01b81526004016133359190613824565b60206040518083038186803b15801561334d57600080fd5b505afa158015613361573d6000803e3d6000fd5b505050506040513d601f19601f8201168201806040525081019061338591906136fc565b905060006133928861327b565b885460405163f3fef3a360e01b81529192506001600160a01b03169063f3fef3a3906133c4908a908a90600401613891565b600060405180830381600087803b1580156133de57600080fd5b505af11580156133f2573d6000803e3d6000fd5b50506040516370a0823160e01b8152600092506001600160a01b03861691506370a0823190613425908b90600401613824565b60206040518083038186803b15801561343d57600080fd5b505afa158015613451573d6000803e3d6000fd5b505050506040513d601f19601f8201168201806040525081019061347591906136fc565b905060006134838285612403565b905060006134908b61327b565b9050600061349e8583612403565b929c929b50919950505050505050505050565b8051825160009111156134c757506000196118f3565b8151835111156134d9575060016118f3565b50600092915050565b6134ea61360e565b825182518103908111156131c157600080fd5b61350561360e565b600082158061352257505082518281029083828161351f57fe5b04145b6131c157600080fd5b51670de0b6b3a7640000900490565b61354261360e565b600061354e8484612b99565b9050806135655761355d6135f2565b9150506118f3565b6118ef81612ace8660000154613130565b805460408051637e062a3560e11b815290516000926001600160a01b03169163fc0c546a916004808301926020929190829003018186803b1580156135ba57600080fd5b505afa1580156135ce573d6000803e3d6000fd5b505050506040513d601f19601f820116820180604052508101906118f3919061363d565b6135fa61360e565b506040805160208101909152600019815290565b6040518060200160405280600081525090565b600060208284031215613632578081fd5b81356112ae81613f88565b60006020828403121561364e578081fd5b81516112ae81613f88565b60008060006060848603121561366d578182fd5b833561367881613f88565b9250602084013561368881613f88565b929592945050506040919091013590565b600080604083850312156136ab578182fd5b82356136b681613f88565b946020939093013593505050565b6000602082840312156136d5578081fd5b81356112ae81613f9d565b6000602082840312156136f1578081fd5b81516112ae81613f9d565b60006020828403121561370d578081fd5b5051919050565b60008060008060006080868803121561372b578081fd5b853561373681613f88565b9450602086013561374681613f88565b935060408601359250606086013567ffffffffffffffff80821115613769578283fd5b818801915088601f83011261377c578283fd5b81358181111561378a578384fd5b89602082850101111561379b578384fd5b9699959850939650602001949392505050565b6000602082840312156137bf578081fd5b5035919050565b600080604083850312156137d8578182fd5b50508035926020909101359150565b6000602082840312156137f8578081fd5b815160ff811681146112ae578182fd5b6000825161381a818460208701613f5c565b9190910192915050565b6001600160a01b0391909116815260200190565b6001600160a01b03878116825286166020820152604081018590526060810184905260a06080820181905281018290526000828460c084013781830160c090810191909152601f909201601f1916010195945050505050565b6001600160a01b03929092168252602082015260400190565b6001600160a01b039384168152919092166020820152604081019190915260600190565b6001600160a01b039390931683526020830191909152604082015260600190565b901515815260200190565b90815260200190565b6000602082528251806020840152613922816040850160208701613f5c565b601f01601f19169190910160400192915050565b6020808252601f908201527f5472616e7366657248656c7065723a205452414e534645525f4641494c454400604082015260600190565b6020808252600f908201526e494e56414c49445f4144445245535360881b604082015260600190565b60208082526021908201527f466c6173684c656e6465723a20556e737570706f727465642063757272656e636040820152607960f81b606082015260800190565b6020808252601b908201527f536166654d6174683a206164646974696f6e206f766572666c6f770000000000604082015260600190565b60208082526028908201527f63616e6e6f7420696e697469616c697a6520726577617264732061646472657360408201526707320746f203078360c41b606082015260800190565b6020808252601e908201527f5472616e7366657248656c7065723a20415050524f56455f4641494c45440000604082015260600190565b6020808252818101527f536f72727920776520646f206e6f742061636365707420636f6e747261637421604082015260600190565b6020808252601d908201527f636f6e66696720616464726573732063616e6e6f74206265203078302e000000604082015260600190565b60208082526023908201527f616374697665207661756c7420616464726573732063616e6e6f7420626520306040820152623c181760e91b606082015260800190565b6020808252601e908201527f536166654d6174683a207375627472616374696f6e206f766572666c6f770000604082015260600190565b6020808252601b908201527f6f76656e20616464726573732063616e6e6f74206265203078302e0000000000604082015260600190565b6020808252601a908201527f536166654d6174683a206469766973696f6e206279207a65726f000000000000604082015260600190565b602080825260139082015272185b1c9958591e481a5b9a5d1a585b1a5e9959606a1b604082015260600190565b6020808252600990820152682327a92124a22222a760b91b604082015260600190565b60208082526025908201527f63616e6e6f7420696e697469616c697a65206f76656e2061646472657373207460408201526406f203078360dc1b606082015260800190565b6020808252600990820152684e4f5f4348414e474560b81b604082015260600190565b60208082526065908201527f6e6f7420616e20656d657267656e63792c206e6f7420676f7665726e616e636560408201527f2c20616e64207573657220646f6573206e6f742068617665207065726d69737360608201527f696f6e20746f20726563616c6c2066756e64732066726f6d20616374697665206080820152641d985d5b1d60da1b60a082015260c00190565b60208082526021908201527f536166654d6174683a206d756c7469706c69636174696f6e206f766572666c6f6040820152607760f81b606082015260800190565b6020808252601c908201527f466c6173684c656e6465723a2043616c6c6261636b206661696c656400000000604082015260600190565b6020808252600f908201526e3a37b5b2b71036b4b9b6b0ba31b41760891b604082015260600190565b60208082526010908201526f3737ba1034b734ba34b0b634bd32b21760811b604082015260600190565b6020808252601e908201527f7265776172647320616464726573732063616e6e6f74206265203078302e0000604082015260600190565b602080825260009082015260400190565b60208082526017908201527f656d657267656e637920706175736520656e61626c6564000000000000000000604082015260600190565b60208082526024908201527f5472616e7366657248656c7065723a205452414e534645525f46524f4d5f46416040820152631253115160e21b606082015260800190565b6020808252601f908201527f5265656e7472616e637947756172643a207265656e7472616e742063616c6c00604082015260600190565b60208082526012908201527137b333103832b3903634b6b4ba30ba34b7b760711b604082015260600190565b6020808252600f908201526e10a932b832b0ba1030b230b83a32b960891b604082015260600190565b9051815260200190565b918252602082015260400190565b60005b83811015613f77578181015183820152602001613f5f565b8381111561209e5750506000910152565b6001600160a01b038116811461194e57600080fd5b801515811461194e57600080fdfe416374696f6e20626c6f636b65643a20756e6865616c74687920636f6c6c61746572616c697a6174696f6e20726174696fa2646970667358221220b3ceb935e8e5935c23d92e5fcd406718fdc6dcef8f604a26308864566067c36064736f6c634300060c0033",
      "opcodes": "PUSH1 0x80 PUSH1 0x40 MSTORE CALLVALUE DUP1 ISZERO PUSH3 0x11 JUMPI PUSH1 0x0 DUP1 REVERT JUMPDEST POP PUSH1 0x40 MLOAD PUSH3 0x41FD CODESIZE SUB DUP1 PUSH3 0x41FD DUP4 CODECOPY DUP2 ADD PUSH1 0x40 DUP2 SWAP1 MSTORE PUSH3 0x34 SWAP2 PUSH3 0x145 JUMP JUMPDEST PUSH1 0x1 PUSH1 0x0 DUP2 SWAP1 SSTORE DUP1 SLOAD CALLER PUSH1 0x1 PUSH1 0x1 PUSH1 0xA0 SHL SUB NOT SWAP2 DUP3 AND OR SWAP1 SWAP2 SSTORE PUSH1 0x2 DUP1 SLOAD DUP3 AND PUSH1 0x1 PUSH1 0x1 PUSH1 0xA0 SHL SUB DUP7 DUP2 AND SWAP2 SWAP1 SWAP2 OR SWAP2 DUP3 SWAP1 SSTORE PUSH1 0x3 DUP1 SLOAD SWAP1 SWAP4 AND DUP6 DUP3 AND OR SWAP1 SWAP3 SSTORE PUSH1 0x40 DUP1 MLOAD PUSH4 0x313CE567 PUSH1 0xE0 SHL DUP2 MSTORE SWAP1 MLOAD SWAP2 SWAP1 SWAP3 AND SWAP2 PUSH4 0x313CE567 SWAP2 PUSH1 0x4 DUP1 DUP4 ADD SWAP3 PUSH1 0x20 SWAP3 SWAP2 SWAP1 DUP3 SWAP1 SUB ADD DUP2 DUP7 DUP1 EXTCODESIZE ISZERO DUP1 ISZERO PUSH3 0xB0 JUMPI PUSH1 0x0 DUP1 REVERT JUMPDEST POP GAS STATICCALL ISZERO DUP1 ISZERO PUSH3 0xC5 JUMPI RETURNDATASIZE PUSH1 0x0 DUP1 RETURNDATACOPY RETURNDATASIZE PUSH1 0x0 REVERT JUMPDEST POP POP POP POP PUSH1 0x40 MLOAD RETURNDATASIZE PUSH1 0x1F NOT PUSH1 0x1F DUP3 ADD AND DUP3 ADD DUP1 PUSH1 0x40 MSTORE POP DUP2 ADD SWAP1 PUSH3 0xEB SWAP2 SWAP1 PUSH3 0x198 JUMP JUMPDEST PUSH1 0xFF AND PUSH1 0xA SWAP1 DUP2 EXP PUSH3 0x186A0 MUL PUSH1 0x7 SSTORE PUSH1 0xF DUP1 SLOAD PUSH1 0x1 PUSH1 0x1 PUSH1 0xA0 SHL SUB NOT SWAP1 DUP2 AND PUSH1 0x1 PUSH1 0x1 PUSH1 0xA0 SHL SUB SWAP5 DUP6 AND OR SWAP2 DUP3 SWAP1 SSTORE PUSH1 0x9 DUP1 SLOAD SWAP3 SWAP1 SWAP5 AND SWAP2 AND OR SWAP1 SWAP2 SSTORE PUSH1 0x40 DUP1 MLOAD PUSH1 0x20 DUP2 ADD SWAP1 SWAP2 MSTORE PUSH1 0x0 SWAP1 DUP2 SWAP1 MSTORE SWAP1 SSTORE POP PUSH3 0x1DB SWAP1 POP JUMP JUMPDEST PUSH1 0x0 DUP1 PUSH1 0x0 PUSH1 0x60 DUP5 DUP7 SUB SLT ISZERO PUSH3 0x15A JUMPI DUP3 DUP4 REVERT JUMPDEST DUP4 MLOAD PUSH3 0x167 DUP2 PUSH3 0x1C2 JUMP JUMPDEST PUSH1 0x20 DUP6 ADD MLOAD SWAP1 SWAP4 POP PUSH3 0x17A DUP2 PUSH3 0x1C2 JUMP JUMPDEST PUSH1 0x40 DUP6 ADD MLOAD SWAP1 SWAP3 POP PUSH3 0x18D DUP2 PUSH3 0x1C2 JUMP JUMPDEST DUP1 SWAP2 POP POP SWAP3 POP SWAP3 POP SWAP3 JUMP JUMPDEST PUSH1 0x0 PUSH1 0x20 DUP3 DUP5 SUB SLT ISZERO PUSH3 0x1AA JUMPI DUP1 DUP2 REVERT JUMPDEST DUP2 MLOAD PUSH1 0xFF DUP2 AND DUP2 EQ PUSH3 0x1BB JUMPI DUP2 DUP3 REVERT JUMPDEST SWAP4 SWAP3 POP POP POP JUMP JUMPDEST PUSH1 0x1 PUSH1 0x1 PUSH1 0xA0 SHL SUB DUP2 AND DUP2 EQ PUSH3 0x1D8 JUMPI PUSH1 0x0 DUP1 REVERT JUMPDEST POP JUMP JUMPDEST PUSH2 0x4012 DUP1 PUSH3 0x1EB PUSH1 0x0 CODECOPY PUSH1 0x0 RETURN INVALID PUSH1 0x80 PUSH1 0x40 MSTORE CALLVALUE DUP1 ISZERO PUSH2 0x10 JUMPI PUSH1 0x0 DUP1 REVERT JUMPDEST POP PUSH1 0x4 CALLDATASIZE LT PUSH2 0x274 JUMPI PUSH1 0x0 CALLDATALOAD PUSH1 0xE0 SHR DUP1 PUSH4 0x9D908F5A GT PUSH2 0x151 JUMPI DUP1 PUSH4 0xC8536F8F GT PUSH2 0xC3 JUMPI DUP1 PUSH4 0xEC38A862 GT PUSH2 0x87 JUMPI DUP1 PUSH4 0xEC38A862 EQ PUSH2 0x509 JUMPI DUP1 PUSH4 0xF0D787A3 EQ PUSH2 0x51C JUMPI DUP1 PUSH4 0xFC00E8A0 EQ PUSH2 0x524 JUMPI DUP1 PUSH4 0xFC0C546A EQ PUSH2 0x537 JUMPI DUP1 PUSH4 0xFEFDC5D1 EQ PUSH2 0x53F JUMPI DUP1 PUSH4 0xFF50ABDC EQ PUSH2 0x552 JUMPI PUSH2 0x274 JUMP JUMPDEST DUP1 PUSH4 0xC8536F8F EQ PUSH2 0x4AA JUMPI DUP1 PUSH4 0xCE5494BB EQ PUSH2 0x4BD JUMPI DUP1 PUSH4 0xD8AED145 EQ PUSH2 0x4D0 JUMPI DUP1 PUSH4 0xD9D98CE4 EQ PUSH2 0x4E3 JUMPI DUP1 PUSH4 0xDDC63262 EQ PUSH2 0x4F6 JUMPI PUSH2 0x274 JUMP JUMPDEST DUP1 PUSH4 0xAA6E0434 GT PUSH2 0x115 JUMPI DUP1 PUSH4 0xAA6E0434 EQ PUSH2 0x443 JUMPI DUP1 PUSH4 0xAAF16660 EQ PUSH2 0x456 JUMPI DUP1 PUSH4 0xB6B55F25 EQ PUSH2 0x469 JUMPI DUP1 PUSH4 0xBB39EF82 EQ PUSH2 0x47C JUMPI DUP1 PUSH4 0xC4D66DE8 EQ PUSH2 0x484 JUMPI DUP1 PUSH4 0xC5EBEAEC EQ PUSH2 0x497 JUMPI PUSH2 0x274 JUMP JUMPDEST DUP1 PUSH4 0x9D908F5A EQ PUSH2 0x410 JUMPI DUP1 PUSH4 0x9EC5A894 EQ PUSH2 0x418 JUMPI DUP1 PUSH4 0xA005FDA3 EQ PUSH2 0x420 JUMPI DUP1 PUSH4 0xA1E401A9 EQ PUSH2 0x428 JUMPI DUP1 PUSH4 0xA7C6A100 EQ PUSH2 0x43B JUMPI PUSH2 0x274 JUMP JUMPDEST DUP1 PUSH4 0x5641EC03 GT PUSH2 0x1EA JUMPI DUP1 PUSH4 0x75A356CC GT PUSH2 0x1AE JUMPI DUP1 PUSH4 0x75A356CC EQ PUSH2 0x3BF JUMPI DUP1 PUSH4 0x7857A7C6 EQ PUSH2 0x3D2 JUMPI DUP1 PUSH4 0x7B79B23E EQ PUSH2 0x3DA JUMPI DUP1 PUSH4 0x8ABF6077 EQ PUSH2 0x3E2 JUMPI DUP1 PUSH4 0x93CE9D23 EQ PUSH2 0x3EA JUMPI DUP1 PUSH4 0x9A9AF221 EQ PUSH2 0x3FD JUMPI PUSH2 0x274 JUMP JUMPDEST DUP1 PUSH4 0x5641EC03 EQ PUSH2 0x376 JUMPI DUP1 PUSH4 0x5A9B5E92 EQ PUSH2 0x37E JUMPI DUP1 PUSH4 0x5CFFE9DE EQ PUSH2 0x391 JUMPI DUP1 PUSH4 0x613255AB EQ PUSH2 0x3A4 JUMPI DUP1 PUSH4 0x6B9F96EA EQ PUSH2 0x3B7 JUMPI PUSH2 0x274 JUMP JUMPDEST DUP1 PUSH4 0x2E1A7D4D GT PUSH2 0x23C JUMPI DUP1 PUSH4 0x2E1A7D4D EQ PUSH2 0x2F2 JUMPI DUP1 PUSH4 0x3847F038 EQ PUSH2 0x313 JUMPI DUP1 PUSH4 0x415F1240 EQ PUSH2 0x328 JUMPI DUP1 PUSH4 0x45EE0755 EQ PUSH2 0x33B JUMPI DUP1 PUSH4 0x4AAF7C65 EQ PUSH2 0x34E JUMPI DUP1 PUSH4 0x4C3A8E02 EQ PUSH2 0x363 JUMPI PUSH2 0x274 JUMP JUMPDEST DUP1 PUSH4 0x158EF93E EQ PUSH2 0x279 JUMPI DUP1 PUSH4 0x1A2F1363 EQ PUSH2 0x297 JUMPI DUP1 PUSH4 0x20E3DBD4 EQ PUSH2 0x2AC JUMPI DUP1 PUSH4 0x22C37B75 EQ PUSH2 0x2BF JUMPI DUP1 PUSH4 0x2670FDD8 EQ PUSH2 0x2D2 JUMPI JUMPDEST PUSH1 0x0 DUP1 REVERT JUMPDEST PUSH2 0x281 PUSH2 0x55A JUMP JUMPDEST PUSH1 0x40 MLOAD PUSH2 0x28E SWAP2 SWAP1 PUSH2 0x38EF JUMP JUMPDEST PUSH1 0x40 MLOAD DUP1 SWAP2 SUB SWAP1 RETURN JUMPDEST PUSH2 0x2AA PUSH2 0x2A5 CALLDATASIZE PUSH1 0x4 PUSH2 0x3621 JUMP JUMPDEST PUSH2 0x563 JUMP JUMPDEST STOP JUMPDEST PUSH2 0x2AA PUSH2 0x2BA CALLDATASIZE PUSH1 0x4 PUSH2 0x3621 JUMP JUMPDEST PUSH2 0x63C JUMP JUMPDEST PUSH2 0x2AA PUSH2 0x2CD CALLDATASIZE PUSH1 0x4 PUSH2 0x37AE JUMP JUMPDEST PUSH2 0x77B JUMP JUMPDEST PUSH2 0x2E5 PUSH2 0x2E0 CALLDATASIZE PUSH1 0x4 PUSH2 0x37AE JUMP JUMPDEST PUSH2 0x7AA JUMP JUMPDEST PUSH1 0x40 MLOAD PUSH2 0x28E SWAP2 SWAP1 PUSH2 0x3824 JUMP JUMPDEST PUSH2 0x305 PUSH2 0x300 CALLDATASIZE PUSH1 0x4 PUSH2 0x37AE JUMP JUMPDEST PUSH2 0x7CB JUMP JUMPDEST PUSH1 0x40 MLOAD PUSH2 0x28E SWAP3 SWAP2 SWAP1 PUSH2 0x3F4E JUMP JUMPDEST PUSH2 0x31B PUSH2 0x96B JUMP JUMPDEST PUSH1 0x40 MLOAD PUSH2 0x28E SWAP2 SWAP1 PUSH2 0x38FA JUMP JUMPDEST PUSH2 0x305 PUSH2 0x336 CALLDATASIZE PUSH1 0x4 PUSH2 0x37AE JUMP JUMPDEST PUSH2 0x971 JUMP JUMPDEST PUSH2 0x2AA PUSH2 0x349 CALLDATASIZE PUSH1 0x4 PUSH2 0x36C4 JUMP JUMPDEST PUSH2 0xB39 JUMP JUMPDEST PUSH2 0x356 PUSH2 0xBA8 JUMP JUMPDEST PUSH1 0x40 MLOAD PUSH2 0x28E SWAP2 SWAP1 PUSH2 0x3F44 JUMP JUMPDEST PUSH2 0x305 PUSH2 0x371 CALLDATASIZE PUSH1 0x4 PUSH2 0x37AE JUMP JUMPDEST PUSH2 0xBC0 JUMP JUMPDEST PUSH2 0x281 PUSH2 0xC3A JUMP JUMPDEST PUSH2 0x2AA PUSH2 0x38C CALLDATASIZE PUSH1 0x4 PUSH2 0x3699 JUMP JUMPDEST PUSH2 0xC48 JUMP JUMPDEST PUSH2 0x281 PUSH2 0x39F CALLDATASIZE PUSH1 0x4 PUSH2 0x3714 JUMP JUMPDEST PUSH2 0xC98 JUMP JUMPDEST PUSH2 0x31B PUSH2 0x3B2 CALLDATASIZE PUSH1 0x4 PUSH2 0x3621 JUMP JUMPDEST PUSH2 0xE3B JUMP JUMPDEST PUSH2 0x31B PUSH2 0xEE3 JUMP JUMPDEST PUSH2 0x31B PUSH2 0x3CD CALLDATASIZE PUSH1 0x4 PUSH2 0x3659 JUMP JUMPDEST PUSH2 0xF69 JUMP JUMPDEST PUSH2 0x2E5 PUSH2 0x10AC JUMP JUMPDEST PUSH2 0x31B PUSH2 0x10BB JUMP JUMPDEST PUSH2 0x2E5 PUSH2 0x10DF JUMP JUMPDEST PUSH2 0x2AA PUSH2 0x3F8 CALLDATASIZE PUSH1 0x4 PUSH2 0x3621 JUMP JUMPDEST PUSH2 0x10EE JUMP JUMPDEST PUSH2 0x31B PUSH2 0x40B CALLDATASIZE PUSH1 0x4 PUSH2 0x3621 JUMP JUMPDEST PUSH2 0x1219 JUMP JUMPDEST PUSH2 0x2E5 PUSH2 0x1237 JUMP JUMPDEST PUSH2 0x2E5 PUSH2 0x1246 JUMP JUMPDEST PUSH2 0x2E5 PUSH2 0x1255 JUMP JUMPDEST PUSH2 0x31B PUSH2 0x436 CALLDATASIZE PUSH1 0x4 PUSH2 0x3621 JUMP JUMPDEST PUSH2 0x1264 JUMP JUMPDEST PUSH2 0x31B PUSH2 0x127F JUMP JUMPDEST PUSH2 0x31B PUSH2 0x451 CALLDATASIZE PUSH1 0x4 PUSH2 0x3621 JUMP JUMPDEST PUSH2 0x128B JUMP JUMPDEST PUSH2 0x31B PUSH2 0x464 CALLDATASIZE PUSH1 0x4 PUSH2 0x37AE JUMP JUMPDEST PUSH2 0x12B5 JUMP JUMPDEST PUSH2 0x2AA PUSH2 0x477 CALLDATASIZE PUSH1 0x4 PUSH2 0x37AE JUMP JUMPDEST PUSH2 0x12CE JUMP JUMPDEST PUSH2 0x2E5 PUSH2 0x1410 JUMP JUMPDEST PUSH2 0x2AA PUSH2 0x492 CALLDATASIZE PUSH1 0x4 PUSH2 0x3621 JUMP JUMPDEST PUSH2 0x141F JUMP JUMPDEST PUSH2 0x2AA PUSH2 0x4A5 CALLDATASIZE PUSH1 0x4 PUSH2 0x37AE JUMP JUMPDEST PUSH2 0x15ED JUMP JUMPDEST PUSH2 0x31B PUSH2 0x4B8 CALLDATASIZE PUSH1 0x4 PUSH2 0x3699 JUMP JUMPDEST PUSH2 0x185E JUMP JUMPDEST PUSH2 0x2AA PUSH2 0x4CB CALLDATASIZE PUSH1 0x4 PUSH2 0x3621 JUMP JUMPDEST PUSH2 0x18F9 JUMP JUMPDEST PUSH2 0x2AA PUSH2 0x4DE CALLDATASIZE PUSH1 0x4 PUSH2 0x37C6 JUMP JUMPDEST PUSH2 0x1951 JUMP JUMPDEST PUSH2 0x31B PUSH2 0x4F1 CALLDATASIZE PUSH1 0x4 PUSH2 0x3699 JUMP JUMPDEST PUSH2 0x1C0D JUMP JUMPDEST PUSH2 0x305 PUSH2 0x504 CALLDATASIZE PUSH1 0x4 PUSH2 0x37AE JUMP JUMPDEST PUSH2 0x1C46 JUMP JUMPDEST PUSH2 0x2AA PUSH2 0x517 CALLDATASIZE PUSH1 0x4 PUSH2 0x3621 JUMP JUMPDEST PUSH2 0x1CCE JUMP JUMPDEST PUSH2 0x31B PUSH2 0x1DF9 JUMP JUMPDEST PUSH2 0x31B PUSH2 0x532 CALLDATASIZE PUSH1 0x4 PUSH2 0x3621 JUMP JUMPDEST PUSH2 0x1DFF JUMP JUMPDEST PUSH2 0x2E5 PUSH2 0x1E22 JUMP JUMPDEST PUSH2 0x305 PUSH2 0x54D CALLDATASIZE PUSH1 0x4 PUSH2 0x37C6 JUMP JUMPDEST PUSH2 0x1E31 JUMP JUMPDEST PUSH2 0x31B PUSH2 0x1E88 JUMP JUMPDEST PUSH1 0x8 SLOAD PUSH1 0xFF AND DUP2 JUMP JUMPDEST PUSH1 0x1 SLOAD PUSH1 0x1 PUSH1 0x1 PUSH1 0xA0 SHL SUB AND CALLER EQ PUSH2 0x596 JUMPI PUSH1 0x40 MLOAD PUSH3 0x461BCD PUSH1 0xE5 SHL DUP2 MSTORE PUSH1 0x4 ADD PUSH2 0x58D SWAP1 PUSH2 0x3C0E JUMP JUMPDEST PUSH1 0x40 MLOAD DUP1 SWAP2 SUB SWAP1 REVERT JUMPDEST PUSH1 0x1 PUSH1 0x1 PUSH1 0xA0 SHL SUB DUP2 AND PUSH2 0x5BC JUMPI PUSH1 0x40 MLOAD PUSH3 0x461BCD PUSH1 0xE5 SHL DUP2 MSTORE PUSH1 0x4 ADD PUSH2 0x58D SWAP1 PUSH2 0x396D JUMP JUMPDEST PUSH1 0x1 SLOAD PUSH1 0x1 PUSH1 0x1 PUSH1 0xA0 SHL SUB DUP3 DUP2 AND SWAP2 AND EQ ISZERO PUSH2 0x5EA JUMPI PUSH1 0x40 MLOAD PUSH3 0x461BCD PUSH1 0xE5 SHL DUP2 MSTORE PUSH1 0x4 ADD PUSH2 0x58D SWAP1 PUSH2 0x3C76 JUMP JUMPDEST PUSH1 0x1 DUP1 SLOAD PUSH1 0x1 PUSH1 0x1 PUSH1 0xA0 SHL SUB DUP4 DUP2 AND PUSH1 0x1 PUSH1 0x1 PUSH1 0xA0 SHL SUB NOT DUP4 AND DUP2 OR SWAP1 SWAP4 SSTORE PUSH1 0x40 MLOAD SWAP2 AND SWAP2 SWAP1 DUP3 SWAP1 PUSH32 0xAAD46B89531ED10D02D926F4D6BFE234A6126E3FFFC02D3B07167575F9C14337 SWAP1 PUSH1 0x0 SWAP1 LOG3 POP POP JUMP JUMPDEST PUSH1 0x1 SLOAD PUSH1 0x1 PUSH1 0x1 PUSH1 0xA0 SHL SUB AND CALLER EQ PUSH2 0x666 JUMPI PUSH1 0x40 MLOAD PUSH3 0x461BCD PUSH1 0xE5 SHL DUP2 MSTORE PUSH1 0x4 ADD PUSH2 0x58D SWAP1 PUSH2 0x3C0E JUMP JUMPDEST PUSH1 0xF PUSH1 0x0 SWAP1 SLOAD SWAP1 PUSH2 0x100 EXP SWAP1 DIV PUSH1 0x1 PUSH1 0x1 PUSH1 0xA0 SHL SUB AND PUSH1 0x1 PUSH1 0x1 PUSH1 0xA0 SHL SUB AND PUSH4 0x538BA4F9 PUSH1 0x40 MLOAD DUP2 PUSH4 0xFFFFFFFF AND PUSH1 0xE0 SHL DUP2 MSTORE PUSH1 0x4 ADD PUSH1 0x20 PUSH1 0x40 MLOAD DUP1 DUP4 SUB DUP2 DUP7 DUP1 EXTCODESIZE ISZERO DUP1 ISZERO PUSH2 0x6B4 JUMPI PUSH1 0x0 DUP1 REVERT JUMPDEST POP GAS STATICCALL ISZERO DUP1 ISZERO PUSH2 0x6C8 JUMPI RETURNDATASIZE PUSH1 0x0 DUP1 RETURNDATACOPY RETURNDATASIZE PUSH1 0x0 REVERT JUMPDEST POP POP POP POP PUSH1 0x40 MLOAD RETURNDATASIZE PUSH1 0x1F NOT PUSH1 0x1F DUP3 ADD AND DUP3 ADD DUP1 PUSH1 0x40 MSTORE POP DUP2 ADD SWAP1 PUSH2 0x6EC SWAP2 SWAP1 PUSH2 0x363D JUMP JUMPDEST PUSH1 0x1 PUSH1 0x1 PUSH1 0xA0 SHL SUB AND DUP2 PUSH1 0x1 PUSH1 0x1 PUSH1 0xA0 SHL SUB AND EQ ISZERO PUSH2 0x71D JUMPI PUSH1 0x40 MLOAD PUSH3 0x461BCD PUSH1 0xE5 SHL DUP2 MSTORE PUSH1 0x4 ADD PUSH2 0x58D SWAP1 PUSH2 0x3AC2 JUMP JUMPDEST PUSH1 0xF DUP1 SLOAD PUSH1 0x1 PUSH1 0x1 PUSH1 0xA0 SHL SUB DUP1 DUP5 AND PUSH1 0x1 PUSH1 0x1 PUSH1 0xA0 SHL SUB NOT SWAP3 DUP4 AND DUP2 OR SWAP4 DUP5 SWAP1 SSTORE PUSH1 0x9 DUP1 SLOAD SWAP1 SWAP4 AND SWAP4 SWAP1 SWAP2 AND SWAP3 SWAP1 SWAP3 OR SWAP1 SSTORE PUSH1 0x40 MLOAD PUSH32 0x89B8AA6A0BAD94ACA607EFF7D3631D67E0E67B2C775044F517A269AE8B6662AF SWAP1 PUSH1 0x0 SWAP1 LOG2 POP JUMP JUMPDEST PUSH1 0x1 SLOAD PUSH1 0x1 PUSH1 0x1 PUSH1 0xA0 SHL SUB AND CALLER EQ PUSH2 0x7A5 JUMPI PUSH1 0x40 MLOAD PUSH3 0x461BCD PUSH1 0xE5 SHL DUP2 MSTORE PUSH1 0x4 ADD PUSH2 0x58D SWAP1 PUSH2 0x3C0E JUMP JUMPDEST PUSH1 0x7 SSTORE JUMP JUMPDEST PUSH1 0x0 DUP1 PUSH2 0x7B8 PUSH1 0xC DUP5 PUSH2 0x1E8E JUMP JUMPDEST SLOAD PUSH1 0x1 PUSH1 0x1 PUSH1 0xA0 SHL SUB AND SWAP2 POP POP JUMPDEST SWAP2 SWAP1 POP JUMP JUMPDEST PUSH1 0x0 DUP1 PUSH1 0x2 PUSH1 0x0 SLOAD EQ ISZERO PUSH2 0x7F1 JUMPI PUSH1 0x40 MLOAD PUSH3 0x461BCD PUSH1 0xE5 SHL DUP2 MSTORE PUSH1 0x4 ADD PUSH2 0x58D SWAP1 PUSH2 0x3EB8 JUMP JUMPDEST PUSH1 0x2 PUSH1 0x0 SSTORE PUSH2 0x7FF CALLER PUSH2 0x1EB5 JUMP JUMPDEST ISZERO DUP1 ISZERO PUSH2 0x80B JUMPI POP CALLER ORIGIN EQ JUMPDEST PUSH2 0x827 JUMPI PUSH1 0x40 MLOAD PUSH3 0x461BCD PUSH1 0xE5 SHL DUP2 MSTORE PUSH1 0x4 ADD PUSH2 0x58D SWAP1 PUSH2 0x3A8D JUMP JUMPDEST PUSH1 0x8 SLOAD PUSH1 0xFF AND PUSH2 0x849 JUMPI PUSH1 0x40 MLOAD PUSH3 0x461BCD PUSH1 0xE5 SHL DUP2 MSTORE PUSH1 0x4 ADD PUSH2 0x58D SWAP1 PUSH2 0x3DCB JUMP JUMPDEST CALLER PUSH1 0x0 SWAP1 DUP2 MSTORE PUSH1 0xB PUSH1 0x20 MSTORE PUSH1 0x40 SWAP1 KECCAK256 PUSH1 0x3 DUP2 ADD SLOAD NUMBER GT PUSH2 0x87B JUMPI PUSH1 0x40 MLOAD PUSH3 0x461BCD PUSH1 0xE5 SHL DUP2 MSTORE PUSH1 0x4 ADD PUSH2 0x58D SWAP1 PUSH2 0x3E2C JUMP JUMPDEST PUSH2 0x886 DUP2 PUSH1 0x9 PUSH2 0x1EBB JUMP JUMPDEST PUSH1 0x0 DUP1 PUSH2 0x893 CALLER DUP8 PUSH2 0x1F1E JUMP JUMPDEST PUSH1 0x40 DUP1 MLOAD DUP1 DUP3 ADD SWAP1 SWAP2 MSTORE PUSH1 0x1B DUP2 MSTORE PUSH32 0x4578636565647320776974686472617761626C6520616D6F756E740000000000 PUSH1 0x20 DUP3 ADD MSTORE DUP6 SLOAD SWAP3 SWAP5 POP SWAP1 SWAP3 POP PUSH2 0x8DB SWAP2 SWAP1 DUP4 SWAP1 PUSH2 0x2049 JUMP JUMPDEST DUP4 SSTORE PUSH1 0x40 DUP1 MLOAD PUSH1 0x60 DUP2 ADD SWAP1 SWAP2 MSTORE PUSH1 0x31 DUP1 DUP3 MSTORE PUSH2 0x904 SWAP2 PUSH1 0x9 SWAP2 PUSH2 0x3FAC PUSH1 0x20 DUP4 ADD CODECOPY DUP6 SWAP2 SWAP1 PUSH2 0x2075 JUMP JUMPDEST PUSH1 0x7 SLOAD DUP7 LT PUSH2 0x917 JUMPI PUSH2 0x915 PUSH2 0x20A4 JUMP JUMPDEST POP JUMPDEST DUP6 CALLER PUSH1 0x1 PUSH1 0x1 PUSH1 0xA0 SHL SUB AND PUSH32 0xB3AD69DC1D2C6B1F5F5B0927FFD8EE8F1437A156253C8F6DCCC75E6F8E4FD38B DUP5 DUP5 PUSH1 0x40 MLOAD PUSH2 0x953 SWAP3 SWAP2 SWAP1 PUSH2 0x3F4E JUMP JUMPDEST PUSH1 0x40 MLOAD DUP1 SWAP2 SUB SWAP1 LOG3 PUSH1 0x1 PUSH1 0x0 SSTORE SWAP1 SWAP6 SWAP1 SWAP5 POP SWAP3 POP POP POP JUMP JUMPDEST PUSH1 0xE SLOAD DUP2 JUMP JUMPDEST PUSH1 0x0 DUP1 PUSH1 0x2 PUSH1 0x0 SLOAD EQ ISZERO PUSH2 0x997 JUMPI PUSH1 0x40 MLOAD PUSH3 0x461BCD PUSH1 0xE5 SHL DUP2 MSTORE PUSH1 0x4 ADD PUSH2 0x58D SWAP1 PUSH2 0x3EB8 JUMP JUMPDEST PUSH1 0x2 PUSH1 0x0 SSTORE PUSH2 0x9A5 CALLER PUSH2 0x1EB5 JUMP JUMPDEST ISZERO DUP1 ISZERO PUSH2 0x9B1 JUMPI POP CALLER ORIGIN EQ JUMPDEST PUSH2 0x9CD JUMPI PUSH1 0x40 MLOAD PUSH3 0x461BCD PUSH1 0xE5 SHL DUP2 MSTORE PUSH1 0x4 ADD PUSH2 0x58D SWAP1 PUSH2 0x3A8D JUMP JUMPDEST PUSH1 0xE SLOAD ISZERO PUSH2 0xA77 JUMPI PUSH1 0xD SLOAD PUSH1 0x40 DUP1 MLOAD PUSH4 0x50D25BCD PUSH1 0xE0 SHL DUP2 MSTORE SWAP1 MLOAD PUSH1 0x0 SWAP3 PUSH1 0x1 PUSH1 0x1 PUSH1 0xA0 SHL SUB AND SWAP2 PUSH4 0x50D25BCD SWAP2 PUSH1 0x4 DUP1 DUP4 ADD SWAP3 PUSH1 0x20 SWAP3 SWAP2 SWAP1 DUP3 SWAP1 SUB ADD DUP2 DUP7 DUP1 EXTCODESIZE ISZERO DUP1 ISZERO PUSH2 0xA1A JUMPI PUSH1 0x0 DUP1 REVERT JUMPDEST POP GAS STATICCALL ISZERO DUP1 ISZERO PUSH2 0xA2E JUMPI RETURNDATASIZE PUSH1 0x0 DUP1 RETURNDATACOPY RETURNDATASIZE PUSH1 0x0 REVERT JUMPDEST POP POP POP POP PUSH1 0x40 MLOAD RETURNDATASIZE PUSH1 0x1F NOT PUSH1 0x1F DUP3 ADD AND DUP3 ADD DUP1 PUSH1 0x40 MSTORE POP DUP2 ADD SWAP1 PUSH2 0xA52 SWAP2 SWAP1 PUSH2 0x36FC JUMP JUMPDEST SWAP1 POP PUSH1 0xE SLOAD DUP2 GT PUSH2 0xA75 JUMPI PUSH1 0x40 MLOAD PUSH3 0x461BCD PUSH1 0xE5 SHL DUP2 MSTORE PUSH1 0x4 ADD PUSH2 0x58D SWAP1 PUSH2 0x3EEF JUMP JUMPDEST POP JUMPDEST PUSH1 0x8 SLOAD PUSH1 0xFF AND PUSH2 0xA99 JUMPI PUSH1 0x40 MLOAD PUSH3 0x461BCD PUSH1 0xE5 SHL DUP2 MSTORE PUSH1 0x4 ADD PUSH2 0x58D SWAP1 PUSH2 0x3DCB JUMP JUMPDEST CALLER PUSH1 0x0 SWAP1 DUP2 MSTORE PUSH1 0xB PUSH1 0x20 MSTORE PUSH1 0x40 SWAP1 KECCAK256 PUSH2 0xAB3 DUP2 PUSH1 0x9 PUSH2 0x1EBB JUMP JUMPDEST DUP1 PUSH1 0x1 ADD SLOAD DUP5 GT ISZERO PUSH2 0xAC7 JUMPI DUP1 PUSH1 0x1 ADD SLOAD SWAP4 POP JUMPDEST PUSH1 0x0 DUP1 PUSH2 0xAD4 ADDRESS DUP8 PUSH2 0x1F1E JUMP JUMPDEST SWAP2 POP SWAP2 POP PUSH2 0xAE1 DUP3 PUSH2 0x22FC JUMP JUMPDEST DUP3 SLOAD PUSH2 0xAED SWAP1 DUP3 PUSH2 0x2403 JUMP JUMPDEST DUP4 SSTORE PUSH1 0x1 DUP4 ADD SLOAD PUSH2 0xAFE SWAP1 DUP4 PUSH2 0x2403 JUMP JUMPDEST PUSH1 0x1 DUP5 ADD SSTORE PUSH1 0x40 MLOAD DUP7 SWAP1 CALLER SWAP1 PUSH32 0x3EA051727656BE6FD11C2260F244F29FF3C70D1FB077BFA73E89D554E9BB95C7 SWAP1 PUSH2 0x953 SWAP1 DUP7 SWAP1 DUP7 SWAP1 PUSH2 0x3F4E JUMP JUMPDEST PUSH1 0x1 SLOAD PUSH1 0x1 PUSH1 0x1 PUSH1 0xA0 SHL SUB AND CALLER EQ PUSH2 0xB63 JUMPI PUSH1 0x40 MLOAD PUSH3 0x461BCD PUSH1 0xE5 SHL DUP2 MSTORE PUSH1 0x4 ADD PUSH2 0x58D SWAP1 PUSH2 0x3C0E JUMP JUMPDEST PUSH1 0x8 DUP1 SLOAD PUSH2 0xFF00 NOT AND PUSH2 0x100 DUP4 ISZERO ISZERO SWAP1 DUP2 MUL SWAP2 SWAP1 SWAP2 OR SWAP1 SWAP2 SSTORE PUSH1 0x40 MLOAD PUSH32 0xF0064F2EFD0DA4BC63EECF2E75590FE8A308EAA526A51C334E50EEC09A711049 SWAP1 PUSH1 0x0 SWAP1 LOG2 POP JUMP JUMPDEST PUSH2 0xBB0 PUSH2 0x360E JUMP JUMPDEST PUSH2 0xBBA PUSH1 0x9 PUSH2 0x242B JUMP JUMPDEST SWAP1 POP JUMPDEST SWAP1 JUMP JUMPDEST PUSH1 0x0 DUP1 PUSH1 0x2 PUSH1 0x0 SLOAD EQ ISZERO PUSH2 0xBE6 JUMPI PUSH1 0x40 MLOAD PUSH3 0x461BCD PUSH1 0xE5 SHL DUP2 MSTORE PUSH1 0x4 ADD PUSH2 0x58D SWAP1 PUSH2 0x3EB8 JUMP JUMPDEST PUSH1 0x2 PUSH1 0x0 SSTORE PUSH1 0x8 SLOAD PUSH1 0xFF AND PUSH2 0xC0D JUMPI PUSH1 0x40 MLOAD PUSH3 0x461BCD PUSH1 0xE5 SHL DUP2 MSTORE PUSH1 0x4 ADD PUSH2 0x58D SWAP1 PUSH2 0x3DCB JUMP JUMPDEST PUSH1 0x0 PUSH2 0xC1A PUSH1 0xC DUP6 PUSH2 0x1E8E JUMP JUMPDEST SWAP1 POP PUSH2 0xC2A DUP5 DUP3 PUSH1 0x1 ADD SLOAD PUSH2 0x256D JUMP JUMPDEST PUSH1 0x1 PUSH1 0x0 SSTORE SWAP1 SWAP6 SWAP1 SWAP5 POP SWAP3 POP POP POP JUMP JUMPDEST PUSH1 0x8 SLOAD PUSH2 0x100 SWAP1 DIV PUSH1 0xFF AND DUP2 JUMP JUMPDEST PUSH1 0x1 SLOAD PUSH1 0x1 PUSH1 0x1 PUSH1 0xA0 SHL SUB AND CALLER EQ PUSH2 0xC72 JUMPI PUSH1 0x40 MLOAD PUSH3 0x461BCD PUSH1 0xE5 SHL DUP2 MSTORE PUSH1 0x4 ADD PUSH2 0x58D SWAP1 PUSH2 0x3C0E JUMP JUMPDEST PUSH1 0xD DUP1 SLOAD PUSH1 0x1 PUSH1 0x1 PUSH1 0xA0 SHL SUB NOT AND PUSH1 0x1 PUSH1 0x1 PUSH1 0xA0 SHL SUB SWAP4 SWAP1 SWAP4 AND SWAP3 SWAP1 SWAP3 OR SWAP1 SWAP2 SSTORE PUSH1 0xE SSTORE JUMP JUMPDEST PUSH1 0x2 SLOAD PUSH1 0x0 SWAP1 PUSH1 0x1 PUSH1 0x1 PUSH1 0xA0 SHL SUB DUP7 DUP2 AND SWAP2 AND EQ PUSH2 0xCC8 JUMPI PUSH1 0x40 MLOAD PUSH3 0x461BCD PUSH1 0xE5 SHL DUP2 MSTORE PUSH1 0x4 ADD PUSH2 0x58D SWAP1 PUSH2 0x3996 JUMP JUMPDEST PUSH1 0x0 PUSH2 0xCD3 DUP6 PUSH2 0x2629 JUMP JUMPDEST PUSH1 0x2 SLOAD SWAP1 SWAP2 POP PUSH2 0xCED SWAP1 PUSH1 0x1 PUSH1 0x1 PUSH1 0xA0 SHL SUB AND DUP9 DUP8 PUSH2 0x2770 JUMP JUMPDEST PUSH1 0x2 SLOAD PUSH1 0x40 MLOAD PUSH4 0x23E30C8B PUSH1 0xE0 SHL DUP2 MSTORE PUSH32 0x439148F0BBC682CA079E46D6E2C2F0C1E3B820F1A291B069D8882ABF8CF18DD9 SWAP2 PUSH1 0x1 PUSH1 0x1 PUSH1 0xA0 SHL SUB DUP1 DUP12 AND SWAP3 PUSH4 0x23E30C8B SWAP3 PUSH2 0xD4A SWAP3 CALLER SWAP3 SWAP2 AND SWAP1 DUP12 SWAP1 DUP9 SWAP1 DUP13 SWAP1 DUP13 SWAP1 PUSH1 0x4 ADD PUSH2 0x3838 JUMP JUMPDEST PUSH1 0x20 PUSH1 0x40 MLOAD DUP1 DUP4 SUB DUP2 PUSH1 0x0 DUP8 DUP1 EXTCODESIZE ISZERO DUP1 ISZERO PUSH2 0xD64 JUMPI PUSH1 0x0 DUP1 REVERT JUMPDEST POP GAS CALL ISZERO DUP1 ISZERO PUSH2 0xD78 JUMPI RETURNDATASIZE PUSH1 0x0 DUP1 RETURNDATACOPY RETURNDATASIZE PUSH1 0x0 REVERT JUMPDEST POP POP POP POP PUSH1 0x40 MLOAD RETURNDATASIZE PUSH1 0x1F NOT PUSH1 0x1F DUP3 ADD AND DUP3 ADD DUP1 PUSH1 0x40 MSTORE POP DUP2 ADD SWAP1 PUSH2 0xD9C SWAP2 SWAP1 PUSH2 0x36FC JUMP JUMPDEST EQ PUSH2 0xDB9 JUMPI PUSH1 0x40 MLOAD PUSH3 0x461BCD PUSH1 0xE5 SHL DUP2 MSTORE PUSH1 0x4 ADD PUSH2 0x58D SWAP1 PUSH2 0x3D6B JUMP JUMPDEST PUSH2 0xDDC DUP8 ADDRESS PUSH2 0xDC8 DUP9 DUP6 PUSH2 0x285E JUMP JUMPDEST PUSH1 0x2 SLOAD PUSH1 0x1 PUSH1 0x1 PUSH1 0xA0 SHL SUB AND SWAP3 SWAP2 SWAP1 PUSH2 0x2883 JUMP JUMPDEST PUSH2 0xDE5 DUP2 PUSH2 0x296C JUMP JUMPDEST PUSH1 0x2 SLOAD PUSH1 0x40 MLOAD ORIGIN SWAP2 PUSH32 0xEDC5FB7867C40A2D7E1268A077F82BC782A7302F52CFE37EB01EB0CAB9C8FFFF SWAP2 PUSH2 0xE26 SWAP2 PUSH1 0x1 PUSH1 0x1 PUSH1 0xA0 SHL SUB AND SWAP1 DUP10 SWAP1 DUP7 SWAP1 PUSH2 0x38CE JUMP JUMPDEST PUSH1 0x40 MLOAD DUP1 SWAP2 SUB SWAP1 LOG2 POP PUSH1 0x1 SWAP7 SWAP6 POP POP POP POP POP POP JUMP JUMPDEST PUSH1 0x2 SLOAD PUSH1 0x0 SWAP1 PUSH1 0x1 PUSH1 0x1 PUSH1 0xA0 SHL SUB DUP4 DUP2 AND SWAP2 AND EQ ISZERO PUSH2 0xEDB JUMPI PUSH1 0x2 SLOAD PUSH1 0x40 MLOAD PUSH4 0x70A08231 PUSH1 0xE0 SHL DUP2 MSTORE PUSH1 0x1 PUSH1 0x1 PUSH1 0xA0 SHL SUB SWAP1 SWAP2 AND SWAP1 PUSH4 0x70A08231 SWAP1 PUSH2 0xE84 SWAP1 ADDRESS SWAP1 PUSH1 0x4 ADD PUSH2 0x3824 JUMP JUMPDEST PUSH1 0x20 PUSH1 0x40 MLOAD DUP1 DUP4 SUB DUP2 DUP7 DUP1 EXTCODESIZE ISZERO DUP1 ISZERO PUSH2 0xE9C JUMPI PUSH1 0x0 DUP1 REVERT JUMPDEST POP GAS STATICCALL ISZERO DUP1 ISZERO PUSH2 0xEB0 JUMPI RETURNDATASIZE PUSH1 0x0 DUP1 RETURNDATACOPY RETURNDATASIZE PUSH1 0x0 REVERT JUMPDEST POP POP POP POP PUSH1 0x40 MLOAD RETURNDATASIZE PUSH1 0x1F NOT PUSH1 0x1F DUP3 ADD AND DUP3 ADD DUP1 PUSH1 0x40 MSTORE POP DUP2 ADD SWAP1 PUSH2 0xED4 SWAP2 SWAP1 PUSH2 0x36FC JUMP JUMPDEST SWAP1 POP PUSH2 0x7C6 JUMP JUMPDEST POP PUSH1 0x0 PUSH2 0x7C6 JUMP JUMPDEST PUSH1 0x0 PUSH1 0x2 PUSH1 0x0 SLOAD EQ ISZERO PUSH2 0xF08 JUMPI PUSH1 0x40 MLOAD PUSH3 0x461BCD PUSH1 0xE5 SHL DUP2 MSTORE PUSH1 0x4 ADD PUSH2 0x58D SWAP1 PUSH2 0x3EB8 JUMP JUMPDEST PUSH1 0x2 PUSH1 0x0 SSTORE PUSH1 0x8 SLOAD PUSH1 0xFF AND PUSH2 0xF2F JUMPI PUSH1 0x40 MLOAD PUSH3 0x461BCD PUSH1 0xE5 SHL DUP2 MSTORE PUSH1 0x4 ADD PUSH2 0x58D SWAP1 PUSH2 0x3DCB JUMP JUMPDEST PUSH1 0x8 SLOAD PUSH2 0x100 SWAP1 DIV PUSH1 0xFF AND ISZERO PUSH2 0xF57 JUMPI PUSH1 0x40 MLOAD PUSH3 0x461BCD PUSH1 0xE5 SHL DUP2 MSTORE PUSH1 0x4 ADD PUSH2 0x58D SWAP1 PUSH2 0x3E3D JUMP JUMPDEST PUSH2 0xF5F PUSH2 0x20A4 JUMP JUMPDEST SWAP1 POP PUSH1 0x1 PUSH1 0x0 SSTORE SWAP1 JUMP JUMPDEST PUSH1 0x0 DUP1 DUP5 PUSH1 0x1 PUSH1 0x1 PUSH1 0xA0 SHL SUB AND PUSH4 0x313CE567 PUSH1 0x40 MLOAD DUP2 PUSH4 0xFFFFFFFF AND PUSH1 0xE0 SHL DUP2 MSTORE PUSH1 0x4 ADD PUSH1 0x20 PUSH1 0x40 MLOAD DUP1 DUP4 SUB DUP2 DUP7 DUP1 EXTCODESIZE ISZERO DUP1 ISZERO PUSH2 0xFA5 JUMPI PUSH1 0x0 DUP1 REVERT JUMPDEST POP GAS STATICCALL ISZERO DUP1 ISZERO PUSH2 0xFB9 JUMPI RETURNDATASIZE PUSH1 0x0 DUP1 RETURNDATACOPY RETURNDATASIZE PUSH1 0x0 REVERT JUMPDEST POP POP POP POP PUSH1 0x40 MLOAD RETURNDATASIZE PUSH1 0x1F NOT PUSH1 0x1F DUP3 ADD AND DUP3 ADD DUP1 PUSH1 0x40 MSTORE POP DUP2 ADD SWAP1 PUSH2 0xFDD SWAP2 SWAP1 PUSH2 0x37E7 JUMP JUMPDEST PUSH1 0xFF AND SWAP1 POP PUSH1 0x0 DUP5 PUSH1 0x1 PUSH1 0x1 PUSH1 0xA0 SHL SUB AND PUSH4 0x313CE567 PUSH1 0x40 MLOAD DUP2 PUSH4 0xFFFFFFFF AND PUSH1 0xE0 SHL DUP2 MSTORE PUSH1 0x4 ADD PUSH1 0x20 PUSH1 0x40 MLOAD DUP1 DUP4 SUB DUP2 DUP7 DUP1 EXTCODESIZE ISZERO DUP1 ISZERO PUSH2 0x101D JUMPI PUSH1 0x0 DUP1 REVERT JUMPDEST POP GAS STATICCALL ISZERO DUP1 ISZERO PUSH2 0x1031 JUMPI RETURNDATASIZE PUSH1 0x0 DUP1 RETURNDATACOPY RETURNDATASIZE PUSH1 0x0 REVERT JUMPDEST POP POP POP POP PUSH1 0x40 MLOAD RETURNDATASIZE PUSH1 0x1F NOT PUSH1 0x1F DUP3 ADD AND DUP3 ADD DUP1 PUSH1 0x40 MSTORE POP DUP2 ADD SWAP1 PUSH2 0x1055 SWAP2 SWAP1 PUSH2 0x37E7 JUMP JUMPDEST PUSH1 0xFF AND SWAP1 POP DUP1 DUP3 GT ISZERO PUSH2 0x1080 JUMPI PUSH2 0x1079 PUSH2 0x106F DUP4 DUP4 PUSH2 0x2403 JUMP JUMPDEST DUP6 SWAP1 PUSH1 0xA EXP PUSH2 0x2B29 JUMP JUMPDEST SWAP3 POP PUSH2 0x10A3 JUMP JUMPDEST DUP2 DUP2 GT ISZERO PUSH2 0x109F JUMPI PUSH2 0x1079 PUSH2 0x1095 DUP3 DUP5 PUSH2 0x2403 JUMP JUMPDEST DUP6 SWAP1 PUSH1 0xA EXP PUSH2 0x2B5B JUMP JUMPDEST DUP4 SWAP3 POP JUMPDEST POP POP SWAP4 SWAP3 POP POP POP JUMP JUMPDEST PUSH1 0x3 SLOAD PUSH1 0x1 PUSH1 0x1 PUSH1 0xA0 SHL SUB AND DUP2 JUMP JUMPDEST PUSH32 0x439148F0BBC682CA079E46D6E2C2F0C1E3B820F1A291B069D8882ABF8CF18DD9 DUP2 JUMP JUMPDEST PUSH1 0x1 SLOAD PUSH1 0x1 PUSH1 0x1 PUSH1 0xA0 SHL SUB AND DUP2 JUMP JUMPDEST PUSH1 0x1 SLOAD PUSH1 0x1 PUSH1 0x1 PUSH1 0xA0 SHL SUB AND CALLER EQ PUSH2 0x1118 JUMPI PUSH1 0x40 MLOAD PUSH3 0x461BCD PUSH1 0xE5 SHL DUP2 MSTORE PUSH1 0x4 ADD PUSH2 0x58D SWAP1 PUSH2 0x3C0E JUMP JUMPDEST PUSH1 0xF PUSH1 0x0 SWAP1 SLOAD SWAP1 PUSH2 0x100 EXP SWAP1 DIV PUSH1 0x1 PUSH1 0x1 PUSH1 0xA0 SHL SUB AND PUSH1 0x1 PUSH1 0x1 PUSH1 0xA0 SHL SUB AND PUSH4 0x538BA4F9 PUSH1 0x40 MLOAD DUP2 PUSH4 0xFFFFFFFF AND PUSH1 0xE0 SHL DUP2 MSTORE PUSH1 0x4 ADD PUSH1 0x20 PUSH1 0x40 MLOAD DUP1 DUP4 SUB DUP2 DUP7 DUP1 EXTCODESIZE ISZERO DUP1 ISZERO PUSH2 0x1166 JUMPI PUSH1 0x0 DUP1 REVERT JUMPDEST POP GAS STATICCALL ISZERO DUP1 ISZERO PUSH2 0x117A JUMPI RETURNDATASIZE PUSH1 0x0 DUP1 RETURNDATACOPY RETURNDATASIZE PUSH1 0x0 REVERT JUMPDEST POP POP POP POP PUSH1 0x40 MLOAD RETURNDATASIZE PUSH1 0x1F NOT PUSH1 0x1F DUP3 ADD AND DUP3 ADD DUP1 PUSH1 0x40 MSTORE POP DUP2 ADD SWAP1 PUSH2 0x119E SWAP2 SWAP1 PUSH2 0x363D JUMP JUMPDEST PUSH1 0x1 PUSH1 0x1 PUSH1 0xA0 SHL SUB AND DUP2 PUSH1 0x1 PUSH1 0x1 PUSH1 0xA0 SHL SUB AND EQ ISZERO PUSH2 0x11CF JUMPI PUSH1 0x40 MLOAD PUSH3 0x461BCD PUSH1 0xE5 SHL DUP2 MSTORE PUSH1 0x4 ADD PUSH2 0x58D SWAP1 PUSH2 0x3B73 JUMP JUMPDEST PUSH1 0x4 DUP1 SLOAD PUSH1 0x1 PUSH1 0x1 PUSH1 0xA0 SHL SUB NOT AND PUSH1 0x1 PUSH1 0x1 PUSH1 0xA0 SHL SUB DUP4 AND SWAP1 DUP2 OR SWAP1 SWAP2 SSTORE PUSH1 0x40 MLOAD PUSH32 0x88B3009FD17AA3FBF19D233400B10B7282DB2BFA2A996DBA8BC11C07B98D5210 SWAP1 PUSH1 0x0 SWAP1 LOG2 POP JUMP JUMPDEST PUSH1 0x1 PUSH1 0x1 PUSH1 0xA0 SHL SUB AND PUSH1 0x0 SWAP1 DUP2 MSTORE PUSH1 0xB PUSH1 0x20 MSTORE PUSH1 0x40 SWAP1 KECCAK256 PUSH1 0x3 ADD SLOAD SWAP1 JUMP JUMPDEST PUSH1 0x4 SLOAD PUSH1 0x1 PUSH1 0x1 PUSH1 0xA0 SHL SUB AND DUP2 JUMP JUMPDEST PUSH1 0x5 SLOAD PUSH1 0x1 PUSH1 0x1 PUSH1 0xA0 SHL SUB AND DUP2 JUMP JUMPDEST PUSH1 0xD SLOAD PUSH1 0x1 PUSH1 0x1 PUSH1 0xA0 SHL SUB AND DUP2 JUMP JUMPDEST PUSH1 0x1 PUSH1 0x1 PUSH1 0xA0 SHL SUB AND PUSH1 0x0 SWAP1 DUP2 MSTORE PUSH1 0xB PUSH1 0x20 MSTORE PUSH1 0x40 SWAP1 KECCAK256 SLOAD SWAP1 JUMP JUMPDEST PUSH1 0x0 PUSH2 0xBBA PUSH1 0xC PUSH2 0x2B95 JUMP JUMPDEST PUSH1 0x1 PUSH1 0x1 PUSH1 0xA0 SHL SUB DUP2 AND PUSH1 0x0 SWAP1 DUP2 MSTORE PUSH1 0xB PUSH1 0x20 MSTORE PUSH1 0x40 DUP2 KECCAK256 PUSH2 0x12AE DUP2 PUSH1 0x9 PUSH2 0x2B99 JUMP JUMPDEST SWAP4 SWAP3 POP POP POP JUMP JUMPDEST PUSH1 0x0 DUP1 PUSH2 0x12C3 PUSH1 0xC DUP5 PUSH2 0x1E8E JUMP JUMPDEST PUSH1 0x1 ADD SLOAD SWAP4 SWAP3 POP POP POP JUMP JUMPDEST PUSH1 0x2 PUSH1 0x0 SLOAD EQ ISZERO PUSH2 0x12F1 JUMPI PUSH1 0x40 MLOAD PUSH3 0x461BCD PUSH1 0xE5 SHL DUP2 MSTORE PUSH1 0x4 ADD PUSH2 0x58D SWAP1 PUSH2 0x3EB8 JUMP JUMPDEST PUSH1 0x2 PUSH1 0x0 SSTORE PUSH2 0x12FF CALLER PUSH2 0x1EB5 JUMP JUMPDEST ISZERO DUP1 ISZERO PUSH2 0x130B JUMPI POP CALLER ORIGIN EQ JUMPDEST PUSH2 0x1327 JUMPI PUSH1 0x40 MLOAD PUSH3 0x461BCD PUSH1 0xE5 SHL DUP2 MSTORE PUSH1 0x4 ADD PUSH2 0x58D SWAP1 PUSH2 0x3A8D JUMP JUMPDEST PUSH1 0x8 SLOAD PUSH1 0xFF AND PUSH2 0x1349 JUMPI PUSH1 0x40 MLOAD PUSH3 0x461BCD PUSH1 0xE5 SHL DUP2 MSTORE PUSH1 0x4 ADD PUSH2 0x58D SWAP1 PUSH2 0x3DCB JUMP JUMPDEST PUSH1 0x8 SLOAD PUSH2 0x100 SWAP1 DIV PUSH1 0xFF AND ISZERO PUSH2 0x1371 JUMPI PUSH1 0x40 MLOAD PUSH3 0x461BCD PUSH1 0xE5 SHL DUP2 MSTORE PUSH1 0x4 ADD PUSH2 0x58D SWAP1 PUSH2 0x3E3D JUMP JUMPDEST CALLER PUSH1 0x0 SWAP1 DUP2 MSTORE PUSH1 0xB PUSH1 0x20 MSTORE PUSH1 0x40 SWAP1 KECCAK256 PUSH2 0x138B DUP2 PUSH1 0x9 PUSH2 0x1EBB JUMP JUMPDEST PUSH1 0x2 SLOAD PUSH2 0x13A3 SWAP1 PUSH1 0x1 PUSH1 0x1 PUSH1 0xA0 SHL SUB AND CALLER ADDRESS DUP6 PUSH2 0x2883 JUMP JUMPDEST PUSH1 0x6 SLOAD PUSH2 0x13B0 SWAP1 DUP4 PUSH2 0x285E JUMP JUMPDEST PUSH1 0x6 SSTORE DUP1 SLOAD PUSH2 0x13BF SWAP1 DUP4 PUSH2 0x285E JUMP JUMPDEST DUP2 SSTORE NUMBER PUSH1 0x3 DUP3 ADD SSTORE PUSH1 0x7 SLOAD DUP3 LT PUSH2 0x13DA JUMPI PUSH2 0x13D8 PUSH2 0x20A4 JUMP JUMPDEST POP JUMPDEST PUSH1 0x40 MLOAD DUP3 SWAP1 CALLER SWAP1 PUSH32 0x59062170A285EB80E8C6B8CED60428442A51910635005233FC4CE084A475845E SWAP1 PUSH1 0x0 SWAP1 LOG3 POP POP PUSH1 0x1 PUSH1 0x0 SSTORE JUMP JUMPDEST PUSH1 0xF SLOAD PUSH1 0x1 PUSH1 0x1 PUSH1 0xA0 SHL SUB AND DUP2 JUMP JUMPDEST PUSH1 0x1 SLOAD PUSH1 0x1 PUSH1 0x1 PUSH1 0xA0 SHL SUB AND CALLER EQ PUSH2 0x1449 JUMPI PUSH1 0x40 MLOAD PUSH3 0x461BCD PUSH1 0xE5 SHL DUP2 MSTORE PUSH1 0x4 ADD PUSH2 0x58D SWAP1 PUSH2 0x3C0E JUMP JUMPDEST PUSH1 0x8 SLOAD PUSH1 0xFF AND ISZERO PUSH2 0x146C JUMPI PUSH1 0x40 MLOAD PUSH3 0x461BCD PUSH1 0xE5 SHL DUP2 MSTORE PUSH1 0x4 ADD PUSH2 0x58D SWAP1 PUSH2 0x3BE1 JUMP JUMPDEST PUSH1 0xF PUSH1 0x0 SWAP1 SLOAD SWAP1 PUSH2 0x100 EXP SWAP1 DIV PUSH1 0x1 PUSH1 0x1 PUSH1 0xA0 SHL SUB AND PUSH1 0x1 PUSH1 0x1 PUSH1 0xA0 SHL SUB AND PUSH4 0x538BA4F9 PUSH1 0x40 MLOAD DUP2 PUSH4 0xFFFFFFFF AND PUSH1 0xE0 SHL DUP2 MSTORE PUSH1 0x4 ADD PUSH1 0x20 PUSH1 0x40 MLOAD DUP1 DUP4 SUB DUP2 DUP7 DUP1 EXTCODESIZE ISZERO DUP1 ISZERO PUSH2 0x14BA JUMPI PUSH1 0x0 DUP1 REVERT JUMPDEST POP GAS STATICCALL ISZERO DUP1 ISZERO PUSH2 0x14CE JUMPI RETURNDATASIZE PUSH1 0x0 DUP1 RETURNDATACOPY RETURNDATASIZE PUSH1 0x0 REVERT JUMPDEST POP POP POP POP PUSH1 0x40 MLOAD RETURNDATASIZE PUSH1 0x1F NOT PUSH1 0x1F DUP3 ADD AND DUP3 ADD DUP1 PUSH1 0x40 MSTORE POP DUP2 ADD SWAP1 PUSH2 0x14F2 SWAP2 SWAP1 PUSH2 0x363D JUMP JUMPDEST PUSH1 0x4 SLOAD PUSH1 0x1 PUSH1 0x1 PUSH1 0xA0 SHL SUB SWAP1 DUP2 AND SWAP2 AND EQ ISZERO PUSH2 0x1520 JUMPI PUSH1 0x40 MLOAD PUSH3 0x461BCD PUSH1 0xE5 SHL DUP2 MSTORE PUSH1 0x4 ADD PUSH2 0x58D SWAP1 PUSH2 0x3C31 JUMP JUMPDEST PUSH1 0xF PUSH1 0x0 SWAP1 SLOAD SWAP1 PUSH2 0x100 EXP SWAP1 DIV PUSH1 0x1 PUSH1 0x1 PUSH1 0xA0 SHL SUB AND PUSH1 0x1 PUSH1 0x1 PUSH1 0xA0 SHL SUB AND PUSH4 0x538BA4F9 PUSH1 0x40 MLOAD DUP2 PUSH4 0xFFFFFFFF AND PUSH1 0xE0 SHL DUP2 MSTORE PUSH1 0x4 ADD PUSH1 0x20 PUSH1 0x40 MLOAD DUP1 DUP4 SUB DUP2 DUP7 DUP1 EXTCODESIZE ISZERO DUP1 ISZERO PUSH2 0x156E JUMPI PUSH1 0x0 DUP1 REVERT JUMPDEST POP GAS STATICCALL ISZERO DUP1 ISZERO PUSH2 0x1582 JUMPI RETURNDATASIZE PUSH1 0x0 DUP1 RETURNDATACOPY RETURNDATASIZE PUSH1 0x0 REVERT JUMPDEST POP POP POP POP PUSH1 0x40 MLOAD RETURNDATASIZE PUSH1 0x1F NOT PUSH1 0x1F DUP3 ADD AND DUP3 ADD DUP1 PUSH1 0x40 MSTORE POP DUP2 ADD SWAP1 PUSH2 0x15A6 SWAP2 SWAP1 PUSH2 0x363D JUMP JUMPDEST PUSH1 0x5 SLOAD PUSH1 0x1 PUSH1 0x1 PUSH1 0xA0 SHL SUB SWAP1 DUP2 AND SWAP2 AND EQ ISZERO PUSH2 0x15D4 JUMPI PUSH1 0x40 MLOAD PUSH3 0x461BCD PUSH1 0xE5 SHL DUP2 MSTORE PUSH1 0x4 ADD PUSH2 0x58D SWAP1 PUSH2 0x3A0E JUMP JUMPDEST PUSH2 0x15DD DUP2 PUSH2 0x2BE3 JUMP JUMPDEST POP PUSH1 0x8 DUP1 SLOAD PUSH1 0xFF NOT AND PUSH1 0x1 OR SWAP1 SSTORE JUMP JUMPDEST PUSH1 0x2 PUSH1 0x0 SLOAD EQ ISZERO PUSH2 0x1610 JUMPI PUSH1 0x40 MLOAD PUSH3 0x461BCD PUSH1 0xE5 SHL DUP2 MSTORE PUSH1 0x4 ADD PUSH2 0x58D SWAP1 PUSH2 0x3EB8 JUMP JUMPDEST PUSH1 0x2 PUSH1 0x0 SSTORE PUSH2 0x161E CALLER PUSH2 0x1EB5 JUMP JUMPDEST ISZERO DUP1 ISZERO PUSH2 0x162A JUMPI POP CALLER ORIGIN EQ JUMPDEST PUSH2 0x1646 JUMPI PUSH1 0x40 MLOAD PUSH3 0x461BCD PUSH1 0xE5 SHL DUP2 MSTORE PUSH1 0x4 ADD PUSH2 0x58D SWAP1 PUSH2 0x3A8D JUMP JUMPDEST PUSH1 0xE SLOAD ISZERO PUSH2 0x16F0 JUMPI PUSH1 0xD SLOAD PUSH1 0x40 DUP1 MLOAD PUSH4 0x50D25BCD PUSH1 0xE0 SHL DUP2 MSTORE SWAP1 MLOAD PUSH1 0x0 SWAP3 PUSH1 0x1 PUSH1 0x1 PUSH1 0xA0 SHL SUB AND SWAP2 PUSH4 0x50D25BCD SWAP2 PUSH1 0x4 DUP1 DUP4 ADD SWAP3 PUSH1 0x20 SWAP3 SWAP2 SWAP1 DUP3 SWAP1 SUB ADD DUP2 DUP7 DUP1 EXTCODESIZE ISZERO DUP1 ISZERO PUSH2 0x1693 JUMPI PUSH1 0x0 DUP1 REVERT JUMPDEST POP GAS STATICCALL ISZERO DUP1 ISZERO PUSH2 0x16A7 JUMPI RETURNDATASIZE PUSH1 0x0 DUP1 RETURNDATACOPY RETURNDATASIZE PUSH1 0x0 REVERT JUMPDEST POP POP POP POP PUSH1 0x40 MLOAD RETURNDATASIZE PUSH1 0x1F NOT PUSH1 0x1F DUP3 ADD AND DUP3 ADD DUP1 PUSH1 0x40 MSTORE POP DUP2 ADD SWAP1 PUSH2 0x16CB SWAP2 SWAP1 PUSH2 0x36FC JUMP JUMPDEST SWAP1 POP PUSH1 0xE SLOAD DUP2 GT PUSH2 0x16EE JUMPI PUSH1 0x40 MLOAD PUSH3 0x461BCD PUSH1 0xE5 SHL DUP2 MSTORE PUSH1 0x4 ADD PUSH2 0x58D SWAP1 PUSH2 0x3EEF JUMP JUMPDEST POP JUMPDEST PUSH1 0x8 SLOAD PUSH1 0xFF AND PUSH2 0x1712 JUMPI PUSH1 0x40 MLOAD PUSH3 0x461BCD PUSH1 0xE5 SHL DUP2 MSTORE PUSH1 0x4 ADD PUSH2 0x58D SWAP1 PUSH2 0x3DCB JUMP JUMPDEST CALLER PUSH1 0x0 SWAP1 DUP2 MSTORE PUSH1 0xB PUSH1 0x20 MSTORE PUSH1 0x40 SWAP1 KECCAK256 PUSH2 0x172C DUP2 PUSH1 0x9 PUSH2 0x1EBB JUMP JUMPDEST PUSH1 0x2 DUP2 ADD SLOAD DUP3 DUP2 LT ISZERO PUSH2 0x17AB JUMPI PUSH1 0x0 PUSH2 0x1745 DUP5 DUP4 PUSH2 0x2403 JUMP JUMPDEST PUSH1 0x1 DUP5 ADD SLOAD SWAP1 SWAP2 POP PUSH2 0x1757 SWAP1 DUP3 PUSH2 0x285E JUMP JUMPDEST PUSH1 0x1 DUP5 ADD SSTORE PUSH1 0x0 PUSH1 0x2 DUP5 ADD SSTORE PUSH1 0x40 DUP1 MLOAD DUP1 DUP3 ADD SWAP1 SWAP2 MSTORE PUSH1 0x1C DUP2 MSTORE PUSH32 0x4C6F616E2D746F2D76616C756520726174696F20627265616368656400000000 PUSH1 0x20 DUP3 ADD MSTORE PUSH2 0x17A5 SWAP1 DUP5 SWAP1 PUSH1 0x9 SWAP1 PUSH2 0x2075 JUMP JUMPDEST POP PUSH2 0x17BB JUMP JUMPDEST PUSH2 0x17B5 DUP2 DUP5 PUSH2 0x2403 JUMP JUMPDEST PUSH1 0x2 DUP4 ADD SSTORE JUMPDEST PUSH1 0x2 SLOAD PUSH1 0x3 SLOAD PUSH1 0x0 SWAP2 PUSH2 0x17DB SWAP2 PUSH1 0x1 PUSH1 0x1 PUSH1 0xA0 SHL SUB SWAP2 DUP3 AND SWAP2 AND DUP7 PUSH2 0xF69 JUMP JUMPDEST PUSH1 0x3 SLOAD PUSH1 0x40 MLOAD PUSH4 0x40C10F19 PUSH1 0xE0 SHL DUP2 MSTORE SWAP2 SWAP3 POP PUSH1 0x1 PUSH1 0x1 PUSH1 0xA0 SHL SUB AND SWAP1 PUSH4 0x40C10F19 SWAP1 PUSH2 0x180E SWAP1 CALLER SWAP1 DUP6 SWAP1 PUSH1 0x4 ADD PUSH2 0x3891 JUMP JUMPDEST PUSH1 0x0 PUSH1 0x40 MLOAD DUP1 DUP4 SUB DUP2 PUSH1 0x0 DUP8 DUP1 EXTCODESIZE ISZERO DUP1 ISZERO PUSH2 0x1828 JUMPI PUSH1 0x0 DUP1 REVERT JUMPDEST POP GAS CALL ISZERO DUP1 ISZERO PUSH2 0x183C JUMPI RETURNDATASIZE PUSH1 0x0 DUP1 RETURNDATACOPY RETURNDATASIZE PUSH1 0x0 REVERT JUMPDEST POP POP POP POP PUSH1 0x7 SLOAD DUP5 LT PUSH2 0x1853 JUMPI PUSH2 0x1851 PUSH2 0x20A4 JUMP JUMPDEST POP JUMPDEST POP POP PUSH1 0x1 PUSH1 0x0 SSTORE POP POP JUMP JUMPDEST PUSH1 0x0 DUP1 DUP4 PUSH1 0x1 PUSH1 0x1 PUSH1 0xA0 SHL SUB AND PUSH4 0x313CE567 PUSH1 0x40 MLOAD DUP2 PUSH4 0xFFFFFFFF AND PUSH1 0xE0 SHL DUP2 MSTORE PUSH1 0x4 ADD PUSH1 0x20 PUSH1 0x40 MLOAD DUP1 DUP4 SUB DUP2 DUP7 DUP1 EXTCODESIZE ISZERO DUP1 ISZERO PUSH2 0x189A JUMPI PUSH1 0x0 DUP1 REVERT JUMPDEST POP GAS STATICCALL ISZERO DUP1 ISZERO PUSH2 0x18AE JUMPI RETURNDATASIZE PUSH1 0x0 DUP1 RETURNDATACOPY RETURNDATASIZE PUSH1 0x0 REVERT JUMPDEST POP POP POP POP PUSH1 0x40 MLOAD RETURNDATASIZE PUSH1 0x1F NOT PUSH1 0x1F DUP3 ADD AND DUP3 ADD DUP1 PUSH1 0x40 MSTORE POP DUP2 ADD SWAP1 PUSH2 0x18D2 SWAP2 SWAP1 PUSH2 0x37E7 JUMP JUMPDEST PUSH1 0xFF AND SWAP1 POP PUSH2 0x18EF PUSH1 0xA DUP3 SWAP1 EXP PUSH2 0x18E9 DUP6 DUP3 PUSH2 0x2B29 JUMP JUMPDEST SWAP1 PUSH2 0x2B5B JUMP JUMPDEST SWAP2 POP POP JUMPDEST SWAP3 SWAP2 POP POP JUMP JUMPDEST PUSH1 0x8 SLOAD PUSH1 0xFF AND PUSH2 0x191B JUMPI PUSH1 0x40 MLOAD PUSH3 0x461BCD PUSH1 0xE5 SHL DUP2 MSTORE PUSH1 0x4 ADD PUSH2 0x58D SWAP1 PUSH2 0x3DCB JUMP JUMPDEST PUSH1 0x1 SLOAD PUSH1 0x1 PUSH1 0x1 PUSH1 0xA0 SHL SUB AND CALLER EQ PUSH2 0x1945 JUMPI PUSH1 0x40 MLOAD PUSH3 0x461BCD PUSH1 0xE5 SHL DUP2 MSTORE PUSH1 0x4 ADD PUSH2 0x58D SWAP1 PUSH2 0x3C0E JUMP JUMPDEST PUSH2 0x194E DUP2 PUSH2 0x2BE3 JUMP JUMPDEST POP JUMP JUMPDEST PUSH1 0x2 PUSH1 0x0 SLOAD EQ ISZERO PUSH2 0x1974 JUMPI PUSH1 0x40 MLOAD PUSH3 0x461BCD PUSH1 0xE5 SHL DUP2 MSTORE PUSH1 0x4 ADD PUSH2 0x58D SWAP1 PUSH2 0x3EB8 JUMP JUMPDEST PUSH1 0x2 PUSH1 0x0 SSTORE PUSH2 0x1982 CALLER PUSH2 0x1EB5 JUMP JUMPDEST ISZERO DUP1 ISZERO PUSH2 0x198E JUMPI POP CALLER ORIGIN EQ JUMPDEST PUSH2 0x19AA JUMPI PUSH1 0x40 MLOAD PUSH3 0x461BCD PUSH1 0xE5 SHL DUP2 MSTORE PUSH1 0x4 ADD PUSH2 0x58D SWAP1 PUSH2 0x3A8D JUMP JUMPDEST PUSH1 0xE SLOAD ISZERO PUSH2 0x1A54 JUMPI PUSH1 0xD SLOAD PUSH1 0x40 DUP1 MLOAD PUSH4 0x50D25BCD PUSH1 0xE0 SHL DUP2 MSTORE SWAP1 MLOAD PUSH1 0x0 SWAP3 PUSH1 0x1 PUSH1 0x1 PUSH1 0xA0 SHL SUB AND SWAP2 PUSH4 0x50D25BCD SWAP2 PUSH1 0x4 DUP1 DUP4 ADD SWAP3 PUSH1 0x20 SWAP3 SWAP2 SWAP1 DUP3 SWAP1 SUB ADD DUP2 DUP7 DUP1 EXTCODESIZE ISZERO DUP1 ISZERO PUSH2 0x19F7 JUMPI PUSH1 0x0 DUP1 REVERT JUMPDEST POP GAS STATICCALL ISZERO DUP1 ISZERO PUSH2 0x1A0B JUMPI RETURNDATASIZE PUSH1 0x0 DUP1 RETURNDATACOPY RETURNDATASIZE PUSH1 0x0 REVERT JUMPDEST POP POP POP POP PUSH1 0x40 MLOAD RETURNDATASIZE PUSH1 0x1F NOT PUSH1 0x1F DUP3 ADD AND DUP3 ADD DUP1 PUSH1 0x40 MSTORE POP DUP2 ADD SWAP1 PUSH2 0x1A2F SWAP2 SWAP1 PUSH2 0x36FC JUMP JUMPDEST SWAP1 POP PUSH1 0xE SLOAD DUP2 GT PUSH2 0x1A52 JUMPI PUSH1 0x40 MLOAD PUSH3 0x461BCD PUSH1 0xE5 SHL DUP2 MSTORE PUSH1 0x4 ADD PUSH2 0x58D SWAP1 PUSH2 0x3EEF JUMP JUMPDEST POP JUMPDEST PUSH1 0x8 SLOAD PUSH1 0xFF AND PUSH2 0x1A76 JUMPI PUSH1 0x40 MLOAD PUSH3 0x461BCD PUSH1 0xE5 SHL DUP2 MSTORE PUSH1 0x4 ADD PUSH2 0x58D SWAP1 PUSH2 0x3DCB JUMP JUMPDEST CALLER PUSH1 0x0 SWAP1 DUP2 MSTORE PUSH1 0xB PUSH1 0x20 MSTORE PUSH1 0x40 SWAP1 KECCAK256 PUSH2 0x1A90 DUP2 PUSH1 0x9 PUSH2 0x1EBB JUMP JUMPDEST DUP3 ISZERO PUSH2 0x1AB7 JUMPI PUSH1 0x2 SLOAD PUSH2 0x1AAE SWAP1 PUSH1 0x1 PUSH1 0x1 PUSH1 0xA0 SHL SUB AND CALLER ADDRESS DUP7 PUSH2 0x2883 JUMP JUMPDEST PUSH2 0x1AB7 DUP4 PUSH2 0x22FC JUMP JUMPDEST PUSH1 0x3 SLOAD PUSH1 0x2 SLOAD PUSH1 0x0 SWAP2 PUSH2 0x1AD7 SWAP2 PUSH1 0x1 PUSH1 0x1 PUSH1 0xA0 SHL SUB SWAP2 DUP3 AND SWAP2 AND DUP6 PUSH2 0xF69 JUMP JUMPDEST SWAP1 POP DUP1 ISZERO PUSH2 0x1BAA JUMPI PUSH1 0x3 SLOAD PUSH1 0x40 MLOAD PUSH4 0x79CC679 PUSH1 0xE4 SHL DUP2 MSTORE PUSH1 0x1 PUSH1 0x1 PUSH1 0xA0 SHL SUB SWAP1 SWAP2 AND SWAP1 PUSH4 0x79CC6790 SWAP1 PUSH2 0x1B11 SWAP1 CALLER SWAP1 DUP8 SWAP1 PUSH1 0x4 ADD PUSH2 0x3891 JUMP JUMPDEST PUSH1 0x0 PUSH1 0x40 MLOAD DUP1 DUP4 SUB DUP2 PUSH1 0x0 DUP8 DUP1 EXTCODESIZE ISZERO DUP1 ISZERO PUSH2 0x1B2B JUMPI PUSH1 0x0 DUP1 REVERT JUMPDEST POP GAS CALL ISZERO DUP1 ISZERO PUSH2 0x1B3F JUMPI RETURNDATASIZE PUSH1 0x0 DUP1 RETURNDATACOPY RETURNDATASIZE PUSH1 0x0 REVERT JUMPDEST POP POP PUSH1 0x3 SLOAD PUSH1 0x40 MLOAD PUSH4 0x288AAFCB PUSH1 0xE0 SHL DUP2 MSTORE PUSH1 0x1 PUSH1 0x1 PUSH1 0xA0 SHL SUB SWAP1 SWAP2 AND SWAP3 POP PUSH4 0x288AAFCB SWAP2 POP PUSH2 0x1B73 SWAP1 DUP7 SWAP1 PUSH1 0x4 ADD PUSH2 0x38FA JUMP JUMPDEST PUSH1 0x0 PUSH1 0x40 MLOAD DUP1 DUP4 SUB DUP2 PUSH1 0x0 DUP8 DUP1 EXTCODESIZE ISZERO DUP1 ISZERO PUSH2 0x1B8D JUMPI PUSH1 0x0 DUP1 REVERT JUMPDEST POP GAS CALL ISZERO DUP1 ISZERO PUSH2 0x1BA1 JUMPI RETURNDATASIZE PUSH1 0x0 DUP1 RETURNDATACOPY RETURNDATASIZE PUSH1 0x0 REVERT JUMPDEST POP POP POP POP PUSH2 0x1BAF JUMP JUMPDEST PUSH1 0x0 SWAP3 POP JUMPDEST PUSH1 0x0 PUSH2 0x1BBB DUP6 DUP4 PUSH2 0x285E JUMP JUMPDEST PUSH1 0x1 DUP5 ADD SLOAD SWAP1 SWAP2 POP PUSH2 0x1BCD SWAP1 DUP3 PUSH2 0x2403 JUMP JUMPDEST PUSH1 0x1 DUP5 ADD SSTORE PUSH1 0x40 MLOAD DUP5 SWAP1 DUP7 SWAP1 CALLER SWAP1 PUSH32 0xBADE234341A40CA3C71DF59B3CA02B8BB65B491A098AF970953228B4F4A5D38F SWAP1 PUSH1 0x0 SWAP1 LOG4 POP POP PUSH1 0x1 PUSH1 0x0 SSTORE POP POP POP JUMP JUMPDEST PUSH1 0x2 SLOAD PUSH1 0x0 SWAP1 PUSH1 0x1 PUSH1 0x1 PUSH1 0xA0 SHL SUB DUP5 DUP2 AND SWAP2 AND EQ PUSH2 0x1C3D JUMPI PUSH1 0x40 MLOAD PUSH3 0x461BCD PUSH1 0xE5 SHL DUP2 MSTORE PUSH1 0x4 ADD PUSH2 0x58D SWAP1 PUSH2 0x3996 JUMP JUMPDEST PUSH2 0x12AE DUP3 PUSH2 0x2629 JUMP JUMPDEST PUSH1 0x8 SLOAD PUSH1 0x0 SWAP1 DUP2 SWAP1 PUSH1 0xFF AND PUSH2 0x1C6D JUMPI PUSH1 0x40 MLOAD PUSH3 0x461BCD PUSH1 0xE5 SHL DUP2 MSTORE PUSH1 0x4 ADD PUSH2 0x58D SWAP1 PUSH2 0x3DCB JUMP JUMPDEST PUSH1 0x0 PUSH2 0x1C7A PUSH1 0xC DUP6 PUSH2 0x1E8E JUMP JUMPDEST SWAP1 POP PUSH1 0x0 DUP1 PUSH2 0x1C89 DUP4 ADDRESS PUSH2 0x2DA4 JUMP JUMPDEST SWAP2 POP SWAP2 POP PUSH2 0x1C96 DUP3 PUSH2 0x296C JUMP JUMPDEST PUSH1 0x40 MLOAD DUP2 SWAP1 DUP4 SWAP1 PUSH32 0x11D2034F4471D11A13F0F1798CEAF0C9DB2812D450A0681958CE7D4F2FB97F09 SWAP1 PUSH1 0x0 SWAP1 LOG3 SWAP1 SWAP4 POP SWAP2 POP POP SWAP2 POP SWAP2 JUMP JUMPDEST PUSH1 0x1 SLOAD PUSH1 0x1 PUSH1 0x1 PUSH1 0xA0 SHL SUB AND CALLER EQ PUSH2 0x1CF8 JUMPI PUSH1 0x40 MLOAD PUSH3 0x461BCD PUSH1 0xE5 SHL DUP2 MSTORE PUSH1 0x4 ADD PUSH2 0x58D SWAP1 PUSH2 0x3C0E JUMP JUMPDEST PUSH1 0xF PUSH1 0x0 SWAP1 SLOAD SWAP1 PUSH2 0x100 EXP SWAP1 DIV PUSH1 0x1 PUSH1 0x1 PUSH1 0xA0 SHL SUB AND PUSH1 0x1 PUSH1 0x1 PUSH1 0xA0 SHL SUB AND PUSH4 0x538BA4F9 PUSH1 0x40 MLOAD DUP2 PUSH4 0xFFFFFFFF AND PUSH1 0xE0 SHL DUP2 MSTORE PUSH1 0x4 ADD PUSH1 0x20 PUSH1 0x40 MLOAD DUP1 DUP4 SUB DUP2 DUP7 DUP1 EXTCODESIZE ISZERO DUP1 ISZERO PUSH2 0x1D46 JUMPI PUSH1 0x0 DUP1 REVERT JUMPDEST POP GAS STATICCALL ISZERO DUP1 ISZERO PUSH2 0x1D5A JUMPI RETURNDATASIZE PUSH1 0x0 DUP1 RETURNDATACOPY RETURNDATASIZE PUSH1 0x0 REVERT JUMPDEST POP POP POP POP PUSH1 0x40 MLOAD RETURNDATASIZE PUSH1 0x1F NOT PUSH1 0x1F DUP3 ADD AND DUP3 ADD DUP1 PUSH1 0x40 MSTORE POP DUP2 ADD SWAP1 PUSH2 0x1D7E SWAP2 SWAP1 PUSH2 0x363D JUMP JUMPDEST PUSH1 0x1 PUSH1 0x1 PUSH1 0xA0 SHL SUB AND DUP2 PUSH1 0x1 PUSH1 0x1 PUSH1 0xA0 SHL SUB AND EQ ISZERO PUSH2 0x1DAF JUMPI PUSH1 0x40 MLOAD PUSH3 0x461BCD PUSH1 0xE5 SHL DUP2 MSTORE PUSH1 0x4 ADD PUSH2 0x58D SWAP1 PUSH2 0x3DF5 JUMP JUMPDEST PUSH1 0x5 DUP1 SLOAD PUSH1 0x1 PUSH1 0x1 PUSH1 0xA0 SHL SUB NOT AND PUSH1 0x1 PUSH1 0x1 PUSH1 0xA0 SHL SUB DUP4 AND SWAP1 DUP2 OR SWAP1 SWAP2 SSTORE PUSH1 0x40 MLOAD PUSH32 0x5F3326E0527F309D4015DEE3BC3F36E650B53FC823BAB69C99847814ACFAFDF SWAP1 PUSH1 0x0 SWAP1 LOG2 POP JUMP JUMPDEST PUSH1 0x7 SLOAD DUP2 JUMP JUMPDEST PUSH1 0x1 PUSH1 0x1 PUSH1 0xA0 SHL SUB DUP2 AND PUSH1 0x0 SWAP1 DUP2 MSTORE PUSH1 0xB PUSH1 0x20 MSTORE PUSH1 0x40 DUP2 KECCAK256 PUSH2 0x12AE DUP2 PUSH1 0x9 PUSH2 0x2DF7 JUMP JUMPDEST PUSH1 0x2 SLOAD PUSH1 0x1 PUSH1 0x1 PUSH1 0xA0 SHL SUB AND DUP2 JUMP JUMPDEST PUSH1 0x0 DUP1 PUSH1 0x2 PUSH1 0x0 SLOAD EQ ISZERO PUSH2 0x1E57 JUMPI PUSH1 0x40 MLOAD PUSH3 0x461BCD PUSH1 0xE5 SHL DUP2 MSTORE PUSH1 0x4 ADD PUSH2 0x58D SWAP1 PUSH2 0x3EB8 JUMP JUMPDEST PUSH1 0x2 PUSH1 0x0 SSTORE PUSH1 0x8 SLOAD PUSH1 0xFF AND PUSH2 0x1E7E JUMPI PUSH1 0x40 MLOAD PUSH3 0x461BCD PUSH1 0xE5 SHL DUP2 MSTORE PUSH1 0x4 ADD PUSH2 0x58D SWAP1 PUSH2 0x3DCB JUMP JUMPDEST PUSH2 0xC2A DUP5 DUP5 PUSH2 0x256D JUMP JUMPDEST PUSH1 0x6 SLOAD DUP2 JUMP JUMPDEST PUSH1 0x0 DUP3 PUSH1 0x0 ADD DUP3 DUP2 SLOAD DUP2 LT PUSH2 0x1E9F JUMPI INVALID JUMPDEST SWAP1 PUSH1 0x0 MSTORE PUSH1 0x20 PUSH1 0x0 KECCAK256 SWAP1 PUSH1 0x2 MUL ADD SWAP1 POP SWAP3 SWAP2 POP POP JUMP JUMPDEST EXTCODESIZE ISZERO ISZERO SWAP1 JUMP JUMPDEST PUSH1 0x0 PUSH2 0x1EC7 DUP4 DUP4 PUSH2 0x2E46 JUMP JUMPDEST SWAP1 POP DUP3 PUSH1 0x1 ADD SLOAD DUP2 GT ISZERO PUSH2 0x1EF5 JUMPI PUSH1 0x1 DUP4 ADD DUP1 SLOAD PUSH1 0x0 SWAP1 SWAP2 SSTORE PUSH2 0x1EEA DUP3 DUP3 PUSH2 0x2403 JUMP JUMPDEST PUSH1 0x2 DUP6 ADD SSTORE POP PUSH2 0x1F11 JUMP JUMPDEST PUSH1 0x0 PUSH1 0x2 DUP5 ADD SSTORE PUSH1 0x1 DUP4 ADD SLOAD PUSH2 0x1F0B SWAP1 DUP3 PUSH2 0x2403 JUMP JUMPDEST PUSH1 0x1 DUP5 ADD SSTORE JUMPDEST POP PUSH1 0x1 ADD SLOAD PUSH1 0x4 SWAP1 SWAP2 ADD SSTORE JUMP JUMPDEST PUSH1 0x2 SLOAD PUSH1 0x40 MLOAD PUSH4 0x70A08231 PUSH1 0xE0 SHL DUP2 MSTORE PUSH1 0x0 SWAP2 DUP3 SWAP2 DUP3 SWAP2 PUSH2 0x1FAE SWAP2 DUP7 SWAP2 PUSH1 0x1 PUSH1 0x1 PUSH1 0xA0 SHL SUB AND SWAP1 PUSH4 0x70A08231 SWAP1 PUSH2 0x1F59 SWAP1 ADDRESS SWAP1 PUSH1 0x4 ADD PUSH2 0x3824 JUMP JUMPDEST PUSH1 0x20 PUSH1 0x40 MLOAD DUP1 DUP4 SUB DUP2 DUP7 DUP1 EXTCODESIZE ISZERO DUP1 ISZERO PUSH2 0x1F71 JUMPI PUSH1 0x0 DUP1 REVERT JUMPDEST POP GAS STATICCALL ISZERO DUP1 ISZERO PUSH2 0x1F85 JUMPI RETURNDATASIZE PUSH1 0x0 DUP1 RETURNDATACOPY RETURNDATASIZE PUSH1 0x0 REVERT JUMPDEST POP POP POP POP PUSH1 0x40 MLOAD RETURNDATASIZE PUSH1 0x1F NOT PUSH1 0x1F DUP3 ADD AND DUP3 ADD DUP1 PUSH1 0x40 MSTORE POP DUP2 ADD SWAP1 PUSH2 0x1FA9 SWAP2 SWAP1 PUSH2 0x36FC JUMP JUMPDEST PUSH2 0x2EB6 JUMP JUMPDEST SWAP1 POP PUSH1 0x1 PUSH1 0x1 PUSH1 0xA0 SHL SUB DUP6 AND ADDRESS EQ PUSH2 0x1FD7 JUMPI PUSH1 0x2 SLOAD PUSH2 0x1FD7 SWAP1 PUSH1 0x1 PUSH1 0x1 PUSH1 0xA0 SHL SUB AND DUP7 DUP4 PUSH2 0x2770 JUMP JUMPDEST DUP1 DUP1 PUSH1 0x0 PUSH2 0x1FE5 DUP8 DUP4 PUSH2 0x2403 JUMP JUMPDEST SWAP1 POP DUP1 ISZERO PUSH2 0x202A JUMPI PUSH1 0x0 PUSH2 0x1FF9 PUSH1 0xC PUSH2 0x2ECC JUMP JUMPDEST SWAP1 POP PUSH1 0x0 DUP1 PUSH2 0x2009 DUP4 DUP13 DUP7 PUSH2 0x2EF7 JUMP JUMPDEST SWAP1 SWAP3 POP SWAP1 POP PUSH2 0x2018 DUP7 DUP4 PUSH2 0x285E JUMP JUMPDEST SWAP6 POP PUSH2 0x2024 DUP6 DUP3 PUSH2 0x285E JUMP JUMPDEST SWAP5 POP POP POP POP JUMPDEST PUSH1 0x6 SLOAD PUSH2 0x2037 SWAP1 DUP4 PUSH2 0x2403 JUMP JUMPDEST PUSH1 0x6 SSTORE POP SWAP1 SWAP4 POP SWAP2 POP POP JUMPDEST SWAP3 POP SWAP3 SWAP1 POP JUMP JUMPDEST PUSH1 0x0 DUP2 DUP5 DUP5 GT ISZERO PUSH2 0x206D JUMPI PUSH1 0x40 MLOAD PUSH3 0x461BCD PUSH1 0xE5 SHL DUP2 MSTORE PUSH1 0x4 ADD PUSH2 0x58D SWAP2 SWAP1 PUSH2 0x3903 JUMP JUMPDEST POP POP POP SWAP1 SUB SWAP1 JUMP JUMPDEST PUSH2 0x207F DUP4 DUP4 PUSH2 0x2F2D JUMP JUMPDEST DUP2 SWAP1 PUSH2 0x209E JUMPI PUSH1 0x40 MLOAD PUSH3 0x461BCD PUSH1 0xE5 SHL DUP2 MSTORE PUSH1 0x4 ADD PUSH2 0x58D SWAP2 SWAP1 PUSH2 0x3903 JUMP JUMPDEST POP POP POP POP JUMP JUMPDEST PUSH1 0x0 DUP1 PUSH2 0x20B1 PUSH1 0xC PUSH2 0x2ECC JUMP JUMPDEST PUSH1 0x2 SLOAD PUSH1 0x40 MLOAD PUSH4 0x70A08231 PUSH1 0xE0 SHL DUP2 MSTORE SWAP2 SWAP3 POP PUSH1 0x0 SWAP2 PUSH1 0x1 PUSH1 0x1 PUSH1 0xA0 SHL SUB SWAP1 SWAP2 AND SWAP1 PUSH4 0x70A08231 SWAP1 PUSH2 0x20E7 SWAP1 ADDRESS SWAP1 PUSH1 0x4 ADD PUSH2 0x3824 JUMP JUMPDEST PUSH1 0x20 PUSH1 0x40 MLOAD DUP1 DUP4 SUB DUP2 DUP7 DUP1 EXTCODESIZE ISZERO DUP1 ISZERO PUSH2 0x20FF JUMPI PUSH1 0x0 DUP1 REVERT JUMPDEST POP GAS STATICCALL ISZERO DUP1 ISZERO PUSH2 0x2113 JUMPI RETURNDATASIZE PUSH1 0x0 DUP1 RETURNDATACOPY RETURNDATASIZE PUSH1 0x0 REVERT JUMPDEST POP POP POP POP PUSH1 0x40 MLOAD RETURNDATASIZE PUSH1 0x1F NOT PUSH1 0x1F DUP3 ADD AND DUP3 ADD DUP1 PUSH1 0x40 MSTORE POP DUP2 ADD SWAP1 PUSH2 0x2137 SWAP2 SWAP1 PUSH2 0x36FC JUMP JUMPDEST PUSH1 0xF SLOAD PUSH1 0x40 MLOAD PUSH4 0x60CCEF19 PUSH1 0xE1 SHL DUP2 MSTORE SWAP2 SWAP3 POP PUSH1 0x0 SWAP2 PUSH1 0x1 PUSH1 0x1 PUSH1 0xA0 SHL SUB SWAP1 SWAP2 AND SWAP1 PUSH4 0xC199DE32 SWAP1 PUSH2 0x2186 SWAP1 PUSH22 0x46525945525F5641554C545F50455243454E54414745 PUSH1 0x50 SHL SWAP1 PUSH1 0x4 ADD PUSH2 0x38FA JUMP JUMPDEST PUSH1 0x20 PUSH1 0x40 MLOAD DUP1 DUP4 SUB DUP2 DUP7 DUP1 EXTCODESIZE ISZERO DUP1 ISZERO PUSH2 0x219E JUMPI PUSH1 0x0 DUP1 REVERT JUMPDEST POP GAS STATICCALL ISZERO DUP1 ISZERO PUSH2 0x21B2 JUMPI RETURNDATASIZE PUSH1 0x0 DUP1 RETURNDATACOPY RETURNDATASIZE PUSH1 0x0 REVERT JUMPDEST POP POP POP POP PUSH1 0x40 MLOAD RETURNDATASIZE PUSH1 0x1F NOT PUSH1 0x1F DUP3 ADD AND DUP3 ADD DUP1 PUSH1 0x40 MSTORE POP DUP2 ADD SWAP1 PUSH2 0x21D6 SWAP2 SWAP1 PUSH2 0x36FC JUMP JUMPDEST SWAP1 POP PUSH1 0x0 PUSH2 0x2284 PUSH1 0xF PUSH1 0x0 SWAP1 SLOAD SWAP1 PUSH2 0x100 EXP SWAP1 DIV PUSH1 0x1 PUSH1 0x1 PUSH1 0xA0 SHL SUB AND PUSH1 0x1 PUSH1 0x1 PUSH1 0xA0 SHL SUB AND PUSH4 0x9E6C2959 PUSH1 0x40 MLOAD DUP2 PUSH4 0xFFFFFFFF AND PUSH1 0xE0 SHL DUP2 MSTORE PUSH1 0x4 ADD PUSH1 0x20 PUSH1 0x40 MLOAD DUP1 DUP4 SUB DUP2 DUP7 DUP1 EXTCODESIZE ISZERO DUP1 ISZERO PUSH2 0x222B JUMPI PUSH1 0x0 DUP1 REVERT JUMPDEST POP GAS STATICCALL ISZERO DUP1 ISZERO PUSH2 0x223F JUMPI RETURNDATASIZE PUSH1 0x0 DUP1 RETURNDATACOPY RETURNDATASIZE PUSH1 0x0 REVERT JUMPDEST POP POP POP POP PUSH1 0x40 MLOAD RETURNDATASIZE PUSH1 0x1F NOT PUSH1 0x1F DUP3 ADD AND DUP3 ADD DUP1 PUSH1 0x40 MSTORE POP DUP2 ADD SWAP1 PUSH2 0x2263 SWAP2 SWAP1 PUSH2 0x36FC JUMP JUMPDEST PUSH2 0x227E DUP5 PUSH2 0x18E9 DUP9 PUSH1 0x1 ADD SLOAD DUP9 PUSH2 0x285E SWAP1 SWAP2 SWAP1 PUSH4 0xFFFFFFFF AND JUMP JUMPDEST SWAP1 PUSH2 0x2B29 JUMP JUMPDEST SWAP1 POP DUP4 PUSH1 0x1 ADD SLOAD DUP2 GT ISZERO PUSH2 0x22EF JUMPI PUSH1 0x0 PUSH2 0x22B5 PUSH2 0x22AE DUP7 PUSH1 0x1 ADD SLOAD DUP5 PUSH2 0x2403 SWAP1 SWAP2 SWAP1 PUSH4 0xFFFFFFFF AND JUMP JUMPDEST DUP7 SWAP1 PUSH2 0x2F55 JUMP JUMPDEST PUSH1 0x40 MLOAD SWAP1 SWAP2 POP DUP2 SWAP1 PUSH32 0x860F4701FAA0ECDEECD9E9EAAE11A8612BBD01C663081F7C0C4E4873DF653D69 SWAP1 PUSH1 0x0 SWAP1 LOG2 SWAP5 POP PUSH2 0xBBD SWAP4 POP POP POP POP JUMP JUMPDEST PUSH1 0x0 SWAP5 POP POP POP POP POP PUSH2 0xBBD JUMP JUMPDEST PUSH1 0x4 SLOAD PUSH1 0x2 SLOAD PUSH2 0x2319 SWAP2 PUSH1 0x1 PUSH1 0x1 PUSH1 0xA0 SHL SUB SWAP2 DUP3 AND SWAP2 AND DUP4 PUSH2 0x2FFC JUMP JUMPDEST PUSH1 0x4 DUP1 SLOAD PUSH1 0x40 MLOAD PUSH4 0x1F726421 PUSH1 0xE3 SHL DUP2 MSTORE PUSH1 0x1 PUSH1 0x1 PUSH1 0xA0 SHL SUB SWAP1 SWAP2 AND SWAP2 PUSH4 0xFB932108 SWAP2 PUSH2 0x234A SWAP2 ADDRESS SWAP2 DUP7 SWAP2 ADD PUSH2 0x3891 JUMP JUMPDEST PUSH1 0x0 PUSH1 0x40 MLOAD DUP1 DUP4 SUB DUP2 PUSH1 0x0 DUP8 DUP1 EXTCODESIZE ISZERO DUP1 ISZERO PUSH2 0x2364 JUMPI PUSH1 0x0 DUP1 REVERT JUMPDEST POP GAS CALL ISZERO DUP1 ISZERO PUSH2 0x2378 JUMPI RETURNDATASIZE PUSH1 0x0 DUP1 RETURNDATACOPY RETURNDATASIZE PUSH1 0x0 REVERT JUMPDEST POP POP PUSH1 0x2 SLOAD PUSH1 0x3 SLOAD PUSH1 0x0 SWAP4 POP PUSH2 0x239C SWAP3 POP PUSH1 0x1 PUSH1 0x1 PUSH1 0xA0 SHL SUB SWAP2 DUP3 AND SWAP2 AND DUP5 PUSH2 0xF69 JUMP JUMPDEST PUSH1 0x3 SLOAD PUSH1 0x40 MLOAD PUSH4 0x288AAFCB PUSH1 0xE0 SHL DUP2 MSTORE SWAP2 SWAP3 POP PUSH1 0x1 PUSH1 0x1 PUSH1 0xA0 SHL SUB AND SWAP1 PUSH4 0x288AAFCB SWAP1 PUSH2 0x23CD SWAP1 DUP5 SWAP1 PUSH1 0x4 ADD PUSH2 0x38FA JUMP JUMPDEST PUSH1 0x0 PUSH1 0x40 MLOAD DUP1 DUP4 SUB DUP2 PUSH1 0x0 DUP8 DUP1 EXTCODESIZE ISZERO DUP1 ISZERO PUSH2 0x23E7 JUMPI PUSH1 0x0 DUP1 REVERT JUMPDEST POP GAS CALL ISZERO DUP1 ISZERO PUSH2 0x23FB JUMPI RETURNDATASIZE PUSH1 0x0 DUP1 RETURNDATACOPY RETURNDATASIZE PUSH1 0x0 REVERT JUMPDEST POP POP POP POP POP POP JUMP JUMPDEST PUSH1 0x0 DUP3 DUP3 GT ISZERO PUSH2 0x2425 JUMPI PUSH1 0x40 MLOAD PUSH3 0x461BCD PUSH1 0xE5 SHL DUP2 MSTORE PUSH1 0x4 ADD PUSH2 0x58D SWAP1 PUSH2 0x3B3C JUMP JUMPDEST POP SWAP1 SUB SWAP1 JUMP JUMPDEST PUSH2 0x2433 PUSH2 0x360E JUMP JUMPDEST PUSH1 0x40 MLOAD DUP1 PUSH1 0x20 ADD PUSH1 0x40 MSTORE DUP1 PUSH2 0x2565 DUP5 PUSH1 0x0 ADD PUSH1 0x0 SWAP1 SLOAD SWAP1 PUSH2 0x100 EXP SWAP1 DIV PUSH1 0x1 PUSH1 0x1 PUSH1 0xA0 SHL SUB AND PUSH1 0x1 PUSH1 0x1 PUSH1 0xA0 SHL SUB AND PUSH4 0x9E6C2959 PUSH1 0x40 MLOAD DUP2 PUSH4 0xFFFFFFFF AND PUSH1 0xE0 SHL DUP2 MSTORE PUSH1 0x4 ADD PUSH1 0x20 PUSH1 0x40 MLOAD DUP1 DUP4 SUB DUP2 DUP7 DUP1 EXTCODESIZE ISZERO DUP1 ISZERO PUSH2 0x2491 JUMPI PUSH1 0x0 DUP1 REVERT JUMPDEST POP GAS STATICCALL ISZERO DUP1 ISZERO PUSH2 0x24A5 JUMPI RETURNDATASIZE PUSH1 0x0 DUP1 RETURNDATACOPY RETURNDATASIZE PUSH1 0x0 REVERT JUMPDEST POP POP POP POP PUSH1 0x40 MLOAD RETURNDATASIZE PUSH1 0x1F NOT PUSH1 0x1F DUP3 ADD AND DUP3 ADD DUP1 PUSH1 0x40 MSTORE POP DUP2 ADD SWAP1 PUSH2 0x24C9 SWAP2 SWAP1 PUSH2 0x36FC JUMP JUMPDEST DUP6 SLOAD PUSH1 0x40 MLOAD PUSH4 0x60CCEF19 PUSH1 0xE1 SHL DUP2 MSTORE PUSH2 0x227E SWAP2 PUSH1 0x1 PUSH1 0x1 PUSH1 0xA0 SHL SUB AND SWAP1 PUSH4 0xC199DE32 SWAP1 PUSH2 0x2506 SWAP1 PUSH9 0x23292CA2A92FA62A2B PUSH1 0xB9 SHL SWAP1 PUSH1 0x4 ADD PUSH2 0x38FA JUMP JUMPDEST PUSH1 0x20 PUSH1 0x40 MLOAD DUP1 DUP4 SUB DUP2 DUP7 DUP1 EXTCODESIZE ISZERO DUP1 ISZERO PUSH2 0x251E JUMPI PUSH1 0x0 DUP1 REVERT JUMPDEST POP GAS STATICCALL ISZERO DUP1 ISZERO PUSH2 0x2532 JUMPI RETURNDATASIZE PUSH1 0x0 DUP1 RETURNDATACOPY RETURNDATASIZE PUSH1 0x0 REVERT JUMPDEST POP POP POP POP PUSH1 0x40 MLOAD RETURNDATASIZE PUSH1 0x1F NOT PUSH1 0x1F DUP3 ADD AND DUP3 ADD DUP1 PUSH1 0x40 MSTORE POP DUP2 ADD SWAP1 PUSH2 0x2556 SWAP2 SWAP1 PUSH2 0x36FC JUMP JUMPDEST PUSH8 0x3782DACE9D900000 SWAP1 PUSH2 0x2B5B JUMP JUMPDEST SWAP1 MSTORE SWAP3 SWAP2 POP POP JUMP JUMPDEST PUSH1 0x8 SLOAD PUSH1 0x0 SWAP1 DUP2 SWAP1 PUSH2 0x100 SWAP1 DIV PUSH1 0xFF AND DUP1 PUSH2 0x2592 JUMPI POP PUSH1 0x1 SLOAD PUSH1 0x1 PUSH1 0x1 PUSH1 0xA0 SHL SUB AND CALLER EQ JUMPDEST DUP1 PUSH2 0x25A6 JUMPI POP PUSH2 0x25A2 PUSH1 0xC PUSH2 0x30E3 JUMP JUMPDEST DUP5 EQ ISZERO JUMPDEST PUSH2 0x25C2 JUMPI PUSH1 0x40 MLOAD PUSH3 0x461BCD PUSH1 0xE5 SHL DUP2 MSTORE PUSH1 0x4 ADD PUSH2 0x58D SWAP1 PUSH2 0x3C99 JUMP JUMPDEST PUSH1 0x0 PUSH2 0x25CF PUSH1 0xC DUP7 PUSH2 0x1E8E JUMP JUMPDEST SWAP1 POP PUSH1 0x0 DUP1 PUSH2 0x25DF DUP4 ADDRESS DUP9 PUSH2 0x2EF7 JUMP JUMPDEST SWAP2 POP SWAP2 POP DUP7 PUSH32 0xCCBD929F935422B28EE209A0DB0556280B0A3D9BC4DA58F1D3F0AB4F8A499647 DUP4 DUP4 PUSH1 0x40 MLOAD PUSH2 0x2615 SWAP3 SWAP2 SWAP1 PUSH2 0x3F4E JUMP JUMPDEST PUSH1 0x40 MLOAD DUP1 SWAP2 SUB SWAP1 LOG2 SWAP1 SWAP7 SWAP1 SWAP6 POP SWAP4 POP POP POP POP JUMP JUMPDEST PUSH1 0xF SLOAD PUSH1 0x40 MLOAD PUSH4 0x60CCEF19 PUSH1 0xE1 SHL DUP2 MSTORE PUSH1 0x0 SWAP2 DUP3 SWAP2 PUSH1 0x1 PUSH1 0x1 PUSH1 0xA0 SHL SUB SWAP1 SWAP2 AND SWAP1 PUSH4 0xC199DE32 SWAP1 PUSH2 0x267E SWAP1 PUSH32 0x46525945525F464C4153485F4645455F50524F504F5254494F4E000000000000 SWAP1 PUSH1 0x4 ADD PUSH2 0x38FA JUMP JUMPDEST PUSH1 0x20 PUSH1 0x40 MLOAD DUP1 DUP4 SUB DUP2 DUP7 DUP1 EXTCODESIZE ISZERO DUP1 ISZERO PUSH2 0x2696 JUMPI PUSH1 0x0 DUP1 REVERT JUMPDEST POP GAS STATICCALL ISZERO DUP1 ISZERO PUSH2 0x26AA JUMPI RETURNDATASIZE PUSH1 0x0 DUP1 RETURNDATACOPY RETURNDATASIZE PUSH1 0x0 REVERT JUMPDEST POP POP POP POP PUSH1 0x40 MLOAD RETURNDATASIZE PUSH1 0x1F NOT PUSH1 0x1F DUP3 ADD AND DUP3 ADD DUP1 PUSH1 0x40 MSTORE POP DUP2 ADD SWAP1 PUSH2 0x26CE SWAP2 SWAP1 PUSH2 0x36FC JUMP JUMPDEST SWAP1 POP PUSH1 0x0 PUSH1 0xF PUSH1 0x0 SWAP1 SLOAD SWAP1 PUSH2 0x100 EXP SWAP1 DIV PUSH1 0x1 PUSH1 0x1 PUSH1 0xA0 SHL SUB AND PUSH1 0x1 PUSH1 0x1 PUSH1 0xA0 SHL SUB AND PUSH4 0x9E6C2959 PUSH1 0x40 MLOAD DUP2 PUSH4 0xFFFFFFFF AND PUSH1 0xE0 SHL DUP2 MSTORE PUSH1 0x4 ADD PUSH1 0x20 PUSH1 0x40 MLOAD DUP1 DUP4 SUB DUP2 DUP7 DUP1 EXTCODESIZE ISZERO DUP1 ISZERO PUSH2 0x2720 JUMPI PUSH1 0x0 DUP1 REVERT JUMPDEST POP GAS STATICCALL ISZERO DUP1 ISZERO PUSH2 0x2734 JUMPI RETURNDATASIZE PUSH1 0x0 DUP1 RETURNDATACOPY RETURNDATASIZE PUSH1 0x0 REVERT JUMPDEST POP POP POP POP PUSH1 0x40 MLOAD RETURNDATASIZE PUSH1 0x1F NOT PUSH1 0x1F DUP3 ADD AND DUP3 ADD DUP1 PUSH1 0x40 MSTORE POP DUP2 ADD SWAP1 PUSH2 0x2758 SWAP2 SWAP1 PUSH2 0x36FC JUMP JUMPDEST SWAP1 POP PUSH2 0x2768 DUP2 PUSH2 0x227E DUP7 DUP6 PUSH2 0x2B5B JUMP JUMPDEST SWAP5 SWAP4 POP POP POP POP JUMP JUMPDEST PUSH1 0x0 PUSH1 0x60 DUP5 PUSH1 0x1 PUSH1 0x1 PUSH1 0xA0 SHL SUB AND PUSH4 0xA9059CBB DUP6 DUP6 PUSH1 0x40 MLOAD PUSH1 0x24 ADD PUSH2 0x2796 SWAP3 SWAP2 SWAP1 PUSH2 0x3891 JUMP JUMPDEST PUSH1 0x40 MLOAD PUSH1 0x20 DUP2 DUP4 SUB SUB DUP2 MSTORE SWAP1 PUSH1 0x40 MSTORE SWAP1 PUSH1 0xE0 SHL PUSH1 0x20 DUP3 ADD DUP1 MLOAD PUSH1 0x1 PUSH1 0x1 PUSH1 0xE0 SHL SUB DUP4 DUP2 DUP4 AND OR DUP4 MSTORE POP POP POP POP PUSH1 0x40 MLOAD PUSH2 0x27CF SWAP2 SWAP1 PUSH2 0x3808 JUMP JUMPDEST PUSH1 0x0 PUSH1 0x40 MLOAD DUP1 DUP4 SUB DUP2 PUSH1 0x0 DUP7 GAS CALL SWAP2 POP POP RETURNDATASIZE DUP1 PUSH1 0x0 DUP2 EQ PUSH2 0x280C JUMPI PUSH1 0x40 MLOAD SWAP2 POP PUSH1 0x1F NOT PUSH1 0x3F RETURNDATASIZE ADD AND DUP3 ADD PUSH1 0x40 MSTORE RETURNDATASIZE DUP3 MSTORE RETURNDATASIZE PUSH1 0x0 PUSH1 0x20 DUP5 ADD RETURNDATACOPY PUSH2 0x2811 JUMP JUMPDEST PUSH1 0x60 SWAP2 POP JUMPDEST POP SWAP2 POP SWAP2 POP DUP2 DUP1 ISZERO PUSH2 0x283B JUMPI POP DUP1 MLOAD ISZERO DUP1 PUSH2 0x283B JUMPI POP DUP1 DUP1 PUSH1 0x20 ADD SWAP1 MLOAD DUP2 ADD SWAP1 PUSH2 0x283B SWAP2 SWAP1 PUSH2 0x36E0 JUMP JUMPDEST PUSH2 0x2857 JUMPI PUSH1 0x40 MLOAD PUSH3 0x461BCD PUSH1 0xE5 SHL DUP2 MSTORE PUSH1 0x4 ADD PUSH2 0x58D SWAP1 PUSH2 0x3936 JUMP JUMPDEST POP POP POP POP POP JUMP JUMPDEST PUSH1 0x0 DUP3 DUP3 ADD DUP4 DUP2 LT ISZERO PUSH2 0x12AE JUMPI PUSH1 0x40 MLOAD PUSH3 0x461BCD PUSH1 0xE5 SHL DUP2 MSTORE PUSH1 0x4 ADD PUSH2 0x58D SWAP1 PUSH2 0x39D7 JUMP JUMPDEST PUSH1 0x0 PUSH1 0x60 DUP6 PUSH1 0x1 PUSH1 0x1 PUSH1 0xA0 SHL SUB AND PUSH4 0x23B872DD DUP7 DUP7 DUP7 PUSH1 0x40 MLOAD PUSH1 0x24 ADD PUSH2 0x28AB SWAP4 SWAP3 SWAP2 SWAP1 PUSH2 0x38AA JUMP JUMPDEST PUSH1 0x40 MLOAD PUSH1 0x20 DUP2 DUP4 SUB SUB DUP2 MSTORE SWAP1 PUSH1 0x40 MSTORE SWAP1 PUSH1 0xE0 SHL PUSH1 0x20 DUP3 ADD DUP1 MLOAD PUSH1 0x1 PUSH1 0x1 PUSH1 0xE0 SHL SUB DUP4 DUP2 DUP4 AND OR DUP4 MSTORE POP POP POP POP PUSH1 0x40 MLOAD PUSH2 0x28E4 SWAP2 SWAP1 PUSH2 0x3808 JUMP JUMPDEST PUSH1 0x0 PUSH1 0x40 MLOAD DUP1 DUP4 SUB DUP2 PUSH1 0x0 DUP7 GAS CALL SWAP2 POP POP RETURNDATASIZE DUP1 PUSH1 0x0 DUP2 EQ PUSH2 0x2921 JUMPI PUSH1 0x40 MLOAD SWAP2 POP PUSH1 0x1F NOT PUSH1 0x3F RETURNDATASIZE ADD AND DUP3 ADD PUSH1 0x40 MSTORE RETURNDATASIZE DUP3 MSTORE RETURNDATASIZE PUSH1 0x0 PUSH1 0x20 DUP5 ADD RETURNDATACOPY PUSH2 0x2926 JUMP JUMPDEST PUSH1 0x60 SWAP2 POP JUMPDEST POP SWAP2 POP SWAP2 POP DUP2 DUP1 ISZERO PUSH2 0x2950 JUMPI POP DUP1 MLOAD ISZERO DUP1 PUSH2 0x2950 JUMPI POP DUP1 DUP1 PUSH1 0x20 ADD SWAP1 MLOAD DUP2 ADD SWAP1 PUSH2 0x2950 SWAP2 SWAP1 PUSH2 0x36E0 JUMP JUMPDEST PUSH2 0x23FB JUMPI PUSH1 0x40 MLOAD PUSH3 0x461BCD PUSH1 0xE5 SHL DUP2 MSTORE PUSH1 0x4 ADD PUSH2 0x58D SWAP1 PUSH2 0x3E74 JUMP JUMPDEST DUP1 ISZERO PUSH2 0x194E JUMPI PUSH1 0xF SLOAD PUSH1 0x40 MLOAD PUSH4 0x60CCEF19 PUSH1 0xE1 SHL DUP2 MSTORE PUSH1 0x0 SWAP2 PUSH1 0x1 PUSH1 0x1 PUSH1 0xA0 SHL SUB AND SWAP1 PUSH4 0xC199DE32 SWAP1 PUSH2 0x29B7 SWAP1 PUSH17 0x46525945525F484152564553545F464545 PUSH1 0x78 SHL SWAP1 PUSH1 0x4 ADD PUSH2 0x38FA JUMP JUMPDEST PUSH1 0x20 PUSH1 0x40 MLOAD DUP1 DUP4 SUB DUP2 DUP7 DUP1 EXTCODESIZE ISZERO DUP1 ISZERO PUSH2 0x29CF JUMPI PUSH1 0x0 DUP1 REVERT JUMPDEST POP GAS STATICCALL ISZERO DUP1 ISZERO PUSH2 0x29E3 JUMPI RETURNDATASIZE PUSH1 0x0 DUP1 RETURNDATACOPY RETURNDATASIZE PUSH1 0x0 REVERT JUMPDEST POP POP POP POP PUSH1 0x40 MLOAD RETURNDATASIZE PUSH1 0x1F NOT PUSH1 0x1F DUP3 ADD AND DUP3 ADD DUP1 PUSH1 0x40 MSTORE POP DUP2 ADD SWAP1 PUSH2 0x2A07 SWAP2 SWAP1 PUSH2 0x36FC JUMP JUMPDEST SWAP1 POP PUSH1 0x0 PUSH2 0x2A9E PUSH1 0xF PUSH1 0x0 SWAP1 SLOAD SWAP1 PUSH2 0x100 EXP SWAP1 DIV PUSH1 0x1 PUSH1 0x1 PUSH1 0xA0 SHL SUB AND PUSH1 0x1 PUSH1 0x1 PUSH1 0xA0 SHL SUB AND PUSH4 0x9E6C2959 PUSH1 0x40 MLOAD DUP2 PUSH4 0xFFFFFFFF AND PUSH1 0xE0 SHL DUP2 MSTORE PUSH1 0x4 ADD PUSH1 0x20 PUSH1 0x40 MLOAD DUP1 DUP4 SUB DUP2 DUP7 DUP1 EXTCODESIZE ISZERO DUP1 ISZERO PUSH2 0x2A5C JUMPI PUSH1 0x0 DUP1 REVERT JUMPDEST POP GAS STATICCALL ISZERO DUP1 ISZERO PUSH2 0x2A70 JUMPI RETURNDATASIZE PUSH1 0x0 DUP1 RETURNDATACOPY RETURNDATASIZE PUSH1 0x0 REVERT JUMPDEST POP POP POP POP PUSH1 0x40 MLOAD RETURNDATASIZE PUSH1 0x1F NOT PUSH1 0x1F DUP3 ADD AND DUP3 ADD DUP1 PUSH1 0x40 MSTORE POP DUP2 ADD SWAP1 PUSH2 0x2A94 SWAP2 SWAP1 PUSH2 0x36FC JUMP JUMPDEST PUSH2 0x227E DUP6 DUP6 PUSH2 0x2B5B JUMP JUMPDEST SWAP1 POP PUSH1 0x0 PUSH2 0x2AAC DUP5 DUP4 PUSH2 0x2403 JUMP JUMPDEST PUSH1 0x6 SLOAD SWAP1 SWAP2 POP ISZERO PUSH2 0x2AF7 JUMPI PUSH2 0x2ABF PUSH2 0x360E JUMP JUMPDEST PUSH2 0x2AD4 PUSH1 0x6 SLOAD PUSH2 0x2ACE DUP5 PUSH2 0x3130 JUMP JUMPDEST SWAP1 PUSH2 0x3172 JUMP JUMPDEST PUSH1 0x40 DUP1 MLOAD PUSH1 0x20 DUP2 ADD SWAP1 SWAP2 MSTORE PUSH1 0xA SLOAD DUP2 MSTORE SWAP1 SWAP2 POP PUSH2 0x2AF1 SWAP1 DUP3 PUSH2 0x31A6 JUMP JUMPDEST MLOAD PUSH1 0xA SSTORE POP JUMPDEST DUP2 ISZERO PUSH2 0x2B1A JUMPI PUSH1 0x5 SLOAD PUSH1 0x2 SLOAD PUSH2 0x2B1A SWAP2 PUSH1 0x1 PUSH1 0x1 PUSH1 0xA0 SHL SUB SWAP2 DUP3 AND SWAP2 AND DUP5 PUSH2 0x2770 JUMP JUMPDEST DUP1 ISZERO PUSH2 0x209E JUMPI PUSH2 0x209E DUP2 PUSH2 0x22FC JUMP JUMPDEST PUSH1 0x0 DUP1 DUP3 GT PUSH2 0x2B4A JUMPI PUSH1 0x40 MLOAD PUSH3 0x461BCD PUSH1 0xE5 SHL DUP2 MSTORE PUSH1 0x4 ADD PUSH2 0x58D SWAP1 PUSH2 0x3BAA JUMP JUMPDEST DUP2 DUP4 DUP2 PUSH2 0x2B53 JUMPI INVALID JUMPDEST DIV SWAP4 SWAP3 POP POP POP JUMP JUMPDEST PUSH1 0x0 DUP3 PUSH2 0x2B6A JUMPI POP PUSH1 0x0 PUSH2 0x18F3 JUMP JUMPDEST DUP3 DUP3 MUL DUP3 DUP5 DUP3 DUP2 PUSH2 0x2B77 JUMPI INVALID JUMPDEST DIV EQ PUSH2 0x12AE JUMPI PUSH1 0x40 MLOAD PUSH3 0x461BCD PUSH1 0xE5 SHL DUP2 MSTORE PUSH1 0x4 ADD PUSH2 0x58D SWAP1 PUSH2 0x3D2A JUMP JUMPDEST SLOAD SWAP1 JUMP JUMPDEST PUSH1 0x0 DUP1 PUSH2 0x2BA6 DUP5 DUP5 PUSH2 0x2E46 JUMP JUMPDEST SWAP1 POP DUP1 PUSH2 0x2BB9 JUMPI POP POP PUSH1 0x1 DUP3 ADD SLOAD PUSH2 0x18F3 JUMP JUMPDEST PUSH1 0x1 DUP5 ADD SLOAD DUP1 DUP3 LT PUSH2 0x2BD0 JUMPI PUSH1 0x0 SWAP3 POP POP POP PUSH2 0x18F3 JUMP JUMPDEST PUSH2 0x2BDA DUP2 DUP4 PUSH2 0x2403 JUMP JUMPDEST SWAP6 SWAP5 POP POP POP POP POP JUMP JUMPDEST PUSH1 0xF PUSH1 0x0 SWAP1 SLOAD SWAP1 PUSH2 0x100 EXP SWAP1 DIV PUSH1 0x1 PUSH1 0x1 PUSH1 0xA0 SHL SUB AND PUSH1 0x1 PUSH1 0x1 PUSH1 0xA0 SHL SUB AND PUSH4 0x538BA4F9 PUSH1 0x40 MLOAD DUP2 PUSH4 0xFFFFFFFF AND PUSH1 0xE0 SHL DUP2 MSTORE PUSH1 0x4 ADD PUSH1 0x20 PUSH1 0x40 MLOAD DUP1 DUP4 SUB DUP2 DUP7 DUP1 EXTCODESIZE ISZERO DUP1 ISZERO PUSH2 0x2C31 JUMPI PUSH1 0x0 DUP1 REVERT JUMPDEST POP GAS STATICCALL ISZERO DUP1 ISZERO PUSH2 0x2C45 JUMPI RETURNDATASIZE PUSH1 0x0 DUP1 RETURNDATACOPY RETURNDATASIZE PUSH1 0x0 REVERT JUMPDEST POP POP POP POP PUSH1 0x40 MLOAD RETURNDATASIZE PUSH1 0x1F NOT PUSH1 0x1F DUP3 ADD AND DUP3 ADD DUP1 PUSH1 0x40 MSTORE POP DUP2 ADD SWAP1 PUSH2 0x2C69 SWAP2 SWAP1 PUSH2 0x363D JUMP JUMPDEST PUSH1 0x1 PUSH1 0x1 PUSH1 0xA0 SHL SUB AND DUP2 PUSH1 0x1 PUSH1 0x1 PUSH1 0xA0 SHL SUB AND EQ ISZERO PUSH2 0x2C9A JUMPI PUSH1 0x40 MLOAD PUSH3 0x461BCD PUSH1 0xE5 SHL DUP2 MSTORE PUSH1 0x4 ADD PUSH2 0x58D SWAP1 PUSH2 0x3AF9 JUMP JUMPDEST PUSH1 0x2 SLOAD PUSH1 0x40 DUP1 MLOAD PUSH4 0x7E062A35 PUSH1 0xE1 SHL DUP2 MSTORE SWAP1 MLOAD DUP4 SWAP3 PUSH1 0x1 PUSH1 0x1 PUSH1 0xA0 SHL SUB SWAP1 DUP2 AND SWAP3 SWAP1 DUP5 AND SWAP2 PUSH4 0xFC0C546A SWAP2 PUSH1 0x4 DUP1 DUP3 ADD SWAP3 PUSH1 0x20 SWAP3 SWAP1 SWAP2 SWAP1 DUP3 SWAP1 SUB ADD DUP2 DUP7 DUP1 EXTCODESIZE ISZERO DUP1 ISZERO PUSH2 0x2CE5 JUMPI PUSH1 0x0 DUP1 REVERT JUMPDEST POP GAS STATICCALL ISZERO DUP1 ISZERO PUSH2 0x2CF9 JUMPI RETURNDATASIZE PUSH1 0x0 DUP1 RETURNDATACOPY RETURNDATASIZE PUSH1 0x0 REVERT JUMPDEST POP POP POP POP PUSH1 0x40 MLOAD RETURNDATASIZE PUSH1 0x1F NOT PUSH1 0x1F DUP3 ADD AND DUP3 ADD DUP1 PUSH1 0x40 MSTORE POP DUP2 ADD SWAP1 PUSH2 0x2D1D SWAP2 SWAP1 PUSH2 0x363D JUMP JUMPDEST PUSH1 0x1 PUSH1 0x1 PUSH1 0xA0 SHL SUB AND EQ PUSH2 0x2D43 JUMPI PUSH1 0x40 MLOAD PUSH3 0x461BCD PUSH1 0xE5 SHL DUP2 MSTORE PUSH1 0x4 ADD PUSH2 0x58D SWAP1 PUSH2 0x3DA2 JUMP JUMPDEST PUSH1 0x40 DUP1 MLOAD DUP1 DUP3 ADD SWAP1 SWAP2 MSTORE PUSH1 0x1 PUSH1 0x1 PUSH1 0xA0 SHL SUB DUP3 AND DUP2 MSTORE PUSH1 0x0 PUSH1 0x20 DUP3 ADD MSTORE PUSH2 0x2D6C SWAP1 PUSH1 0xC SWAP1 PUSH2 0x31D6 JUMP JUMPDEST PUSH1 0x40 MLOAD PUSH1 0x1 PUSH1 0x1 PUSH1 0xA0 SHL SUB DUP4 AND SWAP1 PUSH32 0x821015DE34E20B0878A40F6F165801417F53B2017016D7321CACEE989C8CFA7 SWAP1 PUSH1 0x0 SWAP1 LOG2 POP POP JUMP JUMPDEST PUSH1 0x0 DUP1 DUP4 PUSH1 0x1 ADD SLOAD PUSH2 0x2DB5 DUP6 PUSH2 0x327B JUMP JUMPDEST GT PUSH2 0x2DC5 JUMPI POP PUSH1 0x0 SWAP1 POP DUP1 PUSH2 0x2042 JUMP JUMPDEST PUSH1 0x0 PUSH2 0x2DDE DUP6 PUSH1 0x1 ADD SLOAD PUSH2 0x2DD8 DUP8 PUSH2 0x327B JUMP JUMPDEST SWAP1 PUSH2 0x2403 JUMP JUMPDEST SWAP1 POP PUSH2 0x2DEB DUP6 DUP6 DUP4 PUSH2 0x32F7 JUMP JUMPDEST SWAP3 POP SWAP3 POP POP SWAP3 POP SWAP3 SWAP1 POP JUMP JUMPDEST PUSH1 0x0 DUP1 PUSH2 0x2E04 DUP5 DUP5 PUSH2 0x2E46 JUMP JUMPDEST SWAP1 POP DUP1 PUSH2 0x2E17 JUMPI POP POP PUSH1 0x2 DUP3 ADD SLOAD PUSH2 0x18F3 JUMP JUMPDEST PUSH1 0x1 DUP5 ADD SLOAD DUP1 DUP3 GT PUSH2 0x2E2E JUMPI PUSH1 0x0 SWAP3 POP POP POP PUSH2 0x18F3 JUMP JUMPDEST PUSH2 0x2BDA PUSH2 0x2E3B DUP4 DUP4 PUSH2 0x2403 JUMP JUMPDEST PUSH1 0x2 DUP8 ADD SLOAD SWAP1 PUSH2 0x285E JUMP JUMPDEST PUSH1 0x0 PUSH2 0x2E50 PUSH2 0x360E JUMP JUMPDEST POP PUSH1 0x40 DUP1 MLOAD PUSH1 0x20 DUP2 ADD SWAP1 SWAP2 MSTORE PUSH1 0x1 DUP4 ADD SLOAD DUP2 MSTORE PUSH2 0x2E6B PUSH2 0x360E JUMP JUMPDEST POP PUSH1 0x40 DUP1 MLOAD PUSH1 0x20 DUP2 ADD SWAP1 SWAP2 MSTORE PUSH1 0x4 DUP6 ADD SLOAD DUP2 MSTORE PUSH2 0x2E88 DUP3 DUP3 PUSH2 0x34B1 JUMP JUMPDEST PUSH2 0x2E97 JUMPI PUSH1 0x0 SWAP3 POP POP POP PUSH2 0x18F3 JUMP JUMPDEST DUP5 SLOAD PUSH2 0x2BDA SWAP1 PUSH2 0x2EB1 SWAP1 PUSH2 0x2EAB DUP6 DUP6 PUSH2 0x34E2 JUMP JUMPDEST SWAP1 PUSH2 0x34FD JUMP JUMPDEST PUSH2 0x352B JUMP JUMPDEST PUSH1 0x0 DUP2 DUP4 LT PUSH2 0x2EC5 JUMPI DUP2 PUSH2 0x12AE JUMP JUMPDEST POP SWAP1 SWAP2 SWAP1 POP JUMP JUMPDEST PUSH1 0x0 DUP2 PUSH2 0x2ED8 DUP2 PUSH2 0x30E3 JUMP JUMPDEST DUP2 SLOAD DUP2 LT PUSH2 0x2EE2 JUMPI INVALID JUMPDEST SWAP1 PUSH1 0x0 MSTORE PUSH1 0x20 PUSH1 0x0 KECCAK256 SWAP1 PUSH1 0x2 MUL ADD SWAP1 POP SWAP2 SWAP1 POP JUMP JUMPDEST PUSH1 0x0 DUP1 DUP1 DUP1 PUSH2 0x2F07 DUP8 DUP8 DUP8 PUSH2 0x32F7 JUMP JUMPDEST PUSH1 0x1 DUP10 ADD SLOAD SWAP2 SWAP4 POP SWAP2 POP PUSH2 0x2F1B SWAP1 DUP3 PUSH2 0x2403 JUMP JUMPDEST PUSH1 0x1 DUP9 ADD SSTORE SWAP1 SWAP3 POP SWAP1 POP SWAP4 POP SWAP4 SWAP2 POP POP JUMP JUMPDEST PUSH1 0x0 DUP1 PUSH2 0x2F4C PUSH2 0x2F3D DUP6 DUP6 PUSH2 0x353A JUMP JUMPDEST PUSH2 0x2F46 DUP6 PUSH2 0x242B JUMP JUMPDEST SWAP1 PUSH2 0x34B1 JUMP JUMPDEST SGT ISZERO SWAP4 SWAP3 POP POP POP JUMP JUMPDEST PUSH1 0x0 DUP1 PUSH2 0x2F61 DUP5 PUSH2 0x3576 JUMP JUMPDEST DUP5 SLOAD SWAP1 SWAP2 POP PUSH2 0x2F7D SWAP1 PUSH1 0x1 PUSH1 0x1 PUSH1 0xA0 SHL SUB DUP1 DUP5 AND SWAP2 AND DUP6 PUSH2 0x2770 JUMP JUMPDEST DUP4 SLOAD PUSH1 0x40 MLOAD PUSH4 0xB6B55F25 PUSH1 0xE0 SHL DUP2 MSTORE PUSH1 0x1 PUSH1 0x1 PUSH1 0xA0 SHL SUB SWAP1 SWAP2 AND SWAP1 PUSH4 0xB6B55F25 SWAP1 PUSH2 0x2FAC SWAP1 DUP7 SWAP1 PUSH1 0x4 ADD PUSH2 0x38FA JUMP JUMPDEST PUSH1 0x0 PUSH1 0x40 MLOAD DUP1 DUP4 SUB DUP2 PUSH1 0x0 DUP8 DUP1 EXTCODESIZE ISZERO DUP1 ISZERO PUSH2 0x2FC6 JUMPI PUSH1 0x0 DUP1 REVERT JUMPDEST POP GAS CALL ISZERO DUP1 ISZERO PUSH2 0x2FDA JUMPI RETURNDATASIZE PUSH1 0x0 DUP1 RETURNDATACOPY RETURNDATASIZE PUSH1 0x0 REVERT JUMPDEST POP POP POP PUSH1 0x1 DUP6 ADD SLOAD PUSH2 0x2FED SWAP2 POP DUP5 PUSH2 0x285E JUMP JUMPDEST PUSH1 0x1 DUP6 ADD SSTORE POP DUP2 SWAP1 POP SWAP3 SWAP2 POP POP JUMP JUMPDEST PUSH1 0x0 PUSH1 0x60 DUP5 PUSH1 0x1 PUSH1 0x1 PUSH1 0xA0 SHL SUB AND PUSH4 0x95EA7B3 DUP6 DUP6 PUSH1 0x40 MLOAD PUSH1 0x24 ADD PUSH2 0x3022 SWAP3 SWAP2 SWAP1 PUSH2 0x3891 JUMP JUMPDEST PUSH1 0x40 MLOAD PUSH1 0x20 DUP2 DUP4 SUB SUB DUP2 MSTORE SWAP1 PUSH1 0x40 MSTORE SWAP1 PUSH1 0xE0 SHL PUSH1 0x20 DUP3 ADD DUP1 MLOAD PUSH1 0x1 PUSH1 0x1 PUSH1 0xE0 SHL SUB DUP4 DUP2 DUP4 AND OR DUP4 MSTORE POP POP POP POP PUSH1 0x40 MLOAD PUSH2 0x305B SWAP2 SWAP1 PUSH2 0x3808 JUMP JUMPDEST PUSH1 0x0 PUSH1 0x40 MLOAD DUP1 DUP4 SUB DUP2 PUSH1 0x0 DUP7 GAS CALL SWAP2 POP POP RETURNDATASIZE DUP1 PUSH1 0x0 DUP2 EQ PUSH2 0x3098 JUMPI PUSH1 0x40 MLOAD SWAP2 POP PUSH1 0x1F NOT PUSH1 0x3F RETURNDATASIZE ADD AND DUP3 ADD PUSH1 0x40 MSTORE RETURNDATASIZE DUP3 MSTORE RETURNDATASIZE PUSH1 0x0 PUSH1 0x20 DUP5 ADD RETURNDATACOPY PUSH2 0x309D JUMP JUMPDEST PUSH1 0x60 SWAP2 POP JUMPDEST POP SWAP2 POP SWAP2 POP DUP2 DUP1 ISZERO PUSH2 0x30C7 JUMPI POP DUP1 MLOAD ISZERO DUP1 PUSH2 0x30C7 JUMPI POP DUP1 DUP1 PUSH1 0x20 ADD SWAP1 MLOAD DUP2 ADD SWAP1 PUSH2 0x30C7 SWAP2 SWAP1 PUSH2 0x36E0 JUMP JUMPDEST PUSH2 0x2857 JUMPI PUSH1 0x40 MLOAD PUSH3 0x461BCD PUSH1 0xE5 SHL DUP2 MSTORE PUSH1 0x4 ADD PUSH2 0x58D SWAP1 PUSH2 0x3A56 JUMP JUMPDEST PUSH1 0x0 DUP1 PUSH2 0x30EF DUP4 PUSH2 0x2B95 JUMP JUMPDEST SWAP1 POP PUSH2 0x12AE PUSH1 0x1 PUSH1 0x40 MLOAD DUP1 PUSH1 0x40 ADD PUSH1 0x40 MSTORE DUP1 PUSH1 0x11 DUP2 MSTORE PUSH1 0x20 ADD PUSH17 0x5661756C742E4C6973743A20656D707479 PUSH1 0x78 SHL DUP2 MSTORE POP DUP4 PUSH2 0x2049 SWAP1 SWAP3 SWAP2 SWAP1 PUSH4 0xFFFFFFFF AND JUMP JUMPDEST PUSH2 0x3138 PUSH2 0x360E JUMP JUMPDEST PUSH1 0x0 DUP3 ISZERO DUP1 PUSH2 0x3155 JUMPI POP POP PUSH8 0xDE0B6B3A7640000 DUP3 DUP2 MUL SWAP1 DUP2 DIV DUP4 EQ JUMPDEST PUSH2 0x315E JUMPI PUSH1 0x0 DUP1 REVERT JUMPDEST PUSH1 0x40 DUP1 MLOAD PUSH1 0x20 DUP2 ADD SWAP1 SWAP2 MSTORE SWAP1 DUP2 MSTORE SWAP3 SWAP2 POP POP JUMP JUMPDEST PUSH2 0x317A PUSH2 0x360E JUMP JUMPDEST DUP2 PUSH2 0x3184 JUMPI PUSH1 0x0 DUP1 REVERT JUMPDEST PUSH1 0x40 MLOAD DUP1 PUSH1 0x20 ADD PUSH1 0x40 MSTORE DUP1 DUP4 DUP6 PUSH1 0x0 ADD MLOAD DUP2 PUSH2 0x319C JUMPI INVALID JUMPDEST DIV SWAP1 MSTORE SWAP4 SWAP3 POP POP POP JUMP JUMPDEST PUSH2 0x31AE PUSH2 0x360E JUMP JUMPDEST DUP3 MLOAD DUP3 MLOAD DUP2 ADD SWAP1 DUP2 LT ISZERO PUSH2 0x31C1 JUMPI PUSH1 0x0 DUP1 REVERT JUMPDEST PUSH1 0x40 DUP1 MLOAD PUSH1 0x20 DUP2 ADD SWAP1 SWAP2 MSTORE SWAP1 DUP2 MSTORE SWAP4 SWAP3 POP POP POP JUMP JUMPDEST PUSH1 0x0 JUMPDEST DUP3 SLOAD DUP2 LT ISZERO PUSH2 0x3237 JUMPI DUP3 PUSH1 0x0 ADD DUP2 DUP2 SLOAD DUP2 LT PUSH2 0x31F1 JUMPI INVALID JUMPDEST PUSH1 0x0 SWAP2 DUP3 MSTORE PUSH1 0x20 SWAP1 SWAP2 KECCAK256 PUSH1 0x2 SWAP1 SWAP2 MUL ADD SLOAD DUP3 MLOAD PUSH1 0x1 PUSH1 0x1 PUSH1 0xA0 SHL SUB SWAP1 DUP2 AND SWAP2 AND EQ ISZERO PUSH2 0x322F JUMPI PUSH1 0x40 MLOAD PUSH3 0x461BCD PUSH1 0xE5 SHL DUP2 MSTORE PUSH1 0x4 ADD PUSH2 0x58D SWAP1 PUSH2 0x3F1B JUMP JUMPDEST PUSH1 0x1 ADD PUSH2 0x31D9 JUMP JUMPDEST POP DUP2 SLOAD PUSH1 0x1 DUP1 DUP3 ADD DUP5 SSTORE PUSH1 0x0 SWAP4 DUP5 MSTORE PUSH1 0x20 SWAP4 DUP5 SWAP1 KECCAK256 DUP4 MLOAD PUSH1 0x2 SWAP1 SWAP4 MUL ADD DUP1 SLOAD PUSH1 0x1 PUSH1 0x1 PUSH1 0xA0 SHL SUB NOT AND PUSH1 0x1 PUSH1 0x1 PUSH1 0xA0 SHL SUB SWAP1 SWAP4 AND SWAP3 SWAP1 SWAP3 OR DUP3 SSTORE SWAP2 SWAP1 SWAP3 ADD MLOAD SWAP2 ADD SSTORE JUMP JUMPDEST DUP1 SLOAD PUSH1 0x40 DUP1 MLOAD PUSH4 0x6A61F75 PUSH1 0xE5 SHL DUP2 MSTORE SWAP1 MLOAD PUSH1 0x0 SWAP3 PUSH1 0x1 PUSH1 0x1 PUSH1 0xA0 SHL SUB AND SWAP2 PUSH4 0xD4C3EEA0 SWAP2 PUSH1 0x4 DUP1 DUP4 ADD SWAP3 PUSH1 0x20 SWAP3 SWAP2 SWAP1 DUP3 SWAP1 SUB ADD DUP2 DUP7 DUP1 EXTCODESIZE ISZERO DUP1 ISZERO PUSH2 0x32BF JUMPI PUSH1 0x0 DUP1 REVERT JUMPDEST POP GAS STATICCALL ISZERO DUP1 ISZERO PUSH2 0x32D3 JUMPI RETURNDATASIZE PUSH1 0x0 DUP1 RETURNDATACOPY RETURNDATASIZE PUSH1 0x0 REVERT JUMPDEST POP POP POP POP PUSH1 0x40 MLOAD RETURNDATASIZE PUSH1 0x1F NOT PUSH1 0x1F DUP3 ADD AND DUP3 ADD DUP1 PUSH1 0x40 MSTORE POP DUP2 ADD SWAP1 PUSH2 0x18F3 SWAP2 SWAP1 PUSH2 0x36FC JUMP JUMPDEST PUSH1 0x0 DUP1 PUSH1 0x0 PUSH2 0x3305 DUP7 PUSH2 0x3576 JUMP JUMPDEST SWAP1 POP PUSH1 0x0 DUP2 PUSH1 0x1 PUSH1 0x1 PUSH1 0xA0 SHL SUB AND PUSH4 0x70A08231 DUP8 PUSH1 0x40 MLOAD DUP3 PUSH4 0xFFFFFFFF AND PUSH1 0xE0 SHL DUP2 MSTORE PUSH1 0x4 ADD PUSH2 0x3335 SWAP2 SWAP1 PUSH2 0x3824 JUMP JUMPDEST PUSH1 0x20 PUSH1 0x40 MLOAD DUP1 DUP4 SUB DUP2 DUP7 DUP1 EXTCODESIZE ISZERO DUP1 ISZERO PUSH2 0x334D JUMPI PUSH1 0x0 DUP1 REVERT JUMPDEST POP GAS STATICCALL ISZERO DUP1 ISZERO PUSH2 0x3361 JUMPI RETURNDATASIZE PUSH1 0x0 DUP1 RETURNDATACOPY RETURNDATASIZE PUSH1 0x0 REVERT JUMPDEST POP POP POP POP PUSH1 0x40 MLOAD RETURNDATASIZE PUSH1 0x1F NOT PUSH1 0x1F DUP3 ADD AND DUP3 ADD DUP1 PUSH1 0x40 MSTORE POP DUP2 ADD SWAP1 PUSH2 0x3385 SWAP2 SWAP1 PUSH2 0x36FC JUMP JUMPDEST SWAP1 POP PUSH1 0x0 PUSH2 0x3392 DUP9 PUSH2 0x327B JUMP JUMPDEST DUP9 SLOAD PUSH1 0x40 MLOAD PUSH4 0xF3FEF3A3 PUSH1 0xE0 SHL DUP2 MSTORE SWAP2 SWAP3 POP PUSH1 0x1 PUSH1 0x1 PUSH1 0xA0 SHL SUB AND SWAP1 PUSH4 0xF3FEF3A3 SWAP1 PUSH2 0x33C4 SWAP1 DUP11 SWAP1 DUP11 SWAP1 PUSH1 0x4 ADD PUSH2 0x3891 JUMP JUMPDEST PUSH1 0x0 PUSH1 0x40 MLOAD DUP1 DUP4 SUB DUP2 PUSH1 0x0 DUP8 DUP1 EXTCODESIZE ISZERO DUP1 ISZERO PUSH2 0x33DE JUMPI PUSH1 0x0 DUP1 REVERT JUMPDEST POP GAS CALL ISZERO DUP1 ISZERO PUSH2 0x33F2 JUMPI RETURNDATASIZE PUSH1 0x0 DUP1 RETURNDATACOPY RETURNDATASIZE PUSH1 0x0 REVERT JUMPDEST POP POP PUSH1 0x40 MLOAD PUSH4 0x70A08231 PUSH1 0xE0 SHL DUP2 MSTORE PUSH1 0x0 SWAP3 POP PUSH1 0x1 PUSH1 0x1 PUSH1 0xA0 SHL SUB DUP7 AND SWAP2 POP PUSH4 0x70A08231 SWAP1 PUSH2 0x3425 SWAP1 DUP12 SWAP1 PUSH1 0x4 ADD PUSH2 0x3824 JUMP JUMPDEST PUSH1 0x20 PUSH1 0x40 MLOAD DUP1 DUP4 SUB DUP2 DUP7 DUP1 EXTCODESIZE ISZERO DUP1 ISZERO PUSH2 0x343D JUMPI PUSH1 0x0 DUP1 REVERT JUMPDEST POP GAS STATICCALL ISZERO DUP1 ISZERO PUSH2 0x3451 JUMPI RETURNDATASIZE PUSH1 0x0 DUP1 RETURNDATACOPY RETURNDATASIZE PUSH1 0x0 REVERT JUMPDEST POP POP POP POP PUSH1 0x40 MLOAD RETURNDATASIZE PUSH1 0x1F NOT PUSH1 0x1F DUP3 ADD AND DUP3 ADD DUP1 PUSH1 0x40 MSTORE POP DUP2 ADD SWAP1 PUSH2 0x3475 SWAP2 SWAP1 PUSH2 0x36FC JUMP JUMPDEST SWAP1 POP PUSH1 0x0 PUSH2 0x3483 DUP3 DUP6 PUSH2 0x2403 JUMP JUMPDEST SWAP1 POP PUSH1 0x0 PUSH2 0x3490 DUP12 PUSH2 0x327B JUMP JUMPDEST SWAP1 POP PUSH1 0x0 PUSH2 0x349E DUP6 DUP4 PUSH2 0x2403 JUMP JUMPDEST SWAP3 SWAP13 SWAP3 SWAP12 POP SWAP2 SWAP10 POP POP POP POP POP POP POP POP POP POP JUMP JUMPDEST DUP1 MLOAD DUP3 MLOAD PUSH1 0x0 SWAP2 GT ISZERO PUSH2 0x34C7 JUMPI POP PUSH1 0x0 NOT PUSH2 0x18F3 JUMP JUMPDEST DUP2 MLOAD DUP4 MLOAD GT ISZERO PUSH2 0x34D9 JUMPI POP PUSH1 0x1 PUSH2 0x18F3 JUMP JUMPDEST POP PUSH1 0x0 SWAP3 SWAP2 POP POP JUMP JUMPDEST PUSH2 0x34EA PUSH2 0x360E JUMP JUMPDEST DUP3 MLOAD DUP3 MLOAD DUP2 SUB SWAP1 DUP2 GT ISZERO PUSH2 0x31C1 JUMPI PUSH1 0x0 DUP1 REVERT JUMPDEST PUSH2 0x3505 PUSH2 0x360E JUMP JUMPDEST PUSH1 0x0 DUP3 ISZERO DUP1 PUSH2 0x3522 JUMPI POP POP DUP3 MLOAD DUP3 DUP2 MUL SWAP1 DUP4 DUP3 DUP2 PUSH2 0x351F JUMPI INVALID JUMPDEST DIV EQ JUMPDEST PUSH2 0x31C1 JUMPI PUSH1 0x0 DUP1 REVERT JUMPDEST MLOAD PUSH8 0xDE0B6B3A7640000 SWAP1 DIV SWAP1 JUMP JUMPDEST PUSH2 0x3542 PUSH2 0x360E JUMP JUMPDEST PUSH1 0x0 PUSH2 0x354E DUP5 DUP5 PUSH2 0x2B99 JUMP JUMPDEST SWAP1 POP DUP1 PUSH2 0x3565 JUMPI PUSH2 0x355D PUSH2 0x35F2 JUMP JUMPDEST SWAP2 POP POP PUSH2 0x18F3 JUMP JUMPDEST PUSH2 0x18EF DUP2 PUSH2 0x2ACE DUP7 PUSH1 0x0 ADD SLOAD PUSH2 0x3130 JUMP JUMPDEST DUP1 SLOAD PUSH1 0x40 DUP1 MLOAD PUSH4 0x7E062A35 PUSH1 0xE1 SHL DUP2 MSTORE SWAP1 MLOAD PUSH1 0x0 SWAP3 PUSH1 0x1 PUSH1 0x1 PUSH1 0xA0 SHL SUB AND SWAP2 PUSH4 0xFC0C546A SWAP2 PUSH1 0x4 DUP1 DUP4 ADD SWAP3 PUSH1 0x20 SWAP3 SWAP2 SWAP1 DUP3 SWAP1 SUB ADD DUP2 DUP7 DUP1 EXTCODESIZE ISZERO DUP1 ISZERO PUSH2 0x35BA JUMPI PUSH1 0x0 DUP1 REVERT JUMPDEST POP GAS STATICCALL ISZERO DUP1 ISZERO PUSH2 0x35CE JUMPI RETURNDATASIZE PUSH1 0x0 DUP1 RETURNDATACOPY RETURNDATASIZE PUSH1 0x0 REVERT JUMPDEST POP POP POP POP PUSH1 0x40 MLOAD RETURNDATASIZE PUSH1 0x1F NOT PUSH1 0x1F DUP3 ADD AND DUP3 ADD DUP1 PUSH1 0x40 MSTORE POP DUP2 ADD SWAP1 PUSH2 0x18F3 SWAP2 SWAP1 PUSH2 0x363D JUMP JUMPDEST PUSH2 0x35FA PUSH2 0x360E JUMP JUMPDEST POP PUSH1 0x40 DUP1 MLOAD PUSH1 0x20 DUP2 ADD SWAP1 SWAP2 MSTORE PUSH1 0x0 NOT DUP2 MSTORE SWAP1 JUMP JUMPDEST PUSH1 0x40 MLOAD DUP1 PUSH1 0x20 ADD PUSH1 0x40 MSTORE DUP1 PUSH1 0x0 DUP2 MSTORE POP SWAP1 JUMP JUMPDEST PUSH1 0x0 PUSH1 0x20 DUP3 DUP5 SUB SLT ISZERO PUSH2 0x3632 JUMPI DUP1 DUP2 REVERT JUMPDEST DUP2 CALLDATALOAD PUSH2 0x12AE DUP2 PUSH2 0x3F88 JUMP JUMPDEST PUSH1 0x0 PUSH1 0x20 DUP3 DUP5 SUB SLT ISZERO PUSH2 0x364E JUMPI DUP1 DUP2 REVERT JUMPDEST DUP2 MLOAD PUSH2 0x12AE DUP2 PUSH2 0x3F88 JUMP JUMPDEST PUSH1 0x0 DUP1 PUSH1 0x0 PUSH1 0x60 DUP5 DUP7 SUB SLT ISZERO PUSH2 0x366D JUMPI DUP2 DUP3 REVERT JUMPDEST DUP4 CALLDATALOAD PUSH2 0x3678 DUP2 PUSH2 0x3F88 JUMP JUMPDEST SWAP3 POP PUSH1 0x20 DUP5 ADD CALLDATALOAD PUSH2 0x3688 DUP2 PUSH2 0x3F88 JUMP JUMPDEST SWAP3 SWAP6 SWAP3 SWAP5 POP POP POP PUSH1 0x40 SWAP2 SWAP1 SWAP2 ADD CALLDATALOAD SWAP1 JUMP JUMPDEST PUSH1 0x0 DUP1 PUSH1 0x40 DUP4 DUP6 SUB SLT ISZERO PUSH2 0x36AB JUMPI DUP2 DUP3 REVERT JUMPDEST DUP3 CALLDATALOAD PUSH2 0x36B6 DUP2 PUSH2 0x3F88 JUMP JUMPDEST SWAP5 PUSH1 0x20 SWAP4 SWAP1 SWAP4 ADD CALLDATALOAD SWAP4 POP POP POP JUMP JUMPDEST PUSH1 0x0 PUSH1 0x20 DUP3 DUP5 SUB SLT ISZERO PUSH2 0x36D5 JUMPI DUP1 DUP2 REVERT JUMPDEST DUP2 CALLDATALOAD PUSH2 0x12AE DUP2 PUSH2 0x3F9D JUMP JUMPDEST PUSH1 0x0 PUSH1 0x20 DUP3 DUP5 SUB SLT ISZERO PUSH2 0x36F1 JUMPI DUP1 DUP2 REVERT JUMPDEST DUP2 MLOAD PUSH2 0x12AE DUP2 PUSH2 0x3F9D JUMP JUMPDEST PUSH1 0x0 PUSH1 0x20 DUP3 DUP5 SUB SLT ISZERO PUSH2 0x370D JUMPI DUP1 DUP2 REVERT JUMPDEST POP MLOAD SWAP2 SWAP1 POP JUMP JUMPDEST PUSH1 0x0 DUP1 PUSH1 0x0 DUP1 PUSH1 0x0 PUSH1 0x80 DUP7 DUP9 SUB SLT ISZERO PUSH2 0x372B JUMPI DUP1 DUP2 REVERT JUMPDEST DUP6 CALLDATALOAD PUSH2 0x3736 DUP2 PUSH2 0x3F88 JUMP JUMPDEST SWAP5 POP PUSH1 0x20 DUP7 ADD CALLDATALOAD PUSH2 0x3746 DUP2 PUSH2 0x3F88 JUMP JUMPDEST SWAP4 POP PUSH1 0x40 DUP7 ADD CALLDATALOAD SWAP3 POP PUSH1 0x60 DUP7 ADD CALLDATALOAD PUSH8 0xFFFFFFFFFFFFFFFF DUP1 DUP3 GT ISZERO PUSH2 0x3769 JUMPI DUP3 DUP4 REVERT JUMPDEST DUP2 DUP9 ADD SWAP2 POP DUP9 PUSH1 0x1F DUP4 ADD SLT PUSH2 0x377C JUMPI DUP3 DUP4 REVERT JUMPDEST DUP2 CALLDATALOAD DUP2 DUP2 GT ISZERO PUSH2 0x378A JUMPI DUP4 DUP5 REVERT JUMPDEST DUP10 PUSH1 0x20 DUP3 DUP6 ADD ADD GT ISZERO PUSH2 0x379B JUMPI DUP4 DUP5 REVERT JUMPDEST SWAP7 SWAP10 SWAP6 SWAP9 POP SWAP4 SWAP7 POP PUSH1 0x20 ADD SWAP5 SWAP4 SWAP3 POP POP POP JUMP JUMPDEST PUSH1 0x0 PUSH1 0x20 DUP3 DUP5 SUB SLT ISZERO PUSH2 0x37BF JUMPI DUP1 DUP2 REVERT JUMPDEST POP CALLDATALOAD SWAP2 SWAP1 POP JUMP JUMPDEST PUSH1 0x0 DUP1 PUSH1 0x40 DUP4 DUP6 SUB SLT ISZERO PUSH2 0x37D8 JUMPI DUP2 DUP3 REVERT JUMPDEST POP POP DUP1 CALLDATALOAD SWAP3 PUSH1 0x20 SWAP1 SWAP2 ADD CALLDATALOAD SWAP2 POP JUMP JUMPDEST PUSH1 0x0 PUSH1 0x20 DUP3 DUP5 SUB SLT ISZERO PUSH2 0x37F8 JUMPI DUP1 DUP2 REVERT JUMPDEST DUP2 MLOAD PUSH1 0xFF DUP2 AND DUP2 EQ PUSH2 0x12AE JUMPI DUP2 DUP3 REVERT JUMPDEST PUSH1 0x0 DUP3 MLOAD PUSH2 0x381A DUP2 DUP5 PUSH1 0x20 DUP8 ADD PUSH2 0x3F5C JUMP JUMPDEST SWAP2 SWAP1 SWAP2 ADD SWAP3 SWAP2 POP POP JUMP JUMPDEST PUSH1 0x1 PUSH1 0x1 PUSH1 0xA0 SHL SUB SWAP2 SWAP1 SWAP2 AND DUP2 MSTORE PUSH1 0x20 ADD SWAP1 JUMP JUMPDEST PUSH1 0x1 PUSH1 0x1 PUSH1 0xA0 SHL SUB DUP8 DUP2 AND DUP3 MSTORE DUP7 AND PUSH1 0x20 DUP3 ADD MSTORE PUSH1 0x40 DUP2 ADD DUP6 SWAP1 MSTORE PUSH1 0x60 DUP2 ADD DUP5 SWAP1 MSTORE PUSH1 0xA0 PUSH1 0x80 DUP3 ADD DUP2 SWAP1 MSTORE DUP2 ADD DUP3 SWAP1 MSTORE PUSH1 0x0 DUP3 DUP5 PUSH1 0xC0 DUP5 ADD CALLDATACOPY DUP2 DUP4 ADD PUSH1 0xC0 SWAP1 DUP2 ADD SWAP2 SWAP1 SWAP2 MSTORE PUSH1 0x1F SWAP1 SWAP3 ADD PUSH1 0x1F NOT AND ADD ADD SWAP6 SWAP5 POP POP POP POP POP JUMP JUMPDEST PUSH1 0x1 PUSH1 0x1 PUSH1 0xA0 SHL SUB SWAP3 SWAP1 SWAP3 AND DUP3 MSTORE PUSH1 0x20 DUP3 ADD MSTORE PUSH1 0x40 ADD SWAP1 JUMP JUMPDEST PUSH1 0x1 PUSH1 0x1 PUSH1 0xA0 SHL SUB SWAP4 DUP5 AND DUP2 MSTORE SWAP2 SWAP1 SWAP3 AND PUSH1 0x20 DUP3 ADD MSTORE PUSH1 0x40 DUP2 ADD SWAP2 SWAP1 SWAP2 MSTORE PUSH1 0x60 ADD SWAP1 JUMP JUMPDEST PUSH1 0x1 PUSH1 0x1 PUSH1 0xA0 SHL SUB SWAP4 SWAP1 SWAP4 AND DUP4 MSTORE PUSH1 0x20 DUP4 ADD SWAP2 SWAP1 SWAP2 MSTORE PUSH1 0x40 DUP3 ADD MSTORE PUSH1 0x60 ADD SWAP1 JUMP JUMPDEST SWAP1 ISZERO ISZERO DUP2 MSTORE PUSH1 0x20 ADD SWAP1 JUMP JUMPDEST SWAP1 DUP2 MSTORE PUSH1 0x20 ADD SWAP1 JUMP JUMPDEST PUSH1 0x0 PUSH1 0x20 DUP3 MSTORE DUP3 MLOAD DUP1 PUSH1 0x20 DUP5 ADD MSTORE PUSH2 0x3922 DUP2 PUSH1 0x40 DUP6 ADD PUSH1 0x20 DUP8 ADD PUSH2 0x3F5C JUMP JUMPDEST PUSH1 0x1F ADD PUSH1 0x1F NOT AND SWAP2 SWAP1 SWAP2 ADD PUSH1 0x40 ADD SWAP3 SWAP2 POP POP JUMP JUMPDEST PUSH1 0x20 DUP1 DUP3 MSTORE PUSH1 0x1F SWAP1 DUP3 ADD MSTORE PUSH32 0x5472616E7366657248656C7065723A205452414E534645525F4641494C454400 PUSH1 0x40 DUP3 ADD MSTORE PUSH1 0x60 ADD SWAP1 JUMP JUMPDEST PUSH1 0x20 DUP1 DUP3 MSTORE PUSH1 0xF SWAP1 DUP3 ADD MSTORE PUSH15 0x494E56414C49445F41444452455353 PUSH1 0x88 SHL PUSH1 0x40 DUP3 ADD MSTORE PUSH1 0x60 ADD SWAP1 JUMP JUMPDEST PUSH1 0x20 DUP1 DUP3 MSTORE PUSH1 0x21 SWAP1 DUP3 ADD MSTORE PUSH32 0x466C6173684C656E6465723A20556E737570706F727465642063757272656E63 PUSH1 0x40 DUP3 ADD MSTORE PUSH1 0x79 PUSH1 0xF8 SHL PUSH1 0x60 DUP3 ADD MSTORE PUSH1 0x80 ADD SWAP1 JUMP JUMPDEST PUSH1 0x20 DUP1 DUP3 MSTORE PUSH1 0x1B SWAP1 DUP3 ADD MSTORE PUSH32 0x536166654D6174683A206164646974696F6E206F766572666C6F770000000000 PUSH1 0x40 DUP3 ADD MSTORE PUSH1 0x60 ADD SWAP1 JUMP JUMPDEST PUSH1 0x20 DUP1 DUP3 MSTORE PUSH1 0x28 SWAP1 DUP3 ADD MSTORE PUSH32 0x63616E6E6F7420696E697469616C697A65207265776172647320616464726573 PUSH1 0x40 DUP3 ADD MSTORE PUSH8 0x7320746F2030783 PUSH1 0xC4 SHL PUSH1 0x60 DUP3 ADD MSTORE PUSH1 0x80 ADD SWAP1 JUMP JUMPDEST PUSH1 0x20 DUP1 DUP3 MSTORE PUSH1 0x1E SWAP1 DUP3 ADD MSTORE PUSH32 0x5472616E7366657248656C7065723A20415050524F56455F4641494C45440000 PUSH1 0x40 DUP3 ADD MSTORE PUSH1 0x60 ADD SWAP1 JUMP JUMPDEST PUSH1 0x20 DUP1 DUP3 MSTORE DUP2 DUP2 ADD MSTORE PUSH32 0x536F72727920776520646F206E6F742061636365707420636F6E747261637421 PUSH1 0x40 DUP3 ADD MSTORE PUSH1 0x60 ADD SWAP1 JUMP JUMPDEST PUSH1 0x20 DUP1 DUP3 MSTORE PUSH1 0x1D SWAP1 DUP3 ADD MSTORE PUSH32 0x636F6E66696720616464726573732063616E6E6F74206265203078302E000000 PUSH1 0x40 DUP3 ADD MSTORE PUSH1 0x60 ADD SWAP1 JUMP JUMPDEST PUSH1 0x20 DUP1 DUP3 MSTORE PUSH1 0x23 SWAP1 DUP3 ADD MSTORE PUSH32 0x616374697665207661756C7420616464726573732063616E6E6F742062652030 PUSH1 0x40 DUP3 ADD MSTORE PUSH3 0x3C1817 PUSH1 0xE9 SHL PUSH1 0x60 DUP3 ADD MSTORE PUSH1 0x80 ADD SWAP1 JUMP JUMPDEST PUSH1 0x20 DUP1 DUP3 MSTORE PUSH1 0x1E SWAP1 DUP3 ADD MSTORE PUSH32 0x536166654D6174683A207375627472616374696F6E206F766572666C6F770000 PUSH1 0x40 DUP3 ADD MSTORE PUSH1 0x60 ADD SWAP1 JUMP JUMPDEST PUSH1 0x20 DUP1 DUP3 MSTORE PUSH1 0x1B SWAP1 DUP3 ADD MSTORE PUSH32 0x6F76656E20616464726573732063616E6E6F74206265203078302E0000000000 PUSH1 0x40 DUP3 ADD MSTORE PUSH1 0x60 ADD SWAP1 JUMP JUMPDEST PUSH1 0x20 DUP1 DUP3 MSTORE PUSH1 0x1A SWAP1 DUP3 ADD MSTORE PUSH32 0x536166654D6174683A206469766973696F6E206279207A65726F000000000000 PUSH1 0x40 DUP3 ADD MSTORE PUSH1 0x60 ADD SWAP1 JUMP JUMPDEST PUSH1 0x20 DUP1 DUP3 MSTORE PUSH1 0x13 SWAP1 DUP3 ADD MSTORE PUSH19 0x185B1C9958591E481A5B9A5D1A585B1A5E9959 PUSH1 0x6A SHL PUSH1 0x40 DUP3 ADD MSTORE PUSH1 0x60 ADD SWAP1 JUMP JUMPDEST PUSH1 0x20 DUP1 DUP3 MSTORE PUSH1 0x9 SWAP1 DUP3 ADD MSTORE PUSH9 0x2327A92124A22222A7 PUSH1 0xB9 SHL PUSH1 0x40 DUP3 ADD MSTORE PUSH1 0x60 ADD SWAP1 JUMP JUMPDEST PUSH1 0x20 DUP1 DUP3 MSTORE PUSH1 0x25 SWAP1 DUP3 ADD MSTORE PUSH32 0x63616E6E6F7420696E697469616C697A65206F76656E20616464726573732074 PUSH1 0x40 DUP3 ADD MSTORE PUSH5 0x6F2030783 PUSH1 0xDC SHL PUSH1 0x60 DUP3 ADD MSTORE PUSH1 0x80 ADD SWAP1 JUMP JUMPDEST PUSH1 0x20 DUP1 DUP3 MSTORE PUSH1 0x9 SWAP1 DUP3 ADD MSTORE PUSH9 0x4E4F5F4348414E4745 PUSH1 0xB8 SHL PUSH1 0x40 DUP3 ADD MSTORE PUSH1 0x60 ADD SWAP1 JUMP JUMPDEST PUSH1 0x20 DUP1 DUP3 MSTORE PUSH1 0x65 SWAP1 DUP3 ADD MSTORE PUSH32 0x6E6F7420616E20656D657267656E63792C206E6F7420676F7665726E616E6365 PUSH1 0x40 DUP3 ADD MSTORE PUSH32 0x2C20616E64207573657220646F6573206E6F742068617665207065726D697373 PUSH1 0x60 DUP3 ADD MSTORE PUSH32 0x696F6E20746F20726563616C6C2066756E64732066726F6D2061637469766520 PUSH1 0x80 DUP3 ADD MSTORE PUSH5 0x1D985D5B1D PUSH1 0xDA SHL PUSH1 0xA0 DUP3 ADD MSTORE PUSH1 0xC0 ADD SWAP1 JUMP JUMPDEST PUSH1 0x20 DUP1 DUP3 MSTORE PUSH1 0x21 SWAP1 DUP3 ADD MSTORE PUSH32 0x536166654D6174683A206D756C7469706C69636174696F6E206F766572666C6F PUSH1 0x40 DUP3 ADD MSTORE PUSH1 0x77 PUSH1 0xF8 SHL PUSH1 0x60 DUP3 ADD MSTORE PUSH1 0x80 ADD SWAP1 JUMP JUMPDEST PUSH1 0x20 DUP1 DUP3 MSTORE PUSH1 0x1C SWAP1 DUP3 ADD MSTORE PUSH32 0x466C6173684C656E6465723A2043616C6C6261636B206661696C656400000000 PUSH1 0x40 DUP3 ADD MSTORE PUSH1 0x60 ADD SWAP1 JUMP JUMPDEST PUSH1 0x20 DUP1 DUP3 MSTORE PUSH1 0xF SWAP1 DUP3 ADD MSTORE PUSH15 0x3A37B5B2B71036B4B9B6B0BA31B417 PUSH1 0x89 SHL PUSH1 0x40 DUP3 ADD MSTORE PUSH1 0x60 ADD SWAP1 JUMP JUMPDEST PUSH1 0x20 DUP1 DUP3 MSTORE PUSH1 0x10 SWAP1 DUP3 ADD MSTORE PUSH16 0x3737BA1034B734BA34B0B634BD32B217 PUSH1 0x81 SHL PUSH1 0x40 DUP3 ADD MSTORE PUSH1 0x60 ADD SWAP1 JUMP JUMPDEST PUSH1 0x20 DUP1 DUP3 MSTORE PUSH1 0x1E SWAP1 DUP3 ADD MSTORE PUSH32 0x7265776172647320616464726573732063616E6E6F74206265203078302E0000 PUSH1 0x40 DUP3 ADD MSTORE PUSH1 0x60 ADD SWAP1 JUMP JUMPDEST PUSH1 0x20 DUP1 DUP3 MSTORE PUSH1 0x0 SWAP1 DUP3 ADD MSTORE PUSH1 0x40 ADD SWAP1 JUMP JUMPDEST PUSH1 0x20 DUP1 DUP3 MSTORE PUSH1 0x17 SWAP1 DUP3 ADD MSTORE PUSH32 0x656D657267656E637920706175736520656E61626C6564000000000000000000 PUSH1 0x40 DUP3 ADD MSTORE PUSH1 0x60 ADD SWAP1 JUMP JUMPDEST PUSH1 0x20 DUP1 DUP3 MSTORE PUSH1 0x24 SWAP1 DUP3 ADD MSTORE PUSH32 0x5472616E7366657248656C7065723A205452414E534645525F46524F4D5F4641 PUSH1 0x40 DUP3 ADD MSTORE PUSH4 0x12531151 PUSH1 0xE2 SHL PUSH1 0x60 DUP3 ADD MSTORE PUSH1 0x80 ADD SWAP1 JUMP JUMPDEST PUSH1 0x20 DUP1 DUP3 MSTORE PUSH1 0x1F SWAP1 DUP3 ADD MSTORE PUSH32 0x5265656E7472616E637947756172643A207265656E7472616E742063616C6C00 PUSH1 0x40 DUP3 ADD MSTORE PUSH1 0x60 ADD SWAP1 JUMP JUMPDEST PUSH1 0x20 DUP1 DUP3 MSTORE PUSH1 0x12 SWAP1 DUP3 ADD MSTORE PUSH18 0x37B333103832B3903634B6B4BA30BA34B7B7 PUSH1 0x71 SHL PUSH1 0x40 DUP3 ADD MSTORE PUSH1 0x60 ADD SWAP1 JUMP JUMPDEST PUSH1 0x20 DUP1 DUP3 MSTORE PUSH1 0xF SWAP1 DUP3 ADD MSTORE PUSH15 0x10A932B832B0BA1030B230B83A32B9 PUSH1 0x89 SHL PUSH1 0x40 DUP3 ADD MSTORE PUSH1 0x60 ADD SWAP1 JUMP JUMPDEST SWAP1 MLOAD DUP2 MSTORE PUSH1 0x20 ADD SWAP1 JUMP JUMPDEST SWAP2 DUP3 MSTORE PUSH1 0x20 DUP3 ADD MSTORE PUSH1 0x40 ADD SWAP1 JUMP JUMPDEST PUSH1 0x0 JUMPDEST DUP4 DUP2 LT ISZERO PUSH2 0x3F77 JUMPI DUP2 DUP2 ADD MLOAD DUP4 DUP3 ADD MSTORE PUSH1 0x20 ADD PUSH2 0x3F5F JUMP JUMPDEST DUP4 DUP2 GT ISZERO PUSH2 0x209E JUMPI POP POP PUSH1 0x0 SWAP2 ADD MSTORE JUMP JUMPDEST PUSH1 0x1 PUSH1 0x1 PUSH1 0xA0 SHL SUB DUP2 AND DUP2 EQ PUSH2 0x194E JUMPI PUSH1 0x0 DUP1 REVERT JUMPDEST DUP1 ISZERO ISZERO DUP2 EQ PUSH2 0x194E JUMPI PUSH1 0x0 DUP1 REVERT INVALID COINBASE PUSH4 0x74696F6E KECCAK256 PUSH3 0x6C6F63 PUSH12 0x65643A20756E6865616C7468 PUSH26 0x20636F6C6C61746572616C697A6174696F6E20726174696FA264 PUSH10 0x70667358221220B3CEB9 CALLDATALOAD 0xE8 0xE5 SWAP4 0x5C 0x23 0xD9 0x2E 0x5F 0xCD BLOCKHASH PUSH8 0x18FDC6DCEF8F604A 0x26 ADDRESS DUP9 PUSH5 0x566067C360 PUSH5 0x736F6C6343 STOP MOD 0xC STOP CALLER "
    }
  },
  "humanReadableAbi": [
    "constructor(address _token, address _friesToken, address _fryerConfig)",
    "event ActiveVaultUpdated(address indexed adapter)",
    "event ConfigUpdated(address indexed newConfig)",
    "event EmergencyExitUpdated(bool indexed emergencyExit)",
    "event FundsFlushed(uint256 indexed depositedAmount)",
    "event FundsHarvested(uint256 indexed harvestedAmount, uint256 indexed decreasedValue)",
    "event FundsRecalled(uint256 indexed vaultId, uint256 withdrawnAmount, uint256 decreasedValue)",
    "event ImplChanged(address indexed _oldImpl, address indexed _newImpl)",
    "event OvenUpdated(address indexed newOven)",
    "event RewardsUpdated(address indexed reward)",
    "event TokensDeposited(address indexed user, uint256 indexed amount)",
    "event TokensLiquidated(address indexed user, uint256 indexed amount, uint256 withdrawnAmount, uint256 decreasedValue)",
    "event TokensRepaid(address indexed user, uint256 indexed parentAmount, uint256 indexed childAmount)",
    "event TokensWithdrawn(address indexed user, uint256 indexed amount, uint256 withdrawnAmount, uint256 decreasedValue)",
    "event UseFlashloan(address indexed user, address token, uint256 amount, uint256 fee)",
    "function FLASH_CALLBACK_SUCCESS() view returns(bytes32)",
    "function _linkGasOracle() view returns(address)",
    "function borrow(uint256 _amount)",
    "function collateralizationLimit() view returns(tuple(uint256 x))",
    "function convertTokenAmount(address _fromToken, address _toToken, uint256 _fromAmount) view returns(uint256 toAmount)",
    "function deposit(uint256 _amount)",
    "function emergencyExit() view returns(bool)",
    "function flashFee(address token_, uint256 amount) view returns(uint256)",
    "function flashLoan(address receiver, address token_, uint256 amount, bytes data) returns(bool)",
    "function flush() returns(uint256)",
    "function flushActivator() view returns(uint256)",
    "function friesToken() view returns(address)",
    "function fryerConfig() view returns(address)",
    "function getCdpLastDeposit(address _account) view returns(uint256)",
    "function getCdpTotalCredit(address _account) view returns(uint256)",
    "function getCdpTotalDebt(address _account) view returns(uint256)",
    "function getCdpTotalDeposited(address _account) view returns(uint256)",
    "function getVaultAdapter(uint256 _vaultId) view returns(address)",
    "function getVaultTotalDeposited(uint256 _vaultId) view returns(uint256)",
    "function harvest(uint256 _vaultId) returns(uint256, uint256)",
    "function impl() view returns(address)",
    "function initialize(address _adapter)",
    "function initialized() view returns(bool)",
    "function liquidate(uint256 _amount) returns(uint256, uint256)",
    "function maxFlashLoan(address token_) view returns(uint256)",
    "function migrate(address _adapter)",
    "function oven() view returns(address)",
    "function pegMinimum() view returns(uint256)",
    "function precisionConversion(address _token, uint256 _amount) view returns(uint256 toAmount)",
    "function recall(uint256 _vaultId, uint256 _amount) returns(uint256, uint256)",
    "function recallAll(uint256 _vaultId) returns(uint256, uint256)",
    "function repay(uint256 _parentAmount, uint256 _childAmount)",
    "function rewards() view returns(address)",
    "function setConfig(address _config)",
    "function setEmergencyExit(bool _emergencyExit)",
    "function setFlushActivator(uint256 _flushActivator)",
    "function setOracleAddress(address Oracle, uint256 peg)",
    "function setOven(address _oven)",
    "function setRewards(address _rewards)",
    "function token() view returns(address)",
    "function totalDeposited() view returns(uint256)",
    "function upgradeImpl(address _newImpl)",
    "function vaultCount() view returns(uint256)",
    "function withdraw(uint256 _amount) returns(uint256, uint256)"
  ]
}